:020000040000fa
:080000000002040000000000f2
:020000040000fa
:04000800d80200001a
:020000040000fa
:04000c00da1b0000fb
:020000040000fa
:04001000ec1b0000e5
:020000040000fa
:04001400e21b0000eb
:020000040000fa
:04001800f41b0000d5
:020000040000fa
:04001c00d802000006
:020000040000fa
:04002000d802000002
:020000040000fa
:04002400d8020000fe
:020000040000fa
:04002800d8020000fa
:020000040000fa
:04002c00d8020000f6
:020000040000fa
:04003000d8020000f2
:020000040000fa
:04003400d8020000ee
:020000040000fa
:04003800d8020000ea
:020000040000fa
:04003c00d8020000e6
:020000040000fa
:04004000d8020000e2
:020000040000fa
:04004400d8020000de
:020000040000fa
:04004800d8020000da
:020000040000fa
:04004c00d8020000d6
:020000040000fa
:04005000d8020000d2
:020000040000fa
:04005400d8020000ce
:020000040000fa
:04005800d8020000ca
:020000040000fa
:04005c00d8020000c6
:020000040000fa
:04006000d8020000c2
:020000040000fa
:04006400d8020000be
:020000040000fa
:04006800d8020000ba
:020000040000fa
:04006c00d8020000b6
:020000040000fa
:04007000d8020000b2
:020000040000fa
:04007400d8020000ae
:020000040000fa
:04007800d8020000aa
:020000040000fa
:04007c00d8020000a6
:020000040000fa
:04008000d8020000a2
:020000040000fa
:04008400d80200009e
:020000040000fa
:04008800d80200009a
:020000040000fa
:04008c00d802000096
:020000040000fa
:04009000d802000092
:020000040000fa
:04009400d80200008e
:020000040000fa
:04009800d80200008a
:020000040000fa
:04009c00d802000086
:020000040000fa
:0400a000d802000082
:020000040000fa
:0400a400d80200007e
:020000040000fa
:0400a800d80200007a
:020000040000fa
:0400ac00d802000076
:020000040000fa
:0400b000d802000072
:020000040000fa
:0400b400d80200006e
:020000040000fa
:0400b800d80200006a
:020000040000fa
:0400bc00d802000066
:020000040000fa
:0400c000d802000062
:020000040000fa
:0400c400d80200005e
:020000040000fa
:0400c800d80200005a
:020000040000fa
:0400cc00d802000056
:020000040000fa
:0400d000d802000052
:020000040000fa
:0400d400d80200004e
:020000040000fa
:0400d800d80200004a
:020000040000fa
:0400dc00d802000046
:020000040000fa
:0400e000d802000042
:020000040000fa
:0400e400d80200003e
:020000040000fa
:0400e800d80200003a
:020000040000fa
:0400ec0016130000e7
:020000040000fa
:0400f000d802000032
:020000040000fa
:0400f400d80200002e
:020000040000fa
:0400f800d80200002a
:020000040000fa
:0400fc00d802000026
:020000040000fa
:04010000d802000021
:020000040000fa
:04010400d80200001d
:020000040000fa
:04010800d802000019
:020000040000fa
:04010c00d802000015
:020000040000fa
:04011000d802000011
:020000040000fa
:04011400d80200000d
:020000040000fa
:04011800d802000009
:020000040000fa
:04011c00d802000005
:020000040000fa
:04012000d802000001
:020000040000fa
:04012400d8020000fd
:020000040000fa
:04012800d8020000f9
:020000040000fa
:04012c00d8020000f5
:020000040000fa
:04013000d8020000f1
:020000040000fa
:04013400d8020000ed
:020000040000fa
:04013800d8020000e9
:020000040000fa
:04013c00d8020000e5
:020000040000fa
:04014000d8020000e1
:020000040000fa
:04014400d8020000dd
:020000040000fa
:04014800d8020000d9
:020000040000fa
:04014c00d8020000d5
:020000040000fa
:04015000d8020000d1
:020000040000fa
:04015400d8020000cd
:020000040000fa
:04015800d8020000c9
:020000040000fa
:04015c00d8020000c5
:020000040000fa
:04016000d8020000c1
:020000040000fa
:04016400d8020000bd
:020000040000fa
:04016800d8020000b9
:020000040000fa
:04016c00d8020000b5
:020000040000fa
:04017000d8020000b1
:020000040000fa
:04017400d8020000ad
:020000040000fa
:04017800d8020000a9
:020000040000fa
:04017c00d8020000a5
:020000040000fa
:04018000d8020000a1
:020000040000fa
:04018400d80200009d
:020000040000fa
:04018800d802000099
:020000040000fa
:04018c00d802000095
:020000040000fa
:04019000d802000091
:020000040000fa
:04019400d80200008d
:020000040000fa
:04019800d802000089
:020000040000fa
:04019c00d802000085
:020000040000fa
:0401a000d802000081
:020000040000fa
:0401a400d80200007d
:020000040000fa
:0401a800d802000079
:020000040000fa
:0401ac00d802000075
:020000040000fa
:04020800d802000018
:020000040000fa
:04020c00d802000014
:020000040000fa
:04021000d802000010
:020000040000fa
:04021400d80200000c
:020000040000fa
:04021800d802000008
:020000040000fa
:04021c00d802000004
:020000040000fa
:04022000d802000000
:020000040000fa
:04022400d8020000fc
:020000040000fa
:04022800d8020000f8
:020000040000fa
:04022c00d8020000f4
:020000040000fa
:04023000d8020000f0
:020000040000fa
:04023400d8020000ec
:020000040000fa
:04023800d8020000e8
:020000040000fa
:04023c00d8020000e4
:020000040000fa
:04024000d8020000e0
:020000040000fa
:04024400d8020000dc
:020000040000fa
:04024800d8020000d8
:020000040000fa
:04024c00d8020000d4
:020000040000fa
:04025000d8020000d0
:020000040000fa
:04025400d8020000cc
:020000040000fa
:04025800d8020000c8
:020000040000fa
:04025c00d8020000c4
:020000040000fa
:04026000d8020000c0
:020000040000fa
:04026400d8020000bc
:020000040000fa
:04026800d8020000b8
:020000040000fa
:04026c00d8020000b4
:020000040000fa
:04027000d8020000b0
:020000040000fa
:04027400d8020000ac
:020000040000fa
:04027800d8020000a8
:020000040000fa
:04027c00d8020000a4
:020000040000fa
:04028000d8020000a0
:020000040000fa
:04028400d80200009c
:020000040000fa
:04028800d802000098
:020000040000fa
:04028c00d802000094
:020000040000fa
:04029000d802000090
:020000040000fa
:04029400d80200008c
:020000040000fa
:04029800d802000088
:020000040000fa
:04029c00d802000084
:020000040000fa
:0402a000d802000080
:020000040000fa
:0402a400d80200007c
:020000040000fa
:0402a800d802000078
:020000040000fa
:0402ac00d802000074
:020000040000fa
:0402b000d802000070
:020000040000fa
:0402b400d80200006c
:020000040000fa
:0402b800d802000068
:020000040000fa
:0402bc00d802000064
:020000040000fa
:0402c000d802000060
:020000040000fa
:0402c400d80200005c
:020000040000fa
:0402c800d802000058
:020000040000fa
:0402cc00d802000054
:020000040000fa
:0402d000d802000050
:020000040000fa
:0402d400d80200004c
:020000040000fa
:0402d800d802000048
:020000040000fa
:0402dc00d802000044
:020000040000fa
:0402e000d802000040
:020000040000fa
:0402e400d80200003c
:020000040000fa
:0402e800d802000038
:020000040000fa
:0402ec00d802000034
:020000040000fa
:0402f000d802000030
:020000040000fa
:0402f400d80200002c
:020000040000fa
:0402f800d802000028
:020000040000fa
:0402fc00d802000024
:020000040000fa
:04030000d80200001f
:020000040000fa
:04030400d80200001b
:020000040000fa
:04030800d802000017
:020000040000fa
:04030c00d802000013
:020000040000fa
:04031000d80200000f
:020000040000fa
:04031400d80200000b
:020000040000fa
:04031800d802000007
:020000040000fa
:04031c00d802000003
:020000040000fa
:04032000d8020000ff
:020000040000fa
:04032400d8020000fb
:020000040000fa
:04032800d8020000f7
:020000040000fa
:04032c00d8020000f3
:020000040000fa
:04033000d8020000ef
:020000040000fa
:04033400d8020000eb
:020000040000fa
:04033800d8020000e7
:020000040000fa
:04033c00d8020000e3
:020000040000fa
:04034000d8020000df
:020000040000fa
:04034400d8020000db
:020000040000fa
:04034800d8020000d7
:020000040000fa
:04034c00d8020000d3
:020000040000fa
:04035000d8020000cf
:020000040000fa
:04035400d8020000cb
:020000040000fa
:04035800d8020000c7
:020000040000fa
:04035c00d8020000c3
:020000040000fa
:04036000d8020000bf
:020000040000fa
:04036400d8020000bb
:020000040000fa
:04036800d8020000b7
:020000040000fa
:04036c00d8020000b3
:020000040000fa
:04037000d8020000af
:020000040000fa
:04037400d8020000ab
:020000040000fa
:04037800d8020000a7
:020000040000fa
:04037c00d8020000a3
:020000040000fa
:04038000d80200009f
:020000040000fa
:04038400d80200009b
:020000040000fa
:04038800d802000097
:020000040000fa
:04038c00d802000093
:020000040000fa
:04039000d80200008f
:020000040000fa
:04039400d80200008b
:020000040000fa
:04039800d802000087
:020000040000fa
:04039c00d802000083
:020000040000fa
:0403a000d80200007f
:020000040000fa
:0403a400d80200007b
:020000040000fa
:0403a800d802000077
:020000040000fa
:0403ac00d802000073
:020000040000fa
:100400008f9320000eff20000e01880000000000e6
:10041000000020000000e000020032000001200087
:100420002002880014000700b70007000000e00069
:1004300003003a0000902100010020000200370074
:100440000000200001002000810f70000100320038
:1004500014000700000020000000e000020032004d
:1004600000000200000000007a1a020000000000f4
:100470000040da000000fe004440a90020102000e7
:100480000000e0000300320000002000a00188000e
:100490004440a800000006008a1f78008b1f7800e7
:1004a0000000060091018800800478000000eb0045
:1004b0001a003700e284440032a0b4009905ba0063
:1004c000e284440032a0b4009906ba00e2844400f9
:1004d00032a0b4000006eb00476fde00fd07b2005b
:1004e000636ce10003003a00ebff07000000eb0043
:1004f0000a003700606ce10004003a00005deb0088
:100500008b05e900fdff3e00040037006168e10053
:10051000010032000086eb000b00070019c7ba008b
:100520001905ba000e04e00003003a000a00e000da
:10053000e0ff3a0000000600fe07b2009e018800be
:100540008a047800f5ff3700395dba008b05e900b1
:100550000c003200295dba008b05e900080032006a
:100560000c00e00003003a00e284440032a0b40032
:10057000f5ff370019ddba008b05e900faff3a00f4
:100580008904e800e184440032a0b40000000600c1
:10059000000000000000000000000000000000005b
:1005a000000000000000000000000000000000004b
:1005b0000040da000000fe000a00fa0011002000ee
:1005c000b1bf9f00c0bf9f006a805700680407004a
:1005d0004fb897000080fa00000006000a00fa00f9
:1005e00051002000b1bf9f00c0bf9f006a8057002c
:1005f000610407005fb897000080fa000000060061
:10060000889fbe0080047800b04980000000e000b0
:1006100004003a000e0007000084eb000000e00038
:1006200008003500b84980000900e00005003200ec
:1006300009004400060007000000e00001003d0042
:100640000084eb00080078004f04be0000000600a4
:10065000800078000100e00003003a000000200064
:10066000b0498800000005000080eb000200200077
:10067000828f500002003e00b14988000000eb006c
:10068000000006000800fa001007980021079800f3
:1006900032079800000000001111800000102000b7
:1006a000008060000000e000fbff3200be00900010
:1006b000010f78000e0037000000000011118000cb
:1006c00000102000008060000000e000fbff32000e
:1006d0002e009000104078000000fb0020118800e0
:1006e0002e0090000000e800200798001e0fe9008f
:1006f0001e0078000000e000efff3a003e0090008e
:100700000080fa0000000600000005000000e00084
:100710002f003200c0017800e38f51002c0036001a
:100720000308a3002a003a00814980000100e0008c
:1007300002003200810f50000400310011009800c7
:10074000804988001600370082007800110190006f
:100750000200e00002003200800f5100faff390071
:100760001102780084824000850f50001800390083
:10077000808f520003003a00830842000100780095
:10078000070037000200e000030032008301400050
:10079000830f51000e00390012009800900098005d
:1007a000900090000100e0000900320010014000bc
:1007b000828f500006003a00e29220000009eb0010
:1007c000100178001108410091009000110098007c
:1007d00000000600889fbe00000478007149800078
:1007e0000100e00002003200010078000d00370037
:1007f000814980000093200004003700910f5400cd
:10080000250036000180e800910090000100e00022
:10081000faff3a0010003700920f54001e00360015
:100820000280e800100178000200e000faff3a00c0
:1008300011017800814980000093200004003700f6
:10084000910f5400140036000180e80091009000e0
:10085000828f5000faff3a0099498000888f540037
:100860000100310088047800090078003600070094
:100870000000e00004003a00888f540005003200b8
:100880008904d100f5ff3700091878009fff0700a1
:10089000d2ff37000000eb004f04be00000006004e
:1008a000881f7800630440000800a1008000eb006e
:1008b000800f540021003600e30f540001003e0079
:1008c0004800200008007800c2ff07008000eb000d
:1008d0000000e000190032009000780091017800db
:1008e00064815100880f5100030031001101900014
:1008f00002087800070037000881400002087800ed
:100900009101900013019800100178001109140062
:1009100088087800100178000000eb000200e00079
:1009200004003200920190000300e0000100320058
:100930000280e800704988008180e80001007800aa
:100940004f04780000000600800078000000eb00f3
:100950000100e000050034000100780028ff0700d6
:10096000e10f400001003a000000eb00000006002b
:10097000889fbe000004780001007800820478009f
:100980008801780009017800110020002400070088
:10099000890f5000010032000004eb0008007800cd
:1009a0004f04be00000006000000fa00e881570076
:1009b0004fb9970021892000804b20009a0407003e
:1009c0000080fa0000000600889fbe000004780046
:1009d000010078008204780088017800090178001d
:1009e000110020000e000700890f500001003200a6
:1009f0000004eb00080078004f04be000000060071
:100a00000000fa00e88157004fb9970021892000c3
:100a1000404e2000840407000080fa000000060019
:100a2000889fbe008a9fbe008c9fbe008e1f7800ec
:100a30000006780001047800020078008304780042
:100a40000881b900020778000200e000420032008d
:100a50000800e0004100320082057800c9009000e3
:100a600069009000808f5000040039000900780070
:100a7000620007000000e00029003500004020006f
:100a8000190060000a0032000b017800a10020006c
:100a90000c00780036000700800678000d00e000aa
:100aa00006003200610516000a8546000400370082
:100ab0000b0578008006eb00010037000b0578007d
:100ac00049009000e9009000808050008a8f50001b
:100ad00002003100010578008006eb000a01780071
:100ae0008c0078002c0007008a8555004900900092
:100af0000a004000c00498000d00e000040032002d
:100b000009007800d40207000000e00004003a0069
:100b10000b00e000020032000a064600cfff37005b
:100b200000802000190060000200320009007800f7
:100b3000c902070000c02000190060000200320056
:100b400049009000e00498008b055700110009004f
:100b50008885d800010037000000eb004f077800bf
:100b60004f06be004f05be004f04be000000060049
:100b700003003700b0cf1000050032000201e90089
:100b8000800178000200e000faff3a000000050052
:100b900003007800000006008001780002003700a2
:100ba000b15978000201e9000200e000fcff3a00c0
:100bb00000000600020037000304e00006003200d7
:100bc0000001780002007800b041780081cf510028
:100bd000f9ff3a00010037000001eb000200780045
:100be0000000060080007800010178003104e00078
:100bf000fdff3a000000510000000600889fbe0083
:100c00008a1f780000047800c800900068019000f6
:100c10000000eb00828f50003c0039001800780083
:100c20002200290002016000e20f5100070032009b
:100c3000012024000000e00001003d000120200010
:100c4000008c70000080eb003000370002002600ae
:100c500002006000820f500009003a003800900046
:100c6000808f500006003900080078007a020700e3
:100c7000800078000080eb000100e00023003a00d3
:100c80001805780000c020000000650018003a0038
:100c9000a80490006002200008004000808f5400eb
:100ca00013003a0000202000fdfe070020049800f9
:100cb0000000e00005003a0029049800490498006b
:100cc0008904e80039049800080037000a60a00091
:100cd0000a0c780040049800012020008080400029
:100ce00031049800400c9800500c9800f90107005e
:100cf000280090005004980038009000600498008c
:100d000000002600180c70000000eb004f05780072
:100d10004f04be0000000600fc874700889fbe000d
:100d20008a9fbe008c9fbe008e1f78000006780050
:100d300080c5b30080cf50000a00320077404000e9
:100d400080cf50000a0032006940400080cf500040
:100d50000b0032003090200080bf9f00ae002000ca
:100d60000a003700228f200082bf9f000600370054
:100d70003390200083bf9f008e00200003003700c7
:100d80003490200084bf9f000e0120003c02be0072
:100d90002c03be000605be000404be0040c6b3001e
:100da00080cf5000030032006540400080cf5000eb
:100db0000b003a00e00f5200e08f5a00e00f5b009a
:100dc000e08f5b0006003d006000b8006011b800d5
:100dd0000404500085845800060559008785590091
:100de000e80f57000400320040002000f00f5700c9
:100df00038003a000100370030002000e00f5400b6
:100e0000e08f5c00e00f5d00e08f5d0004003a00c1
:100e1000dc0890008d0120000100e0000600320097
:100e20008e00e900888060008fba9700e5c07800e6
:100e3000f1ef9f007d012000800078008100e90033
:100e4000050033008b05d1000a85d3008984d300c7
:100e50000884d300f9ff3700089ebe000a96be0042
:100e6000120037008d06e9008e00e90084806000e2
:100e70000fb99700e2c1780082fd2f000f014100f9
:100e800003f17e00800078008100e9000500330056
:100e90008783d1000683d3008582d3000482d300e8
:100ea000f9ff3700049ebe000696be003c02be005d
:100eb0002c03be00e00f5200e08f5a00e00f5b00f1
:100ec000e08f5b008b0034000d00e000e5ff3c008c
:100ed000880037002c60900081c6b300814f50001d
:100ee0000b00320006003c000004e0000800320065
:100ef000e6c05000814f50004e003a000400370019
:100f0000c1c6b300814f50004a003a0021003700ab
:100f10000800e00004003a005c0890008d01200009
:100f20000000e00006003200110009000e84d80025
:100f30000fb99700e2c07800f1ef9f007d0120001b
:100f4000110009000e84d8000a00370011000900c2
:100f50000e04d8008d06e9000e81b9000204540089
:100f60008fb8970061417c0081fd2f008f80400089
:100f700082f07e00000478000800e00002003200e9
:100f80000d00e000f1ff3c00cfc4de00614db90070
:100f900025003700e00f5400e08f5c0004003a00a9
:100fa0005c0890008d0120000000e0000700320086
:100fb0006171b9000800be00100207008fb99700e8
:100fc000e3417800f3ef9f007d0120006171b900db
:100fd0000800be00f90107000b0037006171b9007d
:100fe0000800be00e60107008d06e90000f1b90027
:100ff000020454000fba9700e4427c0084fd2f00e5
:101000000f02420005f27e000004be00e00f500017
:10101000e08f5800020032000d00e000efff3c00be
:101020004fcdde008a057800089ebe000a96be00fd
:1010300030003700e00f5400e08f5c00e00f5d00ef
:10104000e08f5d0004003a005c0890008d012000f4
:101050000000e000090032006172b900612bb900a4
:101060000800be000a01be008d0207000fba9700fb
:1010700064427800f4ef9f007d0120006172b900a6
:10108000612bb9000800be000a01be007d02070006
:101090000d0037006172b900612bb9000800be0075
:1010a0000a01be00820207008d06e90000f2b900c5
:1010b000040454008fba970065427c0085fd2f0020
:1010c0008f82420084f27e00009ebe000296be0027
:1010d0003c04be002c05be00e00f5400e08f5c0015
:1010e000e00f5d00e08f5d00020034000d00e000c5
:1010f000e8ff3c00e80f570010003a000c10900089
:101100000038a3000d003200f78f560006003e00a5
:1011100085fd2f008f824200e5c07e0000c3b30032
:1011200080cf5000050032008d06e90002c3b300f5
:1011300081fd2f008f80400082f07e0078811600b4
:10114000120e98006c00900083fd2f008f814100eb
:101150008d80410090fe07001c089000dc08900084
:10116000810f500006003d0000805000000e9800e6
:101170000c1090000040a100001698000f003700ee
:101180000100e0000d003d008c109000f480600034
:10119000f08f500009003a007c099000fc0090009c
:1011a000810051000c0990008280500000805000a6
:1011b0004240a90001003400000e98004f0778005b
:1011c0004f06be004f05be004f04be00cf01b10068
:1011d000000006000400fa00889fbe008a9fbe003f
:1011e0008c1f78000004780001067800f80d90004c
:1011f0007800900080855500080890008085550093
:1012000018089000808555002808900080855500ba
:10121000380890008085550048089000808555006a
:101220000002220090bf9f0000032300a0bf9f0088
:10123000081090000028a30015003a000b00e00001
:10124000130034000b0578008a047800e20f550083
:101250000100360029002000c80190000901780033
:10126000ee805700580090000300010050049800e1
:101270000000e0008c003200680890000900400087
:10128000600c9800090555004240a900eeff3c00a3
:10129000780190000200e0000c003400c8019000ca
:1012a0008c00780058009000030001005004980062
:1012b0008080eb000000e0007c003200e808900035
:1012c0007800900000804000600c9800880c90002e
:1012d0000900e0001100340009057800e28f540095
:1012e000010036002a002000c80190000a017800a1
:1012f000ec80570058009000030001005004980053
:101300000000e00068003200680890000a00400019
:10131000600c98008a845400edff37001809900093
:101320000200e0000c003400c8019000e8009000ca
:101330005800900003000100500498008080eb00ea
:101340000000e00059003200e80890001808900002
:1013500000804000600c9800a80c90000900e0009c
:101360001100340009057800e28f540001003600b6
:101370002a002000c80190000a017800ec80570084
:101380005800900003000100500498000000e000a5
:1013900045003200680890000a004000600c980088
:1013a0008a845400edff3700380990000200e00005
:1013b0000e003400e8009000180890008080400083
:1013c000c8019000580090000300010050049800ec
:1013d0008080eb000000e00034003200e80890005c
:1013e0003808900000804000600c9800c80c900005
:1013f0000900e0001100340009057800e28f540074
:10140000010036002a002000c80190000a0178007f
:10141000ec80570058009000030001005004980031
:101420000000e00020003200680890000a00400040
:10143000600c98008a845400edff3700081090007b
:101440008000eb000028a300180032000b00e00031
:10145000160034008b04780009057800e28f5400f0
:10146000010036002a002000c80190000a0178001f
:10147000ee805700580090000300010050049800cf
:101480000000e00008003200680890000a004000f8
:10149000600c98008a8454004240a900eeff3c0092
:1014a0008000eb00010037008080eb000100780035
:1014b0004f0678004f05be004f04be000080fa00c2
:1014c000000006000108780000000600c0b02000ff
:1014d0009b003700881f7800489320001804e00024
:1014e00003003a00f9ff070020c0b300004c780069
:1014f0004f04780000000600889fbe0000047800ba
:1015000008007800540007008004780000042000e0
:101510001800600002003200280090007bfc0700e9
:101520000000eb0020049800384090000004e00028
:10153000050035000000fb001ffc07000000e00074
:10154000010032008084eb00181090000000e000e1
:101550000800320021fc07000000e000010032001a
:101560008084eb001810900068fc07000000eb007e
:1015700010149800000820001800600015003200c8
:101580000001eb006000b800238e20000202d000b2
:1015900063027a00880f520005003a000000400004
:1015a00081804800008041000008eb000600370001
:1015b00061004000e08048000201e800e80f5000b0
:1015c000e08f5800f0ff3a00080078004ffc070059
:1015d0000e003700000c780000c0eb00304498008b
:1015e0006002200008004000200498004004980099
:1015f00050049800400c980060049800500c98002b
:101600007004980076004400000c980009007800ef
:101610004f04be0000000600881f78000004eb00a5
:101620006140b800e2ff2f00f3ff2f0076000700b3
:10163000028f2000620078000000e000010032000c
:10164000adff07000804e800e80f5400f4ff3a007b
:101650004f04780000000600889fbe000004780058
:101660000800e0000e003a008004eb008800d00083
:10167000208e2000610078000000e00004003200ad
:10168000f5ff07000000e00001003d008084eb0052
:101690000804e800e80f5400f4ff3a002500370082
:1016a00000002200180060008004eb0021003200de
:1016b000a80490000f003700090151003840900045
:1016c0000000fb0089007800eefb07000000e0004e
:1016d00007003c0028009000400498006004980037
:1016e000500c98001890a0008084eb001100370087
:1016f0008084440048019000828f5400eeff39003e
:1017000028009000400498009800780002c0200053
:101710000281600001003a003800900001e8a30057
:10172000020032006004980001003700500c98005d
:101730008004eb00090078004f04be0000000600a2
:10174000010020000100e0000800320001008000dc
:101750000100e000050032008100e900010088007e
:101760008100d0000200800000b178000000060077
:1017700000c0da000000060000c0da000000060029
:10178000839f68000100e00002003d00600010003f
:10179000e08018000300e00002003d00600111003d
:1017a000e0811900050007004f00e00002003b0047
:1017b00060001000e0801800000006006022b80001
:1017c000060220000000d0008180d2000482d200f6
:1017d0008582d2000000a0000202520083825a00db
:1017e000030031000202420083824a000000a1008f
:1017f0000603e900f3ff3a0000000600efff0700d0
:101800000400be0000000600020ab900001bb90077
:101810000200b80081004200810043000000060081
:10182000889fbe008a9fbe0030044200b0844a00f8
:1018300030054b0090854b006000b1000898be0059
:101840000a90be000440e10005c8e10006d0e100b6
:1018500007d8e10002003100680040001008e800ed
:101860004f05be004f04be0000000600889fbe006a
:101870008a9fbe003004be002005be00041854003c
:1018800005985c0006185d0007985d0011002000b7
:101890000440e10005c8e10006d0e10007d8e100fe
:1018a000010039008000eb00108810004f05be00d9
:1018b0004f04be00000006001200fa00889fbe0020
:1018c0008a9fbe008c9fbe00e0b79f00f1b79f00cb
:1018d00082bf9f0093bf9f000605be000404be00a8
:1018e0000000eb00d0b79f00c0b79f00b0b79f00cb
:1018f000a0b79f0090b79f000006eb005fb1970074
:10190000cfb09700820141003fb097000200e00095
:1019100004003d00370007007e805700c0ff07002d
:1019200003003700330007007e805700cfff070019
:10193000dfb697000d00e0000c0035006fb2970095
:10194000ffb297000fbb97009fbb970010002000cd
:10195000010020006011b800000272008182720054
:1019600002037300838373001b0007000c06e8006a
:1019700001042000810f5600e0ff3a000d00e00056
:1019800004003d000802be000a03be007e8057002e
:10199000a3ff07005fa897000000e00005003a00e1
:1019a0001fb29700afb297003fb39700cfb3970035
:1019b000090007006fb09700ffb097000fb99700bc
:1019c0009fb997004f06be004f05be004f04be00f2
:1019d0000080fa0000000600010007000000060079
:1019e000a4b79f00b5b79f00c6b79f00d7b79f00a9
:1019f000000006004f09de0082817100b3b79f002e
:101a00004f01de008180400082807000a1b79f00fe
:101a10008fb097004f09de00000040000200700008
:101a200090b79f007fa897004f01de0081804000a3
:101a30008280700081b79f000d0007004f3ade00e2
:101a40000000400004007000f0af9f000800070095
:101a50000402420085824a0006034b0087834b0044
:101a6000dfff07000802be000a03be0000000600f8
:101a70002fb29700bfb297004fb39700dfb3970024
:101a800000000600881f780018002000881f7800da
:101a900089ff07008f87e9004f04780000000600e7
:101aa000801feb0084ff07008f87e900000006001d
:101ab000889fbe008a9fbe00e00f5000e08f580054
:101ac000e00f5900e08f59000c003d006044b80061
:101ad0006055b8000000540081805c0002015d0088
:101ae00083815d00180020001500070008003d00fc
:101af000180007000004eb00050037000004eb00ad
:101b00000f00070002003d0012000700180020002f
:101b1000dcff07000800e000060032006022b80089
:101b20006033b8000000520081805a0002015b005f
:101b300083815b004f05be004f04be00000006001d
:101b4000e00f5200e08f5a00e00f5b00e08f5b0077
:101b5000000006006044b8006055b800040254005c
:101b600085825c0006035d0087835d00000006003f
:101b7000889fbe008a9fbe008c1f7800e00f500037
:101b8000e08f5800e00f5900e08f59000d003d0034
:101b90006044b8006055b8000000540081805c00cb
:101ba00002015d0083815d001c0020000820e1002f
:101bb00009a8e1000ab0e1000bb8e1000d003d000a
:101bc000080037000006eb00e00f5200e08f5a00db
:101bd000e00f5b00e08f5b0006003d006044b80052
:101be0006055b8000402540085825c0006035d0065
:101bf00087835d00aaff07000c00e00006003200aa
:101c00006022b8006033b8000000520081805a00a2
:101c100002015b0083815b004f0678004f05be0028
:101c20004f04be00000006006200fa00889fbe005c
:101c30008a1f78000005780081047800020478008b
:101c40008300780080f92f000f0040001dfe070080
:101c50009a979f00a9979f000000eb00b09f9f00fc
:101c60001885fb008a04fb000a05ea004f55de00d8
:101c700050022000808f54000d003200e10f55000b
:101c80000b003a000a017800880078002f90970036
:101c90009f91970003000100a0979f000000e000c3
:101ca0008e0032003f9897000000e800b09f9f0030
:101cb0000a04440050022000808f540004003200c7
:101cc0000900e000e6ff3a003f98970084003700e3
:101cd0000000eb00909f9f00809f9f00f0979f0067
:101ce000e0979f00d0979f00c0979f0007003700a4
:101cf000819220000100500000004000c1912000ae
:101d000061007800df98970001007000d09f9f006d
:101d10008804780009047800384578008a00fb00c0
:101d200080922000a3fb07000000e000f0ff3a00d3
:101d3000a1c2b300814f55000e003a00cf88970032
:101d40000180e900c08f9f0010007800c09f9f00b5
:101d50000000e00005003d000000ea00c09f9f0079
:101d60005f9897000020a000d09f9f000904e80022
:101d70000f003700c09f9f000000eb0005003700f8
:101d8000f2ff2700820f5000020032006a01b90002
:101d9000028040000904780088047800b900fb0044
:101da0000103b100e98f5000f5ff3600c09f9f008e
:101db000e0c2b300984f1000020032000080eb0038
:101dc00019003700a0c2b300d84f100007003a0036
:101dd000cf8897000180e900c08f9f001000780035
:101de000a09f9f000804e800100037000000eb00ef
:101df000a09f9f008800780005003700f3ff2700b0
:101e0000830f5000020032006a02b9000400410052
:101e100001047800880078003101fb000203b10062
:101e2000e90f5100f5ff3600a09f9f00984478000d
:101e30008900fb00409120005efb07000000e000ed
:101e4000020032000804e800010037008044eb0083
:101e5000c97f9f0080c6b30080cf540004003a00c1
:101e600098cf14000a003a00664050000600370080
:101e7000c0c6b30080cf540005003a0098cf1400cc
:101e800003003a0065404000c07f9f000804e8005e
:101e90001801fb00e3fb2f008f81410081f92f0027
:101ea0008f804000a0f92f000f00400010000700b5
:101eb0000000e00009003a00e1fb2f008f804000a5
:101ec000a0f92f000f004000c2fc07000000e00056
:101ed000020035000804e80061ff37000080eb00d5
:101ee0004f0578004f04be000080fa000000060095
:101ef000889fbe008a1f780000047800e0c6b30007
:101f0000804f5100c100320015003c006b40500072
:101f1000804f5100240032000a003c007040500005
:101f2000804f5100fa00320065404000804f510060
:101f30006800320050c2b300804f51000b013a00dc
:101f40000701370040c6b300804f51001b0032002c
:101f500065404000804f510004013a0017003700ef
:101f600030c7b300804f5100e900320007003c0049
:101f700064405000804f5100560032000040e8009d
:101f8000804f5100f9003a00d300370050c7b3002a
:101f9000804f51004f00320063404000804f51009d
:101fa000f2003a004b0037001181e9008208780006
:101fb0007800900012417800ea0037002860900015
:101fc000c4c6b300844f500007003a0011027800e5
:101fd00064005200800878001002be004fabde00a3
:101fe000860378001100370014c7b300844f5000f7
:101ff00003003200a4c6b300844f500006003a002c
:102000001102780068005200800878003002be009b
:102010002003be00050037001180e9008008780029
:1020200010027800cfa2de00612bb900049cbe0034
:102030000694be002860900081c6b300814f500016
:102040000d00320021c6b300814f500004003a0059
:102050000402fb00cfa2de00612bb90008003700ac
:1020600041c7b300814f500003003200e6c040007a
:10207000814f500004003a00cfa2de00612bb9006e
:10208000049cbe000694be003802be002803be00b9
:1020900078009000d1c2b300e00f5200e08f5a00e8
:1020a000e00f5b00e08f5b000800350088109000b7
:1020b0000118a30002003200b1c2b30003003700d0
:1020c0000108a3004c00320001c2b3008171780006
:1020d0004700370028609000c4c6b300844f50000a
:1020e00006003a001102780064005200800878006f
:1020f0001002be006033b8001100370014c7b300ef
:10210000844f500003003200a4c6b300844f500037
:1021100006003a001102780068005200800878003a
:102120003002be002003be00050037001180e90028
:1021300080087800100278008002eb006033b8005d
:10214000049cbe000694be002860900081c6b300c7
:10215000814f50000d00320021c6b300814f500066
:1021600004003a000482fb008002eb006033b800f8
:102170000800370041c7b300814f50000300320010
:10218000e6c04000814f500004003a008002eb009e
:102190006033b800049cbe000694be000810900096
:1021a0000038a300140032003802be002803be002d
:1021b000e00f5200e08f5a00e00f5b00e08f5b0001
:1021c0000d00320080c7b300804f51000300320081
:1021d00080c5b300804f510007003a00780090009e
:1021e00001c3b300817178000000e80082717800bb
:1021f0000000e800700498007800900080814100a1
:1022000063049800824078003e0037002861900007
:10221000c3c6b3001180e900834f51002200320091
:102220000a003c00e4c15100834f510025003200f8
:1022300083c1e800834f510013003200e8c1510010
:10224000834f51001e003a000a00370043c7b30015
:10225000834f51001b003200e6c14100834f510003
:1022600018003200e9c15100834f510014003a00b8
:10227000050037008008780010007800485c900066
:102280000848780041003700800878001000780086
:10229000680a9000cfa2de00612bb9000498be004e
:1022a0000690be00390037008008780010007800e2
:1022b00068099000cf91de000288be00330037002d
:1022c0001180e9008008780010007800680c900008
:1022d000080878002d0037001180e9008008780098
:1022e00010027800cfa2de00612bb900049cbe0072
:1022f0000694be007800900080814100630498003d
:1023000081c7b3000800780083fa07001f00370078
:102310001180e90080087800100578006a049800b0
:10232000d80c90000900e00004003d000a0078008d
:102330002cfa0700800478000700370009017800b4
:102340008000eb000a00780009fa07000000e000b6
:10235000010032008a045000190c98000b0037006d
:1023600078009000827178000600370078009000b5
:10237000808141000204e00001003a0052c2b30033
:10238000824978000000e800700498000000eb002b
:0c2390004f0578004f04be00000006005e
:020000040000fa
:10239c004d53000053500000325f000049320000e2
:1023ac00435f00004d4500005353000041470000bf
:1023bc00455f000046410000494c00000a0d00003a
:1023cc00004d000053530000503200005f490000e4
:1023dc00324300005f4d00004553000053410000a4
:1023ec00474500005f500000454e00004449000086
:1023fc004e4700000a0d0000004d00005353000032
:10240c00503200005f490000324300005f4d000075
:10241c004553000053410000474500005f43000056
:10242c004f4d0000504c000045540000450a000080
:10243c000d0000004d53000053500000325f0000af
:10244c0049320000435f0000535400005543000024
:10245c004b5f00005354000041520000540a00002e
:10246c000d0000004d53000053500000325f00007f
:10247c0049320000435f00004d45000053530000fb
:10248c0041470000455f00004144000044520000f9
:10249c0045530000535f00004e4f00005f410000a9
:1024ac00434b00000a0d0000004d00005353000088
:1024bc00503200005f490000324300005f440000ce
:1024cc0041540000415f00004e4f00005f4100008e
:1024dc00434b00000a0d0000004d00005353000058
:1024ec00503200005f490000324300005f4c000096
:1024fc004f530000545f000053540000415400003f
:10250c00450a00000d000000f401000050570000c7
:10251c004d200000766100006c2000006973000003
:10252c0020250000642c0000206100006e64000077
:10253c00206800006561000064200000616e0000ee
:10254c00676c000065200000697300002025000006
:10255c00640a00000d000000456e0000636f00006f
:10256c006465000072200000697300002070000098
:10257c006f730000746900006e6700003a20000061
:10258c003078000025300000327800000d0a000081
:04259c00000000003b
:020000040000fa
:1025a0000000fa00608020000180200011009800e7
:1025b00060802000018020000108780060802000f9
:1025c000a00090000110a000210098006080200071
:1025d000a00090000100a100210098006080200070
:1025e0008040eb00614098001822ef00800220003c
:1025f000901088001622ef0030002000d0108800d4
:102600008a20a9009a20a8000080fa000000060095
:102610000200fa0060802000e0409000014f780046
:102620001e4078000080fa00000006003600f80026
:10263000809fbe00829fbe00849fbe00869fbe001a
:102640000000fa008a20a9009110800000082000f4
:10265000008060000000e0000800320012e2a900e3
:102660000e28ef00a0408000200090008000eb00ca
:10267000010878001428ef000d0137007040800039
:102680008000eb00b200200003002000820f500009
:10269000838f5800fc003e00006001000b003700f3
:1026a00039003700750037009c003700f300370011
:1026b000c8003700d9003700f0003700db003700d2
:1026c000f1003700340037005000370060802000f0
:1026d00020009000620060000000e000f3003a007b
:1026e0006080200010009000a040880060802000e2
:1026f000100090001040780010e8b70060802000c3
:102700001000900010009000904088006080200031
:1027100010009000e600400060802000110098004a
:10272000608020009000900060802000808f50002a
:1027300003003a0060802000018020001100980012
:1027400060802000a00090000100a10021009800fe
:1027500060802000900090006080200010007800d1
:10276000808f500004003a0060802000a00090009c
:102770000110a000210098001402a80020002000f1
:1027800070408800ca0037001422a80020002000f2
:1027900070408800c6003700a110800000042000af
:1027a000008060000000e00008003200608020002f
:1027b000604090008040e800608020006140980008
:1027c00040002000d2000700b9003700104180000f
:1027d0008000d100f00f2000008060008010880091
:1027e0001041800061006000004078000004e000bb
:1027f00003003200b000200070408800ac003700b9
:102800003000200070408800a9003700a11080002f
:1028100000042000008060000000e000080032009a
:1028200060802000604090008040e80060802000d0
:102830006140980040002000b50007009c00370070
:102840001422a800104180004800de00e60060006d
:10285000000f20000100700010418800104180002e
:102860000000a0001041880010c0b30024e8b700a9
:1028700020002000704088008d00370024c8bf0071
:10288000e14f50000a0032009040800010007800b4
:102890001041880090408000200090003041880066
:1028a000904080002040900028e8b70001003700e9
:1028b0002468ef0011418000f00f2000808f50004d
:1028c00009003600104180004800de00e60060008c
:1028d000000f20000100700080108800a000200080
:1028e000704088007200370010418000801088001e
:1028f0001041800061006000004078000004e000aa
:10290000030032005000200070408800680037004b
:10291000300020007040880065003700a110800062
:1029200000042000008060000000e0000900320088
:1029300060802000604090008040e80060802000bf
:102940006140980014c2a9005000200070000700e8
:102950005700370028c8bf008080fb008100e900d5
:10296000cf08de00814078000040e90028e8b70089
:102970000104e0001000320090408000660040003a
:102980009040880010c8bf000040e90010e8b70080
:1029900010c8bf000004e00003003a00200020003f
:1029a0005b000700420037001422a800200020002e
:1029b000704088003e003700304180009040780031
:1029c0008180fb00811088000000e8003041880011
:1029d00037003700a1108000000420000080600054
:1029e0000000e0000900320060802000604090009c
:1029f0008040e80060802000614098004000200096
:102a00004300070014c2a900290037001462a8007f
:102a100080002000704088002500370080002000e2
:102a2000704088001462a800210037003041800007
:102a30008110800081407800014878000000e800a3
:102a40003041880028c8bf000040e90028e8b700ee
:102a500028c8bf000004e0000400320014a2a9004e
:102a600060002000704088000200370014a2a80017
:102a7000160007001482a8000d0037002000200077
:102a8000230007000a0037006080200060409000ab
:102a90008040e800608020006140980060002000d5
:102aa0001b000700000000000100370000000000cc
:102ab0000080fa004f03be004f02be004f01be006f
:102ac0004f00be003600f900004006000000fa008a
:102ad00090408000660040009040880010c8bf0011
:102ae0000040e90010e8b70010c8bf000004e00093
:102af00003003a00400020007040880002003700c8
:102b000010002000704088000080fa0000000600dd
:102b10000200fa00000f78001442a800a0408000d4
:102b2000200090000000e00003003200a040800080
:102b3000200090001e0878000e28ef000080fa00a8
:102b4000000006000800fa00000f780021479800f6
:102b50002207980033079800608020002000900032
:102b6000610060000000e0000a003a00ae01900041
:102b70002e4190009e007800c08120007700070061
:102b80003e019000c181200010c0b3001f0007006b
:102b9000030037003e0090008000eb000108780041
:102ba0000080fa00000006000800fa00000f78001c
:102bb0002147980022079800330798006080200082
:102bc00020009000610060000000e0000a003a0070
:102bd000ae0190002e4190009e00780060812000a0
:102be000460007003e0190006181200010c0b30044
:102bf00006000700030037003e0090008000eb0055
:102c0000010878000080fa00000006000600fa00c3
:102c1000004f78001107980022079800608020007c
:102c200020009000610060000000e0002e003a00eb
:102c30002e00900011002000010878006080200024
:102c4000100078009e009000110098006080200025
:102c5000100078001e487800608020001000780086
:102c6000ae009000210098006080200010007800e5
:102c7000e6004000608020000108780060802000ad
:102c80009000780060802000808f500003003a00a0
:102c90006080200001802000010878006080200012
:102ca000a00090000110a100210098006080200089
:102cb000900090006080200010007800808f50000d
:102cc00004003a0060802000a00090000100a000f5
:102cd00021009800704080000000e00005003a00ec
:102ce0008a20a800030037002e0090008000eb002f
:102cf000010878000080fa00000006000800fa00d1
:102d0000000f780011079800424798003307980099
:102d10003e00900000004000800078001e00780017
:102d2000010878001e00780010007800800078000c
:102d30000100a0001e007800010878001e00780045
:102d4000ce409000214098001e0078009e00900028
:102d5000210098000080fa00000006000800fa0038
:102d6000000f780011079800424798003307980039
:102d70003e00900000004000800078001e007800b7
:102d8000010878001e007800ce4090002140980095
:102d90001e0078009e009000210098000080fa003c
:102da000000006000000fa00608020002000900073
:102db0000000d100614060000080fb0000f0a7002f
:102dc0000000ea000000ea004f00de00004078004a
:102dd0000080fa00000006000000fa006080200079
:102de00020009000614060000080fb0000f0a70020
:102df0000000ea000000ea004f00de00004078001a
:102e00000080fa00000006000000fa0050002800d0
:102e1000000a88004221ef004421ef00003020002a
:102e2000300a88004821ef004a21ef004c21ef00d2
:102e30005021ef005221ef00803e2000a00a8800c0
:102e40005621ef005821ef00401f2000e00a8800c3
:102e50006021ef006221ef00000a8000004078004e
:102e60006f4060000080fb00304388000080fa0063
:102e7000000006000000fa002004800062006000ec
:102e80000000e000010032008420a9000080fa0068
:102e9000000006000000fa00210480000008200065
:102ea000008060000000e0000100320084e0a90022
:102eb0000080fa00000006000000fa0041e1a800ce
:102ec0000080fa00000006000000fa0041e1a900bd
:102ed0000080fa00000006000200fa00000f7800ef
:102ee0009e007800c10a88000080fa0000000600f9
:102ef0000400fa00000f7800110798009e00780087
:102f0000c10a88009e009000e10a88000080fa0053
:102f1000000006000400fa00000f78001107980076
:102f20009e007800c10a88009e009000e10a880097
:102f30000080fa00000006000400fa00000f78008c
:102f4000110798009e007800c10a88009e0090003a
:102f5000e10a88000080fa00000006000200fa0082
:102f6000000f78009e007800c10a88000080fa00f7
:102f7000000006000000fa00200480000000d100dc
:102f8000614060000080fb0000f0a7000000ea0044
:102f90000000ea004f00de00004078000080fa00e8
:102fa000000006000000fa00600a80004700de0012
:102fb000614060000080fb0000f0a7000000ea0014
:102fc0000000ea004f00de00004078000080fa00b8
:102fd000000006000000fa004cc1a8000080fa00c2
:102fe000000006000000fa004ca1a9000080fa00d1
:102ff000000006000000fa00600a80004300de00c6
:10300000614060000080fb0000f0a7000000ea00c3
:103010000000ea004f00de00004078000080fa0067
:10302000000006000000fa004c61a9000080fa00d0
:10303000000006000000fa00000420004010880094
:1030400020022000101088000422ef000622ef006a
:103050000c22ef0010002000501088000080fa00c1
:10306000000006000200fa00004f78001e80fb00fe
:103070000010880000000000401080006100600027
:103080000000e000fcff32000010800000407800eb
:103090000080fa00000006000800fa00881f78008f
:1030a0001007980041479800320798000000eb0095
:1030b000000f78001e0090000000e0001d003200ac
:1030c0003e0090000000e0001400320008003700cd
:1030d0003e0090001e0440001e0090001e004000b4
:1030e00010407800dfff0700004c78001e0fe8005a
:1030f0004e4090000080fb009e0f5000f4ff3e0009
:103100001a0037001e0090001e004000104078009a
:10311000d4ff07001e0fe800010037000000000088
:103120004e4090000080fb009e0f5000f5ff3e00d7
:103130000e0037003e0090000000e0000b0032005f
:10314000060037003e0090001e0440000040eb00e7
:10315000c4ff0700004c78001e0fe8004e409000ae
:103160000080fb009e0f5000f6ff3e001e0078001e
:10317000004078004f0478000080fa00000006004c
:103180000000fa00401080006100600000f0a7001d
:103190000000ea000000e9004f00de000040780077
:1031a0000080fa00000006000000fa001110800004
:1031b000000820000080600000f0a7000000ea0086
:1031c0000000e9004f00de00004078000080fa00b7
:1031d000000006000000fa0011108000000420002a
:1031e0000080600000f0a7000000ea000000e90095
:1031f0004f00de00004078000080fa00000006006a
:020000040000fa
:10320000640800000200000002000000ffff000050
:103210002a080000200000000000000066080000ee
:103220000200000000000000000800002a0000006a
:10323000000000004a0800001a0000000000000022
:103240006808000002000000020000000100000009
:10325000320900000200000002000000040000002b
:103260002e09000004000000000000006a080000b1
:10327000880000000200000001000000009008002b
:1032800091089000089008009008900008800800bd
:10329000000000000000000000000000000000002e
:1032a0000000000000000000000000000002080014
:1032b0000101b80008b90800b808b80008b808004b
:1032c000b808a8000800000000000000000000008e
:1032d00000000000000000000000000000000000ee
:1032e0000000020008020200e008e10008e0080017
:1032f000e008e00008e00800d0080000000000003e
:1033000000000000000000000000000000000000bd
:1033100000000000000000006a08920008ba0800df
:10332000000000000000000000000000000000009d
:10333000f2080000220000000200000030313200dc
:1033400033343500363738003941420043444500b4
:10335000460030003132330034353600373839001a
:1033600061626300646566000000000034090000cb
:10337000020000000000000036090000020000000a
:1033800000000000140900001a0000000200000004
:10339000686a6c00747a4c000000010000020000b2
:1033a0000400080000100000000020002b2d230066
:0833b0003000000000000000e5
:020000040000fa
:1033b8000000fa000080fa00000006000800fa0089
:1033c8001000200034f50700000f78001e00780078
:1033d80001c4b3000148780010c0b300204798002a
:1033e80020062000200798002000200030079800c1
:1033f80066004700800178002e019000ae409000e2
:103408001e007800cdfd07003e009000e30f50003d
:103418001d003200e30f500005003e00e10f500090
:103428000f003200e10f500012003e000700370085
:10343800e50f50001e003200e50f5000170039005c
:10344800e60f50001f00320023003700e01c29005f
:10345800801f780068f507008f87e9001e00370095
:10346800701e2900801f780063f507008f87e90028
:103478001900370030202900801f78005ef507000a
:103488008f87e9001400370000222900801f780088
:1034980059f507008f87e9000f00370080232900be
:1034a800801f780054f507008f87e9000a0037006d
:1034b800b0252900801f78004ff507008f87e900a5
:1034c8000500370030272900801f78004af50700db
:1034d8008f87e900000000001e00780089f40700cb
:1034e8000000eb000080fa00000006000000fa006f
:1034f800db000700f1000700d462a900d462a9002c
:1035080001000700fcff37000000fa004a28ef001e
:103518000400370000000000504280000000e8006e
:103528005042880051428000703e2000808f500039
:10353800f8ff360070428000800078000000eb0041
:1035480072fe070068c8bf000004e00004003200f3
:10355800704280000000e8007042880003003700d5
:10356800704280000000e9007042880071428000cb
:1035780050948400808f50000400390068c8bf0050
:103588000004e000010032006868ef00704280002b
:103598000000e00006003a0068c8bf000004a2006e
:1035a8000004e0000200320010c0b30068e8b70071
:1035b800201680004900de00614060000004a2007f
:1035c800614060000080fb00610060004900dd0090
:1035d800211680000190a1000100700020168800cb
:1035e8001600070071428000801f7800811f780054
:1035f800c0282900801f7800e9f40700e6875700f3
:103608002b0007004cc8bf000040e8004ce8b7009a
:103618000080fa00000006000000fa00cd82a90030
:1036280080c8b3008dfe070030c2b3008bfe0700d0
:10363800cd82a8000080fa00000006000400fa000d
:10364800cd82a90000c6b30084fe07000040eb004d
:1036580082fe07000040eb0080fe07000040eb0000
:103668007efe0700204798000040eb007bfe070025
:1036780030479800cd82a8002e4090000080fb00c3
:10368800c800dd003e4090000080fb00008f700005
:103698001e0078000000e00002003d00f0f9200064
:1036a8001e0f40001e0078000080fa00000006008f
:1036b8000000fa000040eb0068fe07000080fb00f5
:1036c800801f7800202b2900801f7800b4f40700a1
:1036d800e48757000080fa00000006000000fa00a6
:1036e80080002000001188002222ef000001200045
:1036f8004011880021e2a8002342a8000080fa00b7
:10370800000006000000fa00000000001011800010
:10371800610060000000e000fcff32001011800032
:10372800620060000000e000010032002222a900cf
:1037380030118000004078000080fa000000060088
:103748000200fa00004f780000000000111180000c
:1037580000202000008060000000e000fbff3a002d
:103768001e80fb00201188000080fa00000006007f
:103778000000fa00101180000080fa000000060026
:10378800000f78009e00780021438800ffff370073
:103798000000fa00a0822000800778002084200022
:1037a800000188000080fa00000006003600f800da
:1037b8008020a9000000eb00f1ff07003600f800a8
:1037c800f3ff07008040a90010002000ecff07006d
:1037d8003600f8008060a90020002000e8ff0700fc
:1037e8003600f8008080a90030002000e4ff0700c0
:1037f8000000fa00c422ef00cc22ef00000c2000e9
:10380800a016880070fb200000168800f0672400ce
:103818004016880070372000801688005620ef0078
:103828005820ef005a20ef006e20ef007020ef00c4
:103838007220ef00c622ef00ce22ef00d622ef0062
:10384800b001200000278800003f240010278800ce
:1038580070002000202788000080fa000000060081
:103868000000fa00e2ff0700070007002100070038
:1038780049fb070099ff0700ecfd070060fd070002
:103888000080fa00000006000000fa000001eb00ca
:10389800600420007105200023742000804978000e
:1038a80081497800824978004427ef004827ef00d3
:1038b8004e27ef000080fa00000006000000fa0022
:1038c800c8c2a900d062a900c122a900d042a9009b
:1038d800d022a900c982a900c8a2a900cd82a80047
:1038e800cca2a8004cff0700b1fe07000080fa0038
:1038f800000006000000fa000080fa000000060040
:020000040000fa
:0200000401f009
:04000000ffff0000fe
:020000040000fa
:0200000401f009
:04000800ffff0000f6
:020000040000fa
:0200000401f009
:04000c00faff0000f7
:020000040000fa
:0200000401f009
:040010003aff0000b3
:020000040000fa
:0200000401f009
:040014005fff00008a
:020000040000fa
:0200000401f009
:04001800bfff000026
:020000040000fa
:0200000401f009
:04001c00ffff0000e2
:00000001FF
