:020000040000fa
:080000000002040000000000f2
:020000040000fa
:0400080042050000ad
:020000040000fa
:04000c00d00200001e
:020000040000fa
:04001000e202000008
:020000040000fa
:04001400d80200000e
:020000040000fa
:04001800ea020000f8
:020000040000fa
:04001c004205000099
:020000040000fa
:040020004205000095
:020000040000fa
:040024004205000091
:020000040000fa
:04002800420500008d
:020000040000fa
:04002c004205000089
:020000040000fa
:040030004205000085
:020000040000fa
:040034004205000081
:020000040000fa
:04003800420500007d
:020000040000fa
:04003c004205000079
:020000040000fa
:040040004205000075
:020000040000fa
:040044004205000071
:020000040000fa
:04004800420500006d
:020000040000fa
:04004c004205000069
:020000040000fa
:040050004205000065
:020000040000fa
:040054004205000061
:020000040000fa
:04005800420500005d
:020000040000fa
:04005c004205000059
:020000040000fa
:040060004205000055
:020000040000fa
:040064004205000051
:020000040000fa
:04006800420500004d
:020000040000fa
:04006c004205000049
:020000040000fa
:040070004205000045
:020000040000fa
:040074004205000041
:020000040000fa
:04007800420500003d
:020000040000fa
:04007c004205000039
:020000040000fa
:040080004205000035
:020000040000fa
:040084004205000031
:020000040000fa
:04008800420500002d
:020000040000fa
:04008c004205000029
:020000040000fa
:040090004205000025
:020000040000fa
:040094004205000021
:020000040000fa
:04009800420500001d
:020000040000fa
:04009c004205000019
:020000040000fa
:0400a0004205000015
:020000040000fa
:0400a4004205000011
:020000040000fa
:0400a800420500000d
:020000040000fa
:0400ac004205000009
:020000040000fa
:0400b0004205000005
:020000040000fa
:0400b4004205000001
:020000040000fa
:0400b80042050000fd
:020000040000fa
:0400bc0042050000f9
:020000040000fa
:0400c00042050000f5
:020000040000fa
:0400c40042050000f1
:020000040000fa
:0400c80042050000ed
:020000040000fa
:0400cc0042050000e9
:020000040000fa
:0400d00042050000e5
:020000040000fa
:0400d40042050000e1
:020000040000fa
:0400d80042050000dd
:020000040000fa
:0400dc0042050000d9
:020000040000fa
:0400e00042050000d5
:020000040000fa
:0400e40042050000d1
:020000040000fa
:0400e80042050000cd
:020000040000fa
:0400ec00f20200001c
:020000040000fa
:0400f00042050000c5
:020000040000fa
:0400f40042050000c1
:020000040000fa
:0400f80042050000bd
:020000040000fa
:0400fc0042050000b9
:020000040000fa
:0401000042050000b4
:020000040000fa
:0401040042050000b0
:020000040000fa
:0401080042050000ac
:020000040000fa
:04010c0042050000a8
:020000040000fa
:0401100042050000a4
:020000040000fa
:0401140042050000a0
:020000040000fa
:04011800420500009c
:020000040000fa
:04011c004205000098
:020000040000fa
:040120004205000094
:020000040000fa
:040124004205000090
:020000040000fa
:04012800420500008c
:020000040000fa
:04012c004205000088
:020000040000fa
:040130004205000084
:020000040000fa
:040134004205000080
:020000040000fa
:04013800420500007c
:020000040000fa
:04013c004205000078
:020000040000fa
:040140004205000074
:020000040000fa
:040144004205000070
:020000040000fa
:04014800420500006c
:020000040000fa
:04014c004205000068
:020000040000fa
:040150004205000064
:020000040000fa
:040154004205000060
:020000040000fa
:04015800420500005c
:020000040000fa
:04015c004205000058
:020000040000fa
:040160004205000054
:020000040000fa
:040164004205000050
:020000040000fa
:04016800420500004c
:020000040000fa
:04016c004205000048
:020000040000fa
:040170004205000044
:020000040000fa
:040174004205000040
:020000040000fa
:04017800420500003c
:020000040000fa
:04017c004205000038
:020000040000fa
:040180004205000034
:020000040000fa
:040184004205000030
:020000040000fa
:04018800420500002c
:020000040000fa
:04018c004205000028
:020000040000fa
:040190004205000024
:020000040000fa
:040194004205000020
:020000040000fa
:04019800420500001c
:020000040000fa
:04019c004205000018
:020000040000fa
:0401a0004205000014
:020000040000fa
:0401a4004205000010
:020000040000fa
:0401a800420500000c
:020000040000fa
:0401ac004205000008
:020000040000fa
:0402080042050000ab
:020000040000fa
:04020c0042050000a7
:020000040000fa
:0402100042050000a3
:020000040000fa
:04021400420500009f
:020000040000fa
:04021800420500009b
:020000040000fa
:04021c004205000097
:020000040000fa
:040220004205000093
:020000040000fa
:04022400420500008f
:020000040000fa
:04022800420500008b
:020000040000fa
:04022c004205000087
:020000040000fa
:040230004205000083
:020000040000fa
:04023400420500007f
:020000040000fa
:04023800420500007b
:020000040000fa
:04023c004205000077
:020000040000fa
:040240004205000073
:020000040000fa
:04024400420500006f
:020000040000fa
:04024800420500006b
:020000040000fa
:04024c004205000067
:020000040000fa
:040250004205000063
:020000040000fa
:04025400420500005f
:020000040000fa
:04025800420500005b
:020000040000fa
:04025c004205000057
:020000040000fa
:040260004205000053
:020000040000fa
:04026400420500004f
:020000040000fa
:04026800420500004b
:020000040000fa
:04026c004205000047
:020000040000fa
:040270004205000043
:020000040000fa
:04027400420500003f
:020000040000fa
:04027800420500003b
:020000040000fa
:04027c004205000037
:020000040000fa
:040280004205000033
:020000040000fa
:04028400420500002f
:020000040000fa
:04028800420500002b
:020000040000fa
:04028c004205000027
:020000040000fa
:040290004205000023
:020000040000fa
:04029400420500001f
:020000040000fa
:04029800420500001b
:020000040000fa
:04029c004205000017
:020000040000fa
:0402a0004205000013
:020000040000fa
:0402a400420500000f
:020000040000fa
:0402a800420500000b
:020000040000fa
:0402ac004205000007
:020000040000fa
:0402b0004205000003
:020000040000fa
:0402b40042050000ff
:020000040000fa
:0402b80042050000fb
:020000040000fa
:0402bc0042050000f7
:020000040000fa
:0402c00042050000f3
:020000040000fa
:0402c40042050000ef
:020000040000fa
:0402c80042050000eb
:020000040000fa
:0402cc0042050000e7
:020000040000fa
:0402d00042050000e3
:020000040000fa
:0402d40042050000df
:020000040000fa
:0402d80042050000db
:020000040000fa
:0402dc0042050000d7
:020000040000fa
:0402e00042050000d3
:020000040000fa
:0402e40042050000cf
:020000040000fa
:0402e80042050000cb
:020000040000fa
:0402ec0042050000c7
:020000040000fa
:0402f00042050000c3
:020000040000fa
:0402f40042050000bf
:020000040000fa
:0402f80042050000bb
:020000040000fa
:0402fc0042050000b7
:020000040000fa
:0403000042050000b2
:020000040000fa
:0403040042050000ae
:020000040000fa
:0403080042050000aa
:020000040000fa
:04030c0042050000a6
:020000040000fa
:0403100042050000a2
:020000040000fa
:04031400420500009e
:020000040000fa
:04031800420500009a
:020000040000fa
:04031c004205000096
:020000040000fa
:040320004205000092
:020000040000fa
:04032400420500008e
:020000040000fa
:04032800420500008a
:020000040000fa
:04032c004205000086
:020000040000fa
:040330004205000082
:020000040000fa
:04033400420500007e
:020000040000fa
:04033800420500007a
:020000040000fa
:04033c004205000076
:020000040000fa
:040340004205000072
:020000040000fa
:04034400420500006e
:020000040000fa
:04034800420500006a
:020000040000fa
:04034c004205000066
:020000040000fa
:040350004205000062
:020000040000fa
:04035400420500005e
:020000040000fa
:04035800420500005a
:020000040000fa
:04035c004205000056
:020000040000fa
:040360004205000052
:020000040000fa
:04036400420500004e
:020000040000fa
:04036800420500004a
:020000040000fa
:04036c004205000046
:020000040000fa
:040370004205000042
:020000040000fa
:04037400420500003e
:020000040000fa
:04037800420500003a
:020000040000fa
:04037c004205000036
:020000040000fa
:040380004205000032
:020000040000fa
:04038400420500002e
:020000040000fa
:04038800420500002a
:020000040000fa
:04038c004205000026
:020000040000fa
:040390004205000022
:020000040000fa
:04039400420500001e
:020000040000fa
:04039800420500001a
:020000040000fa
:04039c004205000016
:020000040000fa
:0403a0004205000012
:020000040000fa
:0403a400420500000e
:020000040000fa
:0403a800420500000a
:020000040000fa
:0403ac004205000006
:020000040000fa
:10040000af9220000eff20000e01880000000000c7
:10041000000020000000e000020032000001200087
:100420002002880014000700ec0107000000e00033
:1004300003003a0080ed2000010020000200370098
:100440000000200001002000810f70000100320038
:1004500014000700000020000000e000020032004d
:10046000000002000000000034160200000000003e
:100470000040da000000fe004440a900a001200076
:100480000000e0000300320000002000a00188000e
:100490004440a800000006008a1f78008b1f7800e7
:1004a0000000060091018800800478000000eb0045
:1004b0001a003700e284440032a0b4009905ba0063
:1004c000e284440032a0b4009906ba00e2844400f9
:1004d00032a0b4000006eb00476fde00fd07b2005b
:1004e000636ce10003003a00ebff07000000eb0043
:1004f0000a003700606ce10004003a00005deb0088
:100500008b05e900fdff3e00040037006168e10053
:10051000010032000086eb000b00070019c7ba008b
:100520001905ba000e04e00003003a000a00e000da
:10053000e0ff3a0000000600fe07b2009e018800be
:100540008a047800f5ff3700395dba008b05e900b1
:100550000c003200295dba008b05e900080032006a
:100560000c00e00003003a00e284440032a0b40032
:10057000f5ff370019ddba008b05e900faff3a00f4
:100580008904e800e184440032a0b40000000600c1
:10059000000000000000000000000000000000005b
:1005a0003600f8008020a9000000eb00110c0700c5
:1005b0003600f800a20b07008040a90010002000c0
:1005c0000c0c07003600f8008060a9002000200015
:1005d000080c07003600f8008080a90030002000d9
:1005e000040c07003600f800809fbe00829fbe000a
:1005f000849fbe00869fbe000000fa008a20a900ea
:100600009110800000082000008060000000e000e1
:100610000800320012e2a9005228ef00c042800018
:10062000200090008000eb00010878005828ef00bf
:100630000d013700904280008000eb00b2002000e6
:1006400003002000820f5000838f5800fc003e0002
:10065000006001000b0037003900370075003700db
:100660009c003700f3003700c8003700d90037007e
:10067000f0003700db003700f100370034003700ae
:1006800050003700008220002000900062006000cf
:100690000000e000f3003a0000822000100090000b
:1006a000c0428800008220001000900010407800b6
:1006b00054e8b70000822000100090001000900065
:1006c000b04288000082200010009000e600400048
:1006d000008220001100980000822000900090000d
:1006e000e0822000808f500003003a00008220004a
:1006f000818220001100980000822000a00090005c
:100700000100a100210098000082200090009000cc
:100710000082200010007800808f500004003a0012
:1007200000822000a00090000110a000210098008d
:100730001402a8002000200090428800ca00370060
:100740001422a8002000200090428800c600370034
:10075000a110800000042000008060000000e00084
:100760000800320000822000604090008040e800d5
:100770000082200061409800400020001f0a07000e
:10078000b9003700d04280008000d100f00f200077
:100790000080600080108800d0428000610060000e
:1007a000004078000004e00003003200b0002000a8
:1007b00090428800ac003700300020009042880052
:1007c000a9003700a1108000000420000080600014
:1007d0000000e0000800320000822000604090002d
:1007e0008040e80000822000614098004000200026
:1007f000020a07009c0037001422a800d0428000a3
:100800004800de00e6006000000f200001007000dc
:10081000d0428800d04280000000a000d042880072
:1008200010c0b3005ce8b7002000200090428800b0
:100830008d0037005cc8bf00e14f50000a00320055
:10084000b042800010007800d0428800b0428000a2
:1008500020009000f0428800b042800020409000cc
:1008600060e8b700010037005c68ef00d14280000b
:10087000f00f2000808f500009003600d042800029
:100880004800de00e6006000000f2000010070005c
:1008900080108800a000200090428800720037007d
:1008a000d042800080108800d0428000610060004b
:1008b000004078000004e0000300320050002000f7
:1008c0009042880068003700300020009042880085
:1008d00065003700a1108000000420000080600047
:1008e0000000e0000900320000822000604090001b
:1008f0008040e800008220006140980014c2a900f6
:1009000050002000bd0907005700370060c8bf0035
:100910008080fb008100e900cf08de008140780084
:100920000040e90060e8b7000104e0001000320078
:10093000b042800066004000b042880054c8bf004a
:100940000040e90054e8b70054c8bf000004e000cc
:1009500003003a0020002000a809070042003700e9
:100960001422a80020002000904288003e0037009a
:10097000f0428000904078008180fb008110880068
:100980000000e800f042880037003700a110800026
:1009900000042000008060000000e0000900320038
:1009a00000822000604090008040e800008220002b
:1009b00061409800400020009009070014c2a9007f
:1009c000290037001462a8008000200090428800af
:1009d0002500370080002000904288001462a800a3
:1009e00021003700f04280008110800081407800b3
:1009f000014878000000e800f042880060c8bf00ad
:100a00000040e90060e8b70060c8bf000004e000f3
:100a10000400320014a2a900600020009042880067
:100a20000200370014a2a8002c0907001482a800b5
:100a30000d00370020002000700907000a00370071
:100a400000822000604090008040e800008220008a
:100a50006140980060002000680907000000000065
:100a600001003700000000000080fa004f03be00c4
:100a70004f02be004f01be004f00be003600f9001d
:100a8000004006000040da000000fe000a00fa0004
:100a900011002000b1bf9f00c0bf9f006a805700b7
:100aa000b20407004fb897000080fa00000006006b
:100ab0000a00fa0051002000b1bf9f00c0bf9f0094
:100ac0006a805700ab0407005fb897000080fa0007
:100ad00000000600889fbe00800478004049800026
:100ae0000000e00004003a000e0007000084eb0064
:100af0000000e00008003500484980000900e000df
:100b00000500320009004400060007000000e00074
:100b100001003d000084eb00080078004f04be0097
:100b200000000600800078000100e00003003a00a9
:100b30000000200040498800000005000080eb0014
:100b400002002000828f500002003e0041498800d0
:100b50000000eb00000006000800fa0010079800f3
:100b60002107980032079800000000001111800052
:100b700000102000008060000000e000fbff320059
:100b8000be009000010f78000e003700000000004a
:100b90001111800000102000008060000000e000c3
:100ba000fbff32002e009000104078000000fb0098
:100bb000201188002e0090000000e8002007980017
:100bc0001e0fe9001e0078000000e000efff3a0071
:100bd0003e0090000080fa000000060000000500c2
:100be00003f0a200889fbe008a9fbe008c1f780081
:100bf000ba000700c10033006450e1004f0032002a
:100c00006420e1005200320003826c0007003b00c8
:100c10000905d0000306d000820f54000c065d00c9
:100c200002003900020032008901780003067800d2
:100c30008582550004003d000003fd008103fd0096
:100c40008502ea008b854200840f720002003b009f
:100c500060001000e08018006011b8000005eb0093
:100c60007a28e1000a00390006007800c75ddd003f
:100c7000f707b200878075002d0037008281710070
:100c80000a017800610560008180d1000080d300f6
:100c90008502e900f9ff3b00060440008784480014
:100ca00002003b0060041400e0841c000988a300db
:100cb000070032008a817100828171006101640045
:100cc0008904d1000884d3008b05e80017003700a1
:100cd0000978a30013003a000b00e0001300340071
:100ce0008b05e9000804440089844c000a44740020
:100cf0000978a3000d003a000b00e0000700340063
:100d00008b05e9000804440089844c0001003a0086
:100d10000b0020000978a300f7ff32000001eb0070
:100d200002003700828171000a017800300007005c
:100d30000cf0a70001f0a000790037006420e1006a
:100d400002003a00838f6c00790033000801be0076
:100d50000200be00720037000001be004a0007001a
:100d60000470a70003f0a1006509b100160032006d
:100d70000d0035006828e10006003500f0ff2f0067
:100d8000f1ff27000300e00013003b0001002800f2
:100d90000000050000004000818048008502e90055
:100da000fcff3a0008003700f88f420002003c00c8
:100db0008000eb00000005008100d1000080d3001e
:100dc0008502e800fcff3a000300e00002003b005f
:100dd00060001000e0801800000006004f89de006f
:100de000820178008b0037006011b800990037004d
:100df00081002000618055000b003d000b002000a9
:100e000061fe2f000100e1001d00340082817100ad
:100e1000610164008904d1000884d3000000e80067
:100e2000faff3a00710020006100640003007000c6
:100e3000020060000900320061044400e0844c00bc
:100e40000988a500050032008b05e8006808e1006c
:100e500002003a008904d1000884d300f20f200078
:100e60000258e10005003d00c75ddd00f907b20052
:100e70008980750008007800000006000bf8270044
:100e80008b00780000000500c70ade00f107b20001
:100e9000f50fb20008003200e1cf4200020032003c
:100ea0000170a00024000500810f700001003200d5
:100eb0000408050044000500810f700002003a009c
:100ec000140005008502e9000000400081c04800d0
:100ed000fcff3b000170a000240005000004be00e0
:100ee000e9ff07000003be000405be000200be00cb
:100ef000e5ff0700844f7500000006000200be00f9
:100f00006450e100050036006420e1000200360074
:100f10000968a30001003a000800be000160a000bb
:100f20004f0678004f05be004f04be0000000600cb
:100f3000f0ff2f00f1ff2700f9ff3700889fbe0068
:100f40008a9fbe008c1f7800e4ff0700ebff330090
:100f500003866c006450e100240032006420e1004c
:100f6000270032006150e100220032006120e100e0
:100f7000210032008b854200eb07b1000134b8003c
:100f8000003ab8000804420089844a00013ab800d7
:100f90000030b8008880400009014a000400330096
:100fa0000000400081804800020149008b05e900f3
:100fb000c909dd0083017000010032001300200028
:100fc000c814de004814dd004709de001200b2003c
:100fd000c808de000884700085ff070001f0a1004a
:100fe0000cf0a70001f0a000cdff37006120e10068
:100ff000cfff32000801be000200be00f7ff37003d
:101000006150e100fcff3a00c9ff37000001eb002e
:101010003f003700881f7800030478000300e000d9
:1010200007003d0060001000e0801800600119001a
:10103000e081190002003b0001f02d0003003700a1
:101040000400070008f0a70001f0a0004f0478009a
:1010500000000600889fbe008a9fbe0000827000cc
:101060000402710004827100260032000004be00f8
:101070000200be006011b8006b092000950220003c
:101080000182cf000a0039000541b1000082cf0083
:10109000070039000541b1000982cf000400390082
:1010a0000541b1000882cf00010039000541b100bf
:1010b00005425200120032000a003b00828171009a
:1010c000610164008100d1000080d3008984d300d5
:1010d0000884d3008b05e8000442e800f7ff3a00db
:1010e000070037000804440089844c0000004800d1
:1010f000818048008b05e9000442e900f9ff3a00cd
:101100003bff07004f05be004f04be000000060075
:10111000889fbe008a9fbe008c9fbe00820578001b
:101120000004be0058ff07000800be006420e10074
:101130000700390002003a00f1ff2700f0ff2f00fe
:101140000160a00012022000a24488005500370070
:101150006120e10003003a000b00a70001f8230022
:101160005000370001f0a100020021009364240028
:10117000500007000800be0004003500b2fd20004a
:10118000930c24004d0007000004be000005eb0096
:101190000b00a6004f0dde0001f0a1000004be0010
:1011a00032982f0023ea230064ff07000001eb00c0
:1011b00003f023000b00a70003f8230089fe0700bb
:1011c000e5fe07000000a7000a00a20003ff0700d9
:1011d0000b00e000030032000200200003f02300b7
:1011e0007ffe070001f0a2000006be000200200002
:1011f0009304240051ff07000801be0079fe070098
:10120000809fbe000c00be0022a22a00d3a72300ac
:101210004aff07004f01be0072fe07000004be0037
:1012200001f0a10002002000039823002100070024
:101230000800be00190035000001be003fff070096
:101240000006be00b2c52900e36223003bff070091
:1012500022222b00f3942b0062fe07000c01be003b
:1012600036ff0700e273280083c023005dfe0700fd
:101270000c01be0031ff070042aa2a00a3e22b00a6
:1012800058fe07000c01be002cff07000801be003d
:101290002aff07000801be0052fe07000a00a7004f
:1012a00001f0a2004f06be004f05be004f04be0075
:1012b0000000060014002000510037000400200048
:1012c00000003700889fbe008a9fbe008c1f7800f8
:1012d0004f26dd0001ff070008ff33006120e10019
:1012e000430032006250e10041003e003e00390000
:1012f0006420e1003c003200058255000f003b00f5
:101300000402e80038003a00800f5300818f5b0030
:10131000350034000800be0003f0a10001f0a60073
:1013200003f0a0000cf0a7002efe0700fcfe370023
:101330000603430087834b000c464600000553001c
:1013400081855b00020033000a03be000c00a00090
:101350000402e900f6ff3b00850578000602430021
:1013600087824b0004003a006000b80009f0a70033
:1013700001f0a000eafe37000002520081825a000c
:101380000704e000040033000603430087834b009a
:101390008b05e900faff3700090578000604be0056
:1013a0000203be006011b80091fe0700e00f52007a
:1013b000e08f5a000700350002003c000c08a30033
:1013c000040032000601be0003f0a0000cf0a700ec
:1013d00004fe07000a85680001f0a1000af0a700da
:1013e00001f0a000cefe37000800be00ccfe3700a2
:1013f000100220000cf0a600a0448800ccfe3700ac
:10140000889fbe008a9fbe00841f7800b3fe07003d
:101410004f00780011003300f0ff2f00838f6c0025
:1014200006003b00040565000a00a700080037001d
:1014300009f0a6001000200008003700820f5400b9
:10144000838f5c00030039001000200001003e0083
:101450000000200009f0a7000000ea004f05be00d0
:101460004f04be000000e00000000600e18b2000f9
:101470002f000700800078000080eb000100e000f2
:1014800004003500e18b2000a000200002000700ce
:101490004f80de0000000600889fbe008a1f780093
:1014a0000004be00c900900069009000808f5000c9
:1014b0000500390009007800910007008080eb00ea
:1014c0000000e00016003500084578004900900053
:1014d00008587800c00498001900780000b8a300ec
:1014e00004003a0000a8a30007003200ea4f5400ad
:1014f00005003a0009007800210107008080eb0018
:101500000000e00006003a0000c020001900600062
:101510000200320049009000e00498008a80fb003d
:10152000010078004f0578004f04be00000006005f
:10153000889fbe008a9fbe008c1f780080047800c0
:10154000010478002f003700c80090006800900068
:10155000808f500004003900080078006800070000
:101560000000e0003a003500004020001800600054
:101570000a003200a1002000090078005000070096
:10158000000678000c00e0000400320061851400c1
:101590000a054600cfd5de000400370009007800b8
:1015a0003b0007000005be000006eb00480090006d
:1015b0006801900000015100cf91de008a0f5100b8
:1015c0008b8f5900020031000205be000006eb00bf
:1015d0000a01be0089007800220007004800900040
:1015e0000a004000400498000c00e00004003200b3
:1015f00008007800e20007000000e00014003a0054
:101600008a8444001904e000cfff3a0000802000e3
:10161000180060000600320008007800d8000700bb
:10162000800078000080eb000100e00009003a0033
:1016300001c02000988060000000eb00050032002f
:1016400048009000600498000000eb0001003700a3
:101650000080eb004f0678004f05be004f04be002f
:10166000000006000202be008001eb00040037000b
:1016700061f0790061025200e0825a008301e800c3
:10168000e00f5200e08f5a00f9ff3a000000060018
:10169000800078000000eb00610ab8006101b8002a
:1016a000040341000000e800644179000204e00006
:1016b000f9ff3a0001005300cf80de000000060071
:1016c000889fbe006011b8006103b8006112b800c5
:1016d0000404430085844b0066427a00814f520027
:1016e00001003a00880178000201e8000404e000eb
:1016f000f5ff3a00030078004f04be00000006002a
:10170000889fbe008a1f780000047800c8009000ff
:10171000680190000000eb00828f50003d0039000e
:10172000180078002200290002016000e20f510039
:1017300007003200012024000000e00001003d000d
:1017400001202000008c70000080eb003100370089
:101750000200260002006000820f500009003a00db
:1017600038009000808f5000060039000800780093
:1017700083000700800078000080eb000100e0009b
:1017800024003a001805780000c020000000650021
:1017900019003a00a80490006002200008004000f0
:1017a000808f540014003a00002020000100200027
:1017b0002b010700200498000000e00005003a001b
:1017c00029049800490498008904e8003904980025
:1017d000080037000a60a0000a0c78004004980056
:1017e000012020008080400031049800400c9800c7
:1017f000500c98000c00070028009000500498003e
:10180000380090006004980000002600180c70005a
:101810000000eb004f0578004f04be0000000600fa
:10182000a0ca200091003700881f7800689220002d
:101830001804e00003003a00f9ff070020c0b300dd
:10184000004c78004f04780000000600889fbe001e
:101850000004780008007800490007008004780040
:1018600000042000180060000200320028009000f0
:101870008a0007000000eb00200498003840900028
:101880000004e000050035000000fb007ffc0700bd
:101890000000e000010032008084eb00181090008e
:1018a0000000e0000800320081fc07000000e000ba
:1018b000010032008084eb001810900077000700d0
:1018c0000000eb00101498000008200018006000d1
:1018d0000f003200c19020000000eb00d10f140077
:1018e00005003a0000004000e19020000080400028
:1018f0000008eb00030037000000e800e80f50008c
:10190000f6ff3a0008007800640007000e00370078
:10191000000c780000c0eb0030449800600220000a
:1019200008004000200498004004980050049800eb
:10193000400c980060049800500c980070049800c7
:1019400076004400000c9800090078004f04be00a7
:1019500000000600889fbe00e8912000f0045400bb
:10196000480078000000e00001003200b7ff0700e7
:10197000890f5400faff3a004f04be000000060031
:10198000889fbe008a1f7800000478000800e000ed
:101990000d003a00c8902000700544008004eb0060
:1019a000580078000000e00004003200f4ff070057
:1019b0000000e00001003d008084eb008a0f54002d
:1019c000f7ff3a00250037000000220018006000f1
:1019d0008004eb0021003200a80490000f003700c3
:1019e00009015100384090000000fb008900780098
:1019f00059fc07000000e00007003c0028009000b0
:101a00004004980060049800500c98001890a000c2
:101a10008084eb001100370080844400480190006e
:101a2000828f5400eeff3900280090004004980097
:101a30009800780002c020000281600001003a0096
:101a40003800900001e8a300020032006004980012
:101a500001003700500c98008004eb00090078006a
:101a60004f0578004f04be00000006000100200072
:101a70000100e00008003200010080000100e000e9
:101a8000050032008100e9000100880081804000eb
:101a90000200800000b17800000006000000e000b5
:101aa000320032004002be00e50f5200e08f5a00c3
:101ab0002e0036000408a3002c003a0021498000c3
:101ac0000100e00002003200810f500004003100ec
:101ad0002100980020498800170037008200780014
:101ae000210190000200e00002003200800f51004e
:101af000faff39001103be0086814000830f5000b9
:101b00001a003900808f510004003a008418430005
:101b100085904b0001007800070037000200e000cc
:101b20000300320004024000840f51000f0039000e
:101b300022009800a0009800a00090000100e000a2
:101b40000a00320010014000828f500007003a0066
:101b5000229220000009eb001001be003118410064
:101b600021904900a100900021009800000006008b
:101b7000889fbe008a9fbe000004be0011498000fd
:101b80000100e00002003200010078000f00370081
:101b9000214980004092200005003700b10f540019
:101ba000a18f5c002b00360064804000a1009000f3
:101bb0000100e000f9ff3a0012003700b20f5400b4
:101bc000a28f5c0023003600640041001001780001
:101bd0000200e000f9ff3a0011017800214980007d
:101be0004092200005003700b10f5400a18f5c0027
:101bf0001800360064804000a1009000828f5000e1
:101c0000f9ff3a00fa4880000b498000880f550020
:101c1000898f5d00010031000805be000a00be008a
:101c2000460007000000e00006003a00880f55005b
:101c3000898f5d00060032008b05d1000a85d30034
:101c4000f2ff37000a98be0094ff0700cbff370071
:101c50000000eb004f05be004f04be000000060070
:101c6000889fbe000002be0065004000e080480082
:101c7000000378000600a1008101780006017800c9
:101c80000204be008000eb00840f5400858f5c00ce
:101c900027003600e50f5400e08f5c0002003e0094
:101ca00068002000090020000800be00b0ff070007
:101cb0008000eb000000e0001d0032009000780082
:101cc000a4ff2f00f5ff2f0031014200a1814a003f
:101cd000880f5100898f590003003100a102900044
:101ce00005087800080037000881400002087800e5
:101cf000a10190002301980010017800311914000f
:101d000021911c008888be00100178000000eb00c3
:101d10000200e00004003200a20190000300e00095
:101d2000010032006400410010498800e480400056
:101d3000010078004f04be00000006000001be0054
:101d40008000eb000200e000060034000200780092
:101d500060fb070080007800e18f400001003a003e
:101d60008000eb00010078000000060000c0da00ef
:0c1d70000000060000c0da0000000600c1
:020000040000fa
:101d7c000d0000004c540000505f0000424f00006a
:101d8c0041520000445f0000424f00004f540000dd
:101d9c00494e0000472e00002e0d000000000000f0
:041dac00f40100003e
:020000040000fa
:101db0004e0800000200000002000000ffff0000cb
:101dc0000008000020000000000000005008000093
:101dd00002000000000000002808000006000000cb
:101de00000000000200800000800000000000000c3
:101df000520800000200000000000000540800002b
:101e00000200000000000000560800000200000070
:101e10000000000058080000020000000000000060
:101e20002e0800000600000000000000340800003a
:101e300006000000000000005a0800000200000038
:101e4000000000005c08000002000000000000002c
:101e50005e080000020000000000000060080000b2
:101e60000200000000000000620800000200000004
:101e700000000000640800000200000000000000f4
:101e80006608000002000000000000006808000072
:101e900002000000000000006a08000002000000cc
:101ea00002000000390100006c0800000200000080
:101eb000000000006e0800000200000000000000aa
:101ec000700800000200000000000000720800001e
:101ed0000200000000000000740800000200000082
:101ee0000000000076080000020000000000000072
:101ef0007808000002000000000000007a080000de
:101f000002000000000000007c0800000200000049
:101f1000000000007e080000020000000000000039
:101f2000800800000200000000000000820800009d
:101f30000200000000000000840800000200000011
:101f40000000000086080000020000000000000001
:101f50003a08000004000000020000009a991900ed
:101f60003e0000003e0800000400000002000000e7
:101f700017b75100390000004208000004000000bb
:101f8000020000000000000040000000880800007f
:101f900002000000000000008a08000002000000ab
:101fa000000000008c08000002000000000000009b
:101fb0008e080000020000000000000090080000f1
:101fc0000200000000000000920800000200000073
:101fd00000000000460800000400000000000000af
:101fe0004a080000040000000000000094080000ff
:101ff00002000000000000009608000088000000b9
:10200000020000000100000000bc0800bd08bc0088
:1020100008bc0800bc08bc0008ac080000000000b8
:1020200000000000000000000000000000000000b0
:102030000000000000000000000208000101e400b0
:1020400008e50800e408e40008e40800e408d40017
:102050000800000000000000000000000000000078
:10206000000000000000000000000000000002006e
:10207000080202000c090d00090c09000c090c00f3
:10208000090c0900fc08000000000000000000002e
:102090000000000000000000000000000000000040
:1020a000000000009608be0008e6080000000000de
:1020b00000000000000000000000000026090000f1
:1020c00002000000000000001e09000004000000e3
:1020d00002000000060000000000000022090000cd
:1020e00004000000000000002809000002000000b9
:0820f0000000000000000000e8
:020000040000fa
:1020f8001000fa00204f980061079800624f98007e
:102108001000200030079800ee009000210798008a
:10211800ae489000014f98000000eb00000f7800d7
:102128000000eb00100798001b003700e60047008e
:1021380068004700810178002206200011c0b30022
:10214800e1020700090037009e0090008038210056
:10215800808f500002003a000040eb004500370035
:102168001e0090000000e800100798003e00900054
:10217800e10f5000f4ff32003e009000e20f5000e3
:1021880009003200803821009e007800808f5000be
:10219800070032001e0fe8003e0090000000e0003b
:1021a800e2ff3a000300370000000000010037009a
:1021b800000000003e009000e20f500027003a00a7
:1021c8000000eb00000f78000000eb0010079800fb
:1021d8001b003700660047008001780022062000b7
:1021e800ee4890002e009000d0020700090037004a
:1021f8009e00900080382100808f500002003a0035
:102208000040eb001b0037001e0090000000e800b3
:10221800100798003e009000e10f5000f4ff3200d4
:102228003e009000e20f50000900320000712200c9
:102238009e007800808f5000070032001e0fe800d3
:102248003e0090000000e000e2ff3a000300370083
:102258000000000001003700000000003e00900070
:102268000000e00002003a000040eb0001003700e7
:0c22780010c0b3000080fa000000060057
:020000040000fa
:102284000000fa00889fbe00000880004400dd00c2
:10229400c0438800c0438000f0438800d1438000dd
:1022a400e043800010007800008050000044880063
:1022b40001448000f07c2000808f50000400340032
:1022c4000144800020062f00008040000044880064
:1022d4000144800010832f00808f500004003d00d3
:1022e40001448000e0f920000080400000448800a0
:1022f40001448000f04380000088b9008000780029
:102304002044800000804000204488000144800074
:102314001044800080805000803e20000088b90076
:1023240080007800f043800000017800110009006b
:102334008200d8003044880000448000cf80de0052
:10234400a5fa07000002be00d0418000e1418000f0
:102354000001be000400be00f7fa07000004be003e
:1023640020448000cf80de009bfa07000002be00fc
:10237400f0418000014280000001be000400be0064
:10238400edfa07000001be000800be0014fa0700c1
:102394000004be0030448000cf80de008efa0700c7
:1023a4000002be0010428000214280000001be00f5
:1023b4000400be00e0fa07000001be000800be00f1
:1023c40007fa070063fa0700000078004044880019
:1023d40000448000104488004044800093010700ba
:0c23e4004f04be000080fa00000006005c
:020000040000fa
:1023f0000a00fa0030c0b30040479800218720004f
:102400009140780040c6b30080cf500004003a00ed
:1024100040c0b300404798007268ef0003003700e7
:1024200072c8bf000040e80072e8b700ce409000dc
:102430000040eb00f0000700504798005e4090001d
:102440000004e00003003a006b0207000040eb00cc
:10245000380037006600470012c0b30080007800e3
:1024600010c0b30024ff0700504798005e40900062
:102470000004e00002003a000040eb002d003700ad
:102480006e409000614f6000130037001e00900006
:102490000000e8001007980000e823000100200079
:1024a000ae0207006600470012c0b300800078004b
:1024b00010c0b30010ff0700504798005e40900026
:1024c0000004e00002003a000040eb001900370071
:1024d0006e409000614f60001e4078000004e000f4
:1024e000eaff32006600470022c0b3008000780097
:1024f000f0c8b30000ff0700504798005e4090000e
:102500000004e00002003a000040eb000900370040
:10251000a0438000ee4090008180fb004809dd0070
:10252000fe4090008180fb0081004100010878009e
:0c25300010c0b3000080fa00000006009c
:020000040000fa
:10253c000600fa00004f7800110798002207980057
:10254c000082200020009000610060000000e0008c
:10255c002e003a002e009000110020000108780097
:10256c0000822000100078009e009000110098005e
:10257c0000822000100078001e48780000822000a5
:10258c0010007800ae00900021009800008220001e
:10259c0010007800e600400000822000010878005e
:1025ac000082200090007800e0822000808f500094
:1025bc0003003a000082200081822000010878008c
:1025cc0000822000a00090000110a10021009800c2
:1025dc000082200090009000008220001000780003
:1025ec00808f500004003a0000822000a000900070
:1025fc000100a00021009800904280000000e00043
:10260c0005003a008a20a800030037002e00900035
:10261c008000eb00010878000080fa000000060042
:020000040000fa
:10262c000800fa00881f78001007980041479800ae
:10263c00320798000000eb00000f78001e0090009d
:10264c000000e0001d0032003e0090000000e000a1
:10265c0014003200080037003e0090001e044000b9
:10266c001e0090001e00400010407800530207002e
:10267c00004c78001e0fe8004e4090000080fb00dc
:10268c009e0f5000f4ff3e001a0037001e00900011
:10269c001e00400010407800480207001e0fe800a2
:1026ac0001003700000000004e4090000080fb004d
:1026bc009e0f5000f5ff3e000e0037003e009000cc
:1026cc000000e0000b003200060037003e009000d6
:1026dc001e0440000040eb0038020700004c78005c
:1026ec001e0fe8004e4090000080fb009e0f500033
:1026fc00f6ff3e001e007800004078004f04780082
:08270c000080fa000000060045
:020000040000fa
:102714000000fa00889fbe00000880008000eb00e3
:10272400b0f90700d27b23006378230002fa070084
:102734000002be0050428000614280000001be00e1
:102744000400be0026f90700504288006142880058
:1027540080448000cf80de009ff907000004be00a3
:10276400304280004142800002fd2000930c24008e
:10277400f1f907000002be0050428000614280006f
:102784000001be000400be00ebf907001efa0700ba
:102794000001be000800be00e7f907000004be0007
:1027a40070448000cf80de008bf907000001be007a
:1027b4000800be000af9070066f907000000780067
:1027c40090448800904480000000e00004003d0034
:1027d40091448000e0f9200000804000904488008b
:1027e40090448000630307004f04be000080fa0099
:0427f40000000600db
:020000040000fa
:1027f8000a00fa00004f9800114f980010002000be
:10280800200798008e489000614798009e489000e5
:10281800714798000000eb00000f78000000eb0003
:10282800100798001d003700e400470066004700c5
:10283800810178002206200021c0b3002201070090
:10284800090037009e00900080382100808f5000da
:1028580002003a000040eb001b0037001e00900009
:102868000000e800100798002e009000e10f5000cb
:10287800f4ff32002e009000e20f50000b003200ef
:10288800803821009e007800808f500002003a00b6
:102898000040eb000c0037001e0fe8002e009000ef
:1028a8000000e000e0ff3a000100370000000000ef
:1028b8002e0090000000e00002003a000040eb000b
:1028c8000100370010c0b3000080fa0000000600c5
:020000040000fa
:1028d8000800fa00000f78001107980022079800f6
:1028e800330798001e007800504488001e009000ae
:1028f800604488002e019000be019000324288009a
:10290800434288005144800060448000808f50001a
:102918000d003400514480006044800080805000e5
:102928002000200080017800110009008300d800f1
:10293800804488005144800080448000008050001a
:1029480070448800150037005144800060448000be
:10295800808f50000f003d0060448000e1f92000a6
:10296800808050005044800080804000200020007b
:1029780000017800110009008200d8008044880016
:1029880051448000804480000080500070448800da
:102998000200370050448000704488000080fa002c
:0429a8000000060025
:020000040000fa
:1029ac000400fa00100798000040eb00004f78007c
:1029bc001e009000104078008040780020c0b300ca
:1029cc008aff07001e4f40001e0090001040900030
:1029dc008040780040c0b30084ff070000404000f6
:1029ec001e4f40001e009000204090008040780058
:1029fc00c0c1b3007dff0700210020000100dd00f5
:102a0c001e4f40001e407800e74f500002003a0075
:102a1c0010c0b300010037000040eb000080fa004a
:042a2c0000000600a0
:020000040000fa
:102a30000400fa00100798009e009000b14388003f
:102a4000b143800040062000808f50000200340017
:102a500040062000b0438800b1438000c0f92f0039
:102a6000808f500002003d00c0f92f00b043880065
:102a7000b04380000000e00002003d00ccc2a8008e
:102a800001003700ccc2a900b0438000f601070066
:102a9000000f78009e0078000000eb002302070082
:082aa0000080fa0000000600ae
:020000040000fa
:102aa8000400fa00cd82a90000c6b3004401070063
:102ab8000040eb00420107000040eb004001070026
:102ac8000040eb003e010700204798000040eb0063
:102ad8003b01070030479800cd82a8002e409000a7
:102ae8000080fb00c800dd003e4090000080fb0035
:102af800008f70001e0078000000e00002003d001a
:102b0800f0f920001e0f40001e0078000080fa0037
:042b180000000600b3
:020000040000fa
:102b1c000000fa00c422ef00cc22ef00000c2000d1
:102b2c00a0168800f0fb200000168800f067240037
:102b3c004016880070372000801688005620ef0061
:102b4c005820ef005a20ef006e20ef007020ef00ad
:102b5c007220ef00c622ef00ce22ef00d622ef004b
:102b6c00f00120000027880000272400102788008f
:102b7c0070002000202788000080fa00000006006a
:020000040000fa
:102b8c000000fa00008220008182200011009800d1
:102b9c000082200081822000010878000082200041
:102bac00a00090000110a0002100980000822000dd
:102bbc00a00090000100a1002100980000822000dc
:102bcc008040eb00614098001822ef00800220004a
:102bdc00901088001622ef0090012000d010880081
:102bec008a20a9009a20a8000080fa0000000600a4
:020000040000fa
:102bfc000000fa0050002800000a88004221ef0073
:102c0c004421ef0000302000300a88004821ef00fa
:102c1c004a21ef004c21ef005021ef005221ef0030
:102c2c00803e2000a00a88005621ef005821ef00ba
:102c3c00401f2000e00a88006021ef006221ef00b5
:102c4c00000a8000004078006f4060000080fb00ac
:0c2c5c00804288000080fa0000000600a2
:020000040000fa
:102c68000000fa0052010700e0eb2800fdf9070018
:102c780000ec2800fbf9070084000700d462a800d4
:102c8800c522a800408620003302070040862000a5
:102c980025020700608620002902070080862000a0
:102ca8001b02070040062000310207000200200036
:102cb80003f02300017d200080bb200004ff0700f3
:082cc800b3010700feff370015
:020000040000fa
:102cd0000800fa00000f78002147980022079800aa
:102ce00033079800008220002000900061006000ff
:102cf0000000e0000a003a00ae0190002e41900072
:102d00009e00780040832000500007003e019000a4
:102d10004183200010c0b30008fe07000300370005
:102d20003e0090008000eb00010878000080fa006f
:042d30000000060099
:020000040000fa
:102d34000800fa00000f7800214798002207980045
:102d4400330798000082200020009000610060009a
:102d54000000e0000a003a00ae0190002e4190000d
:102d64009e007800e08220000a0007003e019000e7
:102d7400e182200010c0b300effd0700030037001c
:102d84003e0090008000eb00010878000080fa000b
:042d94000000060035
:020000040000fa
:102d98000800fa00000f78001107980042479800d1
:102da800330798003e009000000040008000780043
:102db8001e007800010878001e00780010007800d6
:102dc800800078000100a0001e007800010878004b
:102dd8001e007800ce409000214098001e00780028
:102de8009e009000210098000080fa000000060074
:020000040000fa
:102df8000400fa000000eb000bff0700cca2a900ba
:102e080000502300c100200052000700cca2a800f7
:102e180000202100a10720004e00070000c8b300d1
:102e2800004f780080c0b300104798000040eb00c6
:102e3800204798000e007800dafe07000080fa00ac
:042e48000000060080
:020000040000fa
:102e4c000800fa00000f780011079800424798001c
:102e5c00330798003e00900000004000800078008e
:102e6c001e007800010878001e007800ce4090000b
:102e7c00214098001e0078009e00900021009800d0
:082e8c000080fa0000000600be
:020000040000fa
:102e94000000fa00c8c2a900d062a900c122a9009a
:102ea400d042a900d022a900c982a900c8a2a900c1
:102eb400cd82a800cca2a800c522a900d462a90092
:102ec4003d010700cbff0700ba010700f40107002a
:082ed4000080fa000000060076
:020000040000fa
:102edc000000fa00b042800066004000b04288005a
:102eec0054c8bf000040e90054e8b70054c8bf0004
:102efc000004e00003003a004000200090428800eb
:102f0c000200370010002000904288000080fa0078
:042f1c0000000600ab
:020000040000fa
:102f20000000fa0000000000101180006100600045
:102f30000000e000fcff3200101180006200600021
:102f40000000e000010032002222a90030118000c0
:0c2f5000004078000080fa00000006003d
:020000040000fa
:102f5c00f03fb1000180b10006003500ee0309001e
:102f6c0000000000403fb1000180b100fbff3d00bc
:102f7c001000b000203fb0000200350000800900b6
:082f8c00000000000000060037
:020000040000fa
:102f94000000fa000001eb0060042000710520002d
:102fa40023742000804978008149780082497800a0
:102fb4004427ef004827ef004e27ef000080fa0077
:042fc4000000060003
:020000040000fa
:102fc8000200fa00004f78001e80fb000010880005
:102fd8000000000040108000610060000000e00078
:102fe800fcff320000108000004078000080fa00ea
:042ff80000000600cf
:020000040000fa
:102ffc000200fa00000f78001442a800c0428000c2
:10300c00200090000000e00003003200c04280006d
:10301c00200090001e0878005228ef000080fa0073
:04302c00000006009a
:020000040000fa
:103030000000fa0000822000200090000000d10073
:10304000614060000080fb0000f0a7000000ea0083
:103050000000ea004f00de00004078000080fa0027
:043060000000060066
:020000040000fa
:103064000000fa0020048000680060000000e00016
:103074000600320063c8bf000040e80063e8b70000
:1030840010c0b30062e8b7008460a9000080fa00b1
:043094000000060032
:020000040000fa
:103098000000fa00200480000000d10061406000b8
:1030a8000080fb0000f0a7000000ea000000ea0032
:1030b8004f00de00004078000080fa0000000600a3
:020000040000fa
:1030c8000000fa00600a80004700de0061406000ee
:1030d8000080fb0000f0a7000000ea000000ea0002
:1030e8004f00de00004078000080fa000000060073
:020000040000fa
:1030f8000000fa00600a80004300de0061406000c2
:103108000080fb0000f0a7000000ea000000ea00d1
:103118004f00de00004078000080fa000000060042
:020000040000fa
:103128000200fa00004f7800000000001111800032
:1031380000202000008060000000e000fbff3a0053
:103148001e80fb00201188000080fa0000000600a5
:020000040000fa
:103158000000fa000004200040108800100220003f
:10316800101088000422ef000622ef000c22ef0066
:1031780010002000501088000080fa0000000600af
:020000040000fa
:103188000000fa00008220002000900061406000ea
:103198000080fb0000f0a7000000ea000000ea0041
:1031a8004f00de00004078000080fa0000000600b2
:020000040000fa
:1031b8000000fa0057fe07003c01070073ff0700f4
:1031c80070fe070031000700e1ff070067000700f5
:0c31d80088fe07000080fa0000000600de
:020000040000fa
:1031e4000000fa0011108000000820000080600038
:1031f40000f0a7000000ea000000e9004f00de0034
:0c320400004078000080fa000000060086
:020000040000fa
:103210000000fa001110800000042000008060000f
:1032200000f0a7000000ea000000e9004f00de0007
:0c323000004078000080fa00000006005a
:020000040000fa
:10323c000200fa002186200091407800014f7800ae
:10324c001e4078000004e000010032006268ef00cc
:0c325c001e4078000080fa000000060010
:020000040000fa
:103268000400fa00100798001e00900000f0a70064
:103278000000ea00000f78001e0078006a00b9001c
:0c328800000078000080fa000000060042
:020000040000fa
:103294000000fa0080002000001188002222ef00c4
:1032a400000120004011880021e2a8002342a80068
:0832b4000080fa000000060092
:020000040000fa
:1032bc000000fa00401080006100600000f0a700e0
:1032cc000000ea000000e9004f00de00004078003a
:0832dc000080fa00000006006a
:020000040000fa
:1032e4000000fa0021048000000820000080600033
:1032f4000000e0000100320084e0a9000080fa0030
:0433040000000600bf
:020000040000fa
:103308000400fa00000f7800110798009e0078006a
:10331800c10a88009e009000e10a88000080fa0037
:04332800000006009b
:020000040000fa
:10332c000400fa00000f7800110798009e00780046
:10333c00c10a88009e009000e10a88000080fa0013
:04334c000000060077
:020000040000fa
:103350000400fa00000f7800110798009e00780022
:10336000c10a88009e009000e10a88000080fa00ef
:043370000000060053
:020000040000fa
:103374000000fa000021ef000080eb001008880034
:1033840000032800200888006268ef000080fa002b
:04339400000006002f
:020000040000fa
:103398000000fa000108800050438000808f500030
:1033a800020039008460a9000021ef000080fa00c3
:0433b800000006000b
:020000040000fa
:1033bc000000fa00cd82a90080c8b300fffe070010
:1033cc0030c2b300fdfe0700cd82a8000080fa00d9
:0433dc0000000600e7
:020000040000fa
:1033e0000000fa0020048000620060000000e0009d
:1033f000010032008420a9000080fa0000000600cd
:020000040000fa
:103400000000fa00881f780088438000a6fd0700ae
:10341000000c78004f0478000080fa0000000600dd
:020000040000fa
:103420000000fa0020048000680060000000e00056
:10343000010032008460a9000080fa00000006004c
:020000040000fa
:103440000000fa00008020008007780080812000c2
:0c345000000188000080fa000000060067
:020000040000fa
:10345c000200fa0000822000e0409000014f78004a
:0c346c001e4078000080fa0000000600fe
:020000040000fa
:103478000200fa00000f78009e007800110888000a
:0c3488006268ef000080fa0000000600ff
:020000040000fa
:103494000200fa00000f78009e00780001088800fe
:0c34a4006268ef000080fa0000000600e3
:020000040000fa
:1034b0000000fa008460a9000021ef008228ef00dc
:0c34c0008428ef000080fa0000000600e5
:020000040000fa
:1034cc000000fa00e0f9200028000700c9ff0700ff
:0c34dc00aeff07000080fa0000000600b0
:020000040000fa
:1034e8000200fa00000f78009e007800c10a8800e8
:0834f8000080fa00000006004c
:020000040000fa
:103500000200fa00000f78009e007800c10a8800cf
:083510000080fa000000060033
:020000040000fa
:103518000400fa001007980061438000010f78004a
:083528000080fa00000006001b
:020000040000fa
:103530000200fa00000f78009e00780081438800a6
:083540000080fa000000060003
:020000040000fa
:103548000200fa00000f78009e007800a14388006e
:083558000080fa0000000600eb
:020000040000fa
:103560000200fa00000f78009e007800e143880016
:083570000080fa0000000600d3
:020000040000fa
:103578000200fa00000f78009e007800d14388000e
:083588000080fa0000000600bb
:020000040000fa
:103590000000fa006268ef0005e1a8000080fa0070
:0435a0000000060021
:020000040000fa
:1035a4000000fa0063c8bf000080fb000080fa003e
:0435b400000006000d
:020000040000fa
:1035b8000000fa00b04380001bfd07000080fa00fd
:0435c80000000600f9
:020000040000fa
:1035cc000000fa00b0438000004078000080fa0050
:0435dc0000000600e5
:020000040000fa
:1035e0000000fa0086ff07006bff07000080fa006a
:0435f00000000600d1
:020000040000fa
:1035f400000f78009e00780071428800ffff3700ba
:020000040000fa
:103604000000fa0041e1a8000080fa000000060072
:020000040000fa
:103614000000fa0041e1a9000080fa000000060061
:020000040000fa
:103624000000fa004cc1a8000080fa000000060067
:020000040000fa
:103634000000fa004ca1a9000080fa000000060076
:020000040000fa
:103644000000fa004c61a9000080fa0000000600a6
:020000040000fa
:103654000000fa00101180000080fa00000006004b
:020000040000fa
:103664000000fa00100880000080fa000000060044
:020000040000fa
:103674000000fa00000880000080fa000000060044
:020000040000fa
:103684000000fa0005e1a9000080fa00000006002d
:020000040000fa
:103694000000fa006368ef000080fa0000000600f2
:020000040000fa
:1036a4000000fa00b9ff07000080fa0000000600dd
:020000040000fa
:0c36b4000000fa000080fa000000060090
:020000040000fa
:0c36c0000000fa000080fa000000060084
:020000040000fa
:0c36cc000000fa000080fa000000060078
:020000040000fa
:0c36d8000000fa000080fa00000006006c
:020000040000fa
:0200000401f009
:04000000ffff0000fe
:020000040000fa
:0200000401f009
:04000800ffff0000f6
:020000040000fa
:0200000401f009
:04000c00f9ff0000f8
:020000040000fa
:0200000401f009
:040010003fff0000ae
:020000040000fa
:0200000401f009
:040014005fff00008a
:020000040000fa
:0200000401f009
:04001800bfff000026
:020000040000fa
:0200000401f009
:04001c00ffff0000e2
:00000001FF
