:020000040000fa
:080000000002040000000000f2
:020000040000fa
:0400080046050000a9
:020000040000fa
:04000c00d40200001a
:020000040000fa
:04001000e602000004
:020000040000fa
:04001400dc0200000a
:020000040000fa
:04001800ee020000f4
:020000040000fa
:04001c004605000095
:020000040000fa
:040020004605000091
:020000040000fa
:04002400460500008d
:020000040000fa
:040028004605000089
:020000040000fa
:04002c004605000085
:020000040000fa
:040030004605000081
:020000040000fa
:04003400460500007d
:020000040000fa
:040038004605000079
:020000040000fa
:04003c004605000075
:020000040000fa
:040040004605000071
:020000040000fa
:04004400460500006d
:020000040000fa
:040048004605000069
:020000040000fa
:04004c004605000065
:020000040000fa
:040050004605000061
:020000040000fa
:04005400460500005d
:020000040000fa
:040058004605000059
:020000040000fa
:04005c004605000055
:020000040000fa
:040060004605000051
:020000040000fa
:04006400460500004d
:020000040000fa
:040068004605000049
:020000040000fa
:04006c004605000045
:020000040000fa
:040070004605000041
:020000040000fa
:04007400460500003d
:020000040000fa
:040078004605000039
:020000040000fa
:04007c004605000035
:020000040000fa
:040080004605000031
:020000040000fa
:04008400460500002d
:020000040000fa
:040088004605000029
:020000040000fa
:04008c004605000025
:020000040000fa
:040090004605000021
:020000040000fa
:04009400460500001d
:020000040000fa
:040098004605000019
:020000040000fa
:04009c004605000015
:020000040000fa
:0400a0004605000011
:020000040000fa
:0400a400460500000d
:020000040000fa
:0400a8004605000009
:020000040000fa
:0400ac004605000005
:020000040000fa
:0400b0004605000001
:020000040000fa
:0400b40046050000fd
:020000040000fa
:0400b80046050000f9
:020000040000fa
:0400bc0046050000f5
:020000040000fa
:0400c00046050000f1
:020000040000fa
:0400c40046050000ed
:020000040000fa
:0400c80046050000e9
:020000040000fa
:0400cc0046050000e5
:020000040000fa
:0400d00046050000e1
:020000040000fa
:0400d40046050000dd
:020000040000fa
:0400d80046050000d9
:020000040000fa
:0400dc0046050000d5
:020000040000fa
:0400e00046050000d1
:020000040000fa
:0400e40046050000cd
:020000040000fa
:0400e80046050000c9
:020000040000fa
:0400ec00f602000018
:020000040000fa
:0400f00046050000c1
:020000040000fa
:0400f40046050000bd
:020000040000fa
:0400f80046050000b9
:020000040000fa
:0400fc0046050000b5
:020000040000fa
:0401000046050000b0
:020000040000fa
:0401040046050000ac
:020000040000fa
:0401080046050000a8
:020000040000fa
:04010c0046050000a4
:020000040000fa
:0401100046050000a0
:020000040000fa
:04011400460500009c
:020000040000fa
:040118004605000098
:020000040000fa
:04011c004605000094
:020000040000fa
:040120004605000090
:020000040000fa
:04012400460500008c
:020000040000fa
:040128004605000088
:020000040000fa
:04012c004605000084
:020000040000fa
:040130004605000080
:020000040000fa
:04013400460500007c
:020000040000fa
:040138004605000078
:020000040000fa
:04013c004605000074
:020000040000fa
:040140004605000070
:020000040000fa
:04014400460500006c
:020000040000fa
:040148004605000068
:020000040000fa
:04014c004605000064
:020000040000fa
:040150004605000060
:020000040000fa
:04015400460500005c
:020000040000fa
:040158004605000058
:020000040000fa
:04015c004605000054
:020000040000fa
:040160004605000050
:020000040000fa
:04016400460500004c
:020000040000fa
:040168004605000048
:020000040000fa
:04016c004605000044
:020000040000fa
:040170004605000040
:020000040000fa
:04017400460500003c
:020000040000fa
:040178004605000038
:020000040000fa
:04017c004605000034
:020000040000fa
:040180004605000030
:020000040000fa
:04018400460500002c
:020000040000fa
:040188004605000028
:020000040000fa
:04018c004605000024
:020000040000fa
:040190004605000020
:020000040000fa
:04019400460500001c
:020000040000fa
:040198004605000018
:020000040000fa
:04019c004605000014
:020000040000fa
:0401a0004605000010
:020000040000fa
:0401a400460500000c
:020000040000fa
:0401a8004605000008
:020000040000fa
:0401ac004605000004
:020000040000fa
:0402080046050000a7
:020000040000fa
:04020c0046050000a3
:020000040000fa
:04021000460500009f
:020000040000fa
:04021400460500009b
:020000040000fa
:040218004605000097
:020000040000fa
:04021c004605000093
:020000040000fa
:04022000460500008f
:020000040000fa
:04022400460500008b
:020000040000fa
:040228004605000087
:020000040000fa
:04022c004605000083
:020000040000fa
:04023000460500007f
:020000040000fa
:04023400460500007b
:020000040000fa
:040238004605000077
:020000040000fa
:04023c004605000073
:020000040000fa
:04024000460500006f
:020000040000fa
:04024400460500006b
:020000040000fa
:040248004605000067
:020000040000fa
:04024c004605000063
:020000040000fa
:04025000460500005f
:020000040000fa
:04025400460500005b
:020000040000fa
:040258004605000057
:020000040000fa
:04025c004605000053
:020000040000fa
:04026000460500004f
:020000040000fa
:04026400460500004b
:020000040000fa
:040268004605000047
:020000040000fa
:04026c004605000043
:020000040000fa
:04027000460500003f
:020000040000fa
:04027400460500003b
:020000040000fa
:040278004605000037
:020000040000fa
:04027c004605000033
:020000040000fa
:04028000460500002f
:020000040000fa
:04028400460500002b
:020000040000fa
:040288004605000027
:020000040000fa
:04028c004605000023
:020000040000fa
:04029000460500001f
:020000040000fa
:04029400460500001b
:020000040000fa
:040298004605000017
:020000040000fa
:04029c004605000013
:020000040000fa
:0402a000460500000f
:020000040000fa
:0402a400460500000b
:020000040000fa
:0402a8004605000007
:020000040000fa
:0402ac004605000003
:020000040000fa
:0402b00046050000ff
:020000040000fa
:0402b40046050000fb
:020000040000fa
:0402b80046050000f7
:020000040000fa
:0402bc0046050000f3
:020000040000fa
:0402c00046050000ef
:020000040000fa
:0402c40046050000eb
:020000040000fa
:0402c80046050000e7
:020000040000fa
:0402cc0046050000e3
:020000040000fa
:0402d00046050000df
:020000040000fa
:0402d40046050000db
:020000040000fa
:0402d80046050000d7
:020000040000fa
:0402dc0046050000d3
:020000040000fa
:0402e00046050000cf
:020000040000fa
:0402e40046050000cb
:020000040000fa
:0402e80046050000c7
:020000040000fa
:0402ec0046050000c3
:020000040000fa
:0402f00046050000bf
:020000040000fa
:0402f40046050000bb
:020000040000fa
:0402f80046050000b7
:020000040000fa
:0402fc0046050000b3
:020000040000fa
:0403000046050000ae
:020000040000fa
:0403040046050000aa
:020000040000fa
:0403080046050000a6
:020000040000fa
:04030c0046050000a2
:020000040000fa
:04031000460500009e
:020000040000fa
:04031400460500009a
:020000040000fa
:040318004605000096
:020000040000fa
:04031c004605000092
:020000040000fa
:04032000460500008e
:020000040000fa
:04032400460500008a
:020000040000fa
:040328004605000086
:020000040000fa
:04032c004605000082
:020000040000fa
:04033000460500007e
:020000040000fa
:04033400460500007a
:020000040000fa
:040338004605000076
:020000040000fa
:04033c004605000072
:020000040000fa
:04034000460500006e
:020000040000fa
:04034400460500006a
:020000040000fa
:040348004605000066
:020000040000fa
:04034c004605000062
:020000040000fa
:04035000460500005e
:020000040000fa
:04035400460500005a
:020000040000fa
:040358004605000056
:020000040000fa
:04035c004605000052
:020000040000fa
:04036000460500004e
:020000040000fa
:04036400460500004a
:020000040000fa
:040368004605000046
:020000040000fa
:04036c004605000042
:020000040000fa
:04037000460500003e
:020000040000fa
:04037400460500003a
:020000040000fa
:040378004605000036
:020000040000fa
:04037c004605000032
:020000040000fa
:04038000460500002e
:020000040000fa
:04038400460500002a
:020000040000fa
:040388004605000026
:020000040000fa
:04038c004605000022
:020000040000fa
:04039000460500001e
:020000040000fa
:04039400460500001a
:020000040000fa
:040398004605000016
:020000040000fa
:04039c004605000012
:020000040000fa
:0403a000460500000e
:020000040000fa
:0403a400460500000a
:020000040000fa
:0403a8004605000006
:020000040000fa
:0403ac004605000002
:020000040000fa
:100400004f9720000eff20000e0188000000000022
:10041000000020000000e000020032000001200087
:100420002002880014000700ee0107000000e00031
:1004300003003a002085210001002000020037005f
:100440000000200001002000810f70000100320038
:1004500014000700000020000000e000020032004d
:100460000000020000000000502102000000000017
:100470000040da000000fe004440a900e004200033
:100480000000e0000300320000002000a00188000e
:100490004440a800000006008a1f78008b1f7800e7
:1004a0000000060091018800800478000000eb0045
:1004b0001a003700e284440032a0b4009905ba0063
:1004c000e284440032a0b4009906ba00e2844400f9
:1004d00032a0b4000006eb00476fde00fd07b2005b
:1004e000636ce10003003a00ebff07000000eb0043
:1004f0000a003700606ce10004003a00005deb0088
:100500008b05e900fdff3e00040037006168e10053
:10051000010032000086eb000b00070019c7ba008b
:100520001905ba000e04e00003003a000a00e000da
:10053000e0ff3a0000000600fe07b2009e018800be
:100540008a047800f5ff3700395dba008b05e900b1
:100550000c003200295dba008b05e900080032006a
:100560000c00e00003003a00e284440032a0b40032
:10057000f5ff370019ddba008b05e900faff3a00f4
:100580008904e800e184440032a0b40000000600c1
:10059000000000000000000000000000000000005b
:1005a00000000000000000003600f8008020a900d4
:1005b0000000eb00e61007003600f8008a10070084
:1005c0008040a90010002000e11007003600f8006c
:1005d0008060a90020002000dd1007003600f80030
:1005e0008080a90030002000d91007003600f800f4
:1005f000809fbe00829fbe00849fbe00869fbe007b
:100600000000fa008a20a900911080000008200054
:10061000008060000000e0000800320012e2a90043
:100620006628ef0060438000200090008000eb000f
:10063000010878006c28ef000d013700304380007e
:100640008000eb00b200200003002000820f500069
:10065000838f5800fc003e00006001000b00370053
:1006600039003700750037009c003700f300370071
:10067000c8003700d9003700f0003700db00370032
:10068000f10037003400370050003700408320006d
:1006900020009000620060000000e000f3003a00db
:1006a00040832000100090006043880040832000b9
:1006b000100090001040780068e8b70040832000e8
:1006c00010009000100090005043880040832000ec
:1006d00010009000e60040004083200011009800c8
:1006e000408320009000900020842000808f5000e4
:1006f00003003a0040832000c183200011009800cd
:1007000040832000a00090000100a100210098007b
:10071000408320009000900040832000100078006b
:10072000808f500004003a0040832000a000900019
:100730000110a000210098001402a8002000200051
:1007400030438800ca0037001422a800200020008f
:1007500030438800c6003700a1108000000420004c
:10076000008060000000e0000800320040832000ac
:10077000604090008040e800408320006140980085
:10078000400020000d0f0700b900370070438000c3
:100790008000d100f00f20000080600080108800f1
:1007a0007043800061006000004078000004e000b9
:1007b00003003200b000200030438800ac00370056
:1007c0003000200030438800a9003700a1108000cd
:1007d00000042000008060000000e00008003200fb
:1007e00040832000604090008040e800408320006b
:1007f0006140980040002000f00e07009c00370088
:100800001422a800704380004800de00e60060006b
:10081000000f2000010070007043880070438000ca
:100820000000a0007043880010c0b30070e8b7005b
:1008300020002000304388008d00370070c8bf00c2
:10084000e14f50000a003200504380001000780051
:10085000704388005043800020009000904388003f
:10086000504380002040900074e8b700010037003a
:100870007068ef0071438000f00f2000808f5000ff
:1008800009003600704380004800de00e60060008a
:10089000000f20000100700080108800a0002000e0
:1008a0003043880072003700704380008010880059
:1008b0007043800061006000004078000004e000a8
:1008c00003003200500020003043880068003700e9
:1008d000300020003043880065003700a110800000
:1008e00000042000008060000000e00009003200e9
:1008f00040832000604090008040e800408320005a
:100900006140980014c2a90050002000ab0e0700ff
:100910005700370074c8bf008080fb008100e900e9
:10092000cf08de00814078000040e90074e8b7009d
:100930000104e000100032005043800066004000d7
:100940005043880068c8bf000040e90068e8b7006d
:1009500068c8bf000004e00003003a002000200047
:10096000960e0700420037001422a8002000200045
:10097000304388003e00370090438000904078006c
:100980008180fb00811088000000e800904388000f
:1009900037003700a11080000004200000806000b4
:1009a0000000e00009003200408320006040900019
:1009b0008040e80040832000614098004000200013
:1009c0007e0e070014c2a900290037001462a80097
:1009d0008000200030438800250037008000200080
:1009e000304388001462a800210037009043800043
:1009f0008110800081407800014878000000e80004
:100a00009043880074c8bf000040e90074e8b70054
:100a100074c8bf000004e0000400320014a2a90062
:100a200060002000304388000200370014a2a800b4
:100a30000a0e07001482a8000d00370020002000d5
:100a40005e0e07000a0037004083200060409000df
:100a50008040e80040832000614098006000200052
:100a6000560e0700000000000100370000000000e3
:100a70000080fa004f03be004f02be004f01be00cf
:100a80004f00be003600f900004006000040da00ca
:100a90000000fe000a00fa0011002000b1bf9f0014
:100aa000c0bf9f006a805700290807004fb8970011
:100ab0000080fa00000006000a00fa005100200041
:100ac000b1bf9f00c0bf9f006a8057002208070087
:100ad0005fb897000080fa0000000600889fbe0003
:100ae00080047800904b80000000e00004003a0091
:100af0000e0007000084eb000000e0000800350055
:100b0000984b80000900e000050032000900440015
:100b1000060007000000e00001003d000084eb003b
:100b2000080078004f04be00000006008000780036
:100b30000100e00003003a0000002000904b880014
:100b4000000005000080eb0002002000828f5000b2
:100b500002003e00914b88000000eb000000060000
:100b60000800fa0010079800210798003207980043
:100b700000000000111180000010200000806000c3
:100b80000000e000fbff3200be009000010f780083
:100b90000e0037000000000011118000001020003e
:100ba000008060000000e000fbff32002e0090009b
:100bb000104078000000fb00201188002e009000fb
:100bc0000000e800200798001e0fe9001e007800d2
:100bd0000000e000efff3a003e0090000080fa00c5
:100be000000006000000050003f0a200889fbe0080
:100bf0008a9fbe008c1f7800ba000700c100330036
:100c00006450e1004f0032006420e10052003200e5
:100c100003826c0007003b000905d0000306d000ea
:100c2000820f54000c065d00020039000200320001
:100c300089017800030678008582550004003d0094
:100c40000003fd008103fd008502ea008b85420060
:100c5000840f720002003b0060001000e08018006a
:100c60006011b8000005eb007a28e1000a003900a5
:100c700006007800c75ddd00f707b20087807500c9
:100c80002d003700828171000a0178006105600043
:100c90008180d1000080d3008502e900f9ff3b008c
:100ca000060440008784480002003b0060041400f2
:100cb000e0841c000988a300070032008a817100cb
:100cc00082817100610164008904d1000884d3002d
:100cd0008b05e800170037000978a30013003a00dd
:100ce0000b00e000130034008b05e9000804440009
:100cf00089844c000a4474000978a3000d003a006e
:100d00000b00e000070034008b05e90008044400f4
:100d100089844c0001003a000b0020000978a300f0
:100d2000f7ff32000001eb00020037008281710002
:100d30000a017800300007000cf0a70001f0a000c5
:100d4000790037006420e10002003a00838f6c00d4
:100d5000790033000801be000200be0072003700b7
:100d60000001be004a0007000470a70003f0a100c4
:100d70006509b100160032000d0035006828e10059
:100d800006003500f0ff2f00f1ff27000300e00010
:100d900013003b0001002800000005000000400097
:100da000818048008502e900fcff3a000800370016
:100db000f88f420002003c008000eb0000000500bc
:100dc0008100d1000080d3008502e800fcff3a00da
:100dd0000300e00002003b0060001000e08018000b
:100de000000006004f89de00820178008b0037008a
:100df0006011b80099003700810020006180550023
:100e00000b003d000b00200061fe2f000100e100ff
:100e10001d00340082817100610164008904d100e9
:100e20000884d3000000e800faff3a0071002000b7
:100e300061006400030070000200600009003200dd
:100e400061044400e0844c000988a50005003200dc
:100e50008b05e8006808e10002003a008904d1002f
:100e60000884d300f20f20000258e10005003d0085
:100e7000c75ddd00f907b2008980750008007800c1
:100e8000000006000bf827008b007800000005002a
:100e9000c70ade00f107b200f50fb2000800320009
:100ea000e1cf4200020032000170a00024000500e2
:100eb000810f7000010032000408050044000500a5
:100ec000810f700002003a00140005008502e9005d
:100ed0000000400081c04800fcff3b000170a00002
:100ee000240005000004be00e9ff07000003be0067
:100ef0000405be000200be00e5ff0700844f750038
:100f0000000006000200be006450e100050036004b
:100f10006420e100020036000968a30001003a00e5
:100f20000800be000160a0004f0678004f05be001b
:100f30004f04be0000000600f0ff2f00f1ff270065
:100f4000f9ff3700889fbe008a9fbe008c1f780083
:100f5000e4ff0700ebff330003866c006450e10000
:100f6000240032006420e100270032006150e100db
:100f7000220032006120e100210032008b85420016
:100f8000eb07b1000134b800003ab8000804420091
:100f900089844a00013ab8000030b80088804000d7
:100fa00009014a000400330000004000818048002d
:100fb000020149008b05e900c909dd0083017000c9
:100fc0000100320013002000c814de004814dd00c8
:100fd0004709de001200b200c808de000884700075
:100fe00085ff070001f0a1000cf0a70001f0a000b0
:100ff000cdff37006120e100cfff32000801be00c5
:101000000200be00f7ff37006150e100fcff3a002c
:10101000c9ff37000001eb003f003700881f780050
:10102000030478000300e00007003d0060001000aa
:10103000e080180060011900e081190002003b0007
:1010400001f02d00030037000400070008f0a7009e
:1010500001f0a0004f04780000000600889fbe0049
:101060008a9fbe0000827000040271000482710039
:10107000260032000004be000200be006011b8006d
:101080006b092000950220000182cf000a00390080
:101090000541b1000082cf00070039000541b100d1
:1010a0000982cf00040039000541b1000882cf0059
:1010b000010039000541b100054252001200320022
:1010c0000a003b0082817100610164008100d1004f
:1010d0000080d3008984d3000884d3008b05e80006
:1010e0000442e800f7ff3a00070037000804440014
:1010f00089844c0000004800818048008b05e9008d
:101100000442e900f9ff3a003bff07004f05be002b
:101110004f04be0000000600889fbe008a9fbe00ec
:101120008c9fbe00820578000004be0058ff0700b7
:101130000800be006420e1000700390002003a0008
:10114000f1ff2700f0ff2f000160a0001202200035
:1011500022458800550037006120e10003003a0075
:101160000b00a70001f823005000370001f0a10098
:101170000200210093642400500007000800be0014
:1011800004003500b2fd2000930c24004d00070040
:101190000004be000005eb000b00a6004f0dde00b2
:1011a00001f0a1000004be0032982f0023ea2300c2
:1011b00064ff07000001eb0003f023000b00a70011
:1011c00003f8230089fe0700e5fe07000000a700e2
:1011d0000a00a20003ff07000b00e000030032003a
:1011e0000200200003f023007ffe070001f0a200b0
:1011f0000006be00020020009304240051ff0700f7
:101200000801be0079fe0700809fbe000c00be00f2
:1012100022a22a00d3a723004aff07004f01be00e5
:1012200072fe07000004be0001f0a10002002000d1
:1012300003982300210007000800be0019003500b4
:101240000001be003fff07000006be00b2c5290036
:10125000e36223003bff070022222b00f3942b00c4
:1012600062fe07000c01be0036ff0700e273280093
:1012700083c023005dfe07000c01be0031ff0700a4
:1012800042aa2a00a3e22b0058fe07000c01be0070
:101290002cff07000801be002aff07000801be005e
:1012a00052fe07000a00a70001f0a2004f06be0090
:1012b0004f05be004f04be000000060014002000d1
:1012c000510037000400200000003700889fbe0056
:1012d0008a9fbe008c1f78004f26dd0001ff0700ab
:1012e00008ff33006120e100430032006250e1005a
:1012f00041003e003e0039006420e1003c00320025
:10130000058255000f003b000402e80038003a0057
:10131000800f5300818f5b00350034000800be0051
:1013200003f0a10001f0a60003f0a0000cf0a7005c
:101330002efe0700fcfe37000603430087834b00a8
:101340000c4646000005530081855b000200330017
:101350000a03be000c00a0000402e900f6ff3b00f7
:10136000850578000602430087824b0004003a009e
:101370006000b80009f0a70001f0a000eafe370005
:101380000002520081825a000704e000040033008a
:101390000603430087834b008b05e900faff370003
:1013a000090578000604be000203be006011b80003
:1013b00091fe0700e00f5200e08f5a000700350051
:1013c00002003c000c08a300040032000601be002d
:1013d00003f0a0000cf0a70004fe07000a856800d7
:1013e00001f0a1000af0a70001f0a000cefe370036
:1013f0000800be00ccfe3700100220000cf0a60052
:1014000020458800ccfe3700889fbe008a9fbe0022
:10141000841f7800b3fe07004f00780011003300ee
:10142000f0ff2f00838f6c0006003b000405650071
:101430000a00a7000800370009f0a60010002000ed
:1014400008003700820f5400838f5c0003003900ce
:101450001000200001003e000000200009f0a7005d
:101460000000ea004f05be004f04be000000e0008f
:1014700000000600889fbe0000047800010078008c
:1014800082047800880178000901780011002000aa
:10149000c8010700890f5000010032000004eb0072
:1014a000080078004f04be00000006000000fa00ab
:1014b000e88157004fb99700e18c2000a0a32000dd
:1014c000020007000080fa00000006006200fa0037
:1014d000889fbe008a1f780000057800810478008c
:1014e000020478008300780080f92f000f0040008c
:1014f000530407009a979f00a9979f000000eb00f4
:10150000b09f9f001885fb008a04fb000a05ea00d3
:101510004f55de0050022000808f54000d00320035
:10152000e10f55000b003a000a01780088007800ae
:101530002f9097009f91970003000100a0979f00b4
:101540000000e0008e0032003f9897000000e800a5
:10155000b09f9f000a04440050022000808f540076
:10156000040032000900e000e6ff3a003f989700cf
:10157000840037000000eb00909f9f00809f9f0039
:10158000f0979f00e0979f00d0979f00c0979f0023
:101590000700370041962000010050000000400085
:1015a0008195200061007800df98970001007000ad
:1015b000d09f9f008804780009047800384578009f
:1015c0008a00fb0040962000df0107000000e000d9
:1015d000f0ff3a00a1c2b300814f55000e003a005f
:1015e000cf8897000180e900c08f9f00100078002d
:1015f000c09f9f000000e00005003d000000ea00e1
:10160000c09f9f005f9897000020a000d09f9f0080
:101610000904e8000f003700c09f9f000000eb00a6
:1016200005003700f2ff2700820f50000200320051
:101630006a01b9000280400009047800880478003b
:10164000b900fb000103b100e98f5000f5ff36003f
:10165000c09f9f00e0c2b300984f1000020032000c
:101660000080eb0019003700a0c2b300d84f100073
:1016700007003a00cf8897000180e900c08f9f00e3
:1016800010007800a09f9f000804e80010003700b9
:101690000000eb00a09f9f00880078000500370045
:1016a000f3ff2700830f5000020032006a02b900e6
:1016b0000400410001047800880078003101fb003b
:1016c0000203b100e90f5100f5ff3600a09f9f0013
:1016d000984478008900fb00009520009a010700db
:1016e0000000e000020032000804e80001003700ba
:1016f0008044eb00c97f9f0080c6b30080cf5400b8
:1017000004003a0098cf14000a003a0066405000e6
:1017100006003700c0c6b30080cf540005003a0071
:1017200098cf140003003a0065404000c07f9f003e
:101730000804e8001801fb00e3fb2f008f81410043
:1017400081f92f008f804000a0f92f000f0040008a
:10175000100007000000e00009003a00e1fb2f0044
:101760008f804000a0f92f000f004000f802070012
:101770000000e000020035000804e80061ff3700c7
:101780000080eb004f0578004f04be000080fa0097
:1017900000000600881f7800e4c6b300844f5100a3
:1017a000b600320010003c006b425200844f5100e2
:1017b0001800320005003c0054c2b300844f5100b1
:1017c000ee00320084c5b3000f00370044c6b300fa
:1017d000844f51001400320065424200844f510092
:1017e000e9003a001000370004c7b300844f5100ed
:1017f000d50032005300350065424200844f51004d
:101800005000320063424200844f5100de003a0033
:101810004c0037001181e90082087800f000900048
:1018200012417800d600370020629000c5c6b30090
:10183000854f520007003a009102780064825200fe
:10184000840878001402be004fabde0086037800e7
:101850001100370015c7b300854f52000300320056
:10186000a5c6b300854f520006003a0091027800e9
:1018700068825200840878005403be004402be000f
:10188000050037001182e90084087800140278000e
:10189000cfa2de00612bb9000498be000690be0006
:1018a000a060900088c6b30088cf50000d003200c1
:1018b00028c6b30088cf500004003a000402fb00a1
:1018c000cfa2de00612bb9000800370048c7b30083
:1018d00088cf5000030032006644440088cf500097
:1018e00004003a00cfa2de00612bb9000498be00cc
:1018f0000690be003002be002003be00f000900043
:10190000e00f5200e08f5a00e00f5b00e08f5b00b9
:1019100002003d00d4c2b30008003700001290005e
:101920000418a30002003200b4c2b3000300370061
:101930000408a3004c00320004c2b30084f1780014
:101940004700370020629000c5c6b300854f5200a3
:1019500006003a0091027800648252008408780000
:101960001402be006033b8001100370015c7b30081
:10197000854f520003003200a5c6b300854f5200c8
:1019800006003a00910278006882520084087800cc
:101990005403be004402be00050037001182e90076
:1019a00084087800140278008002eb006033b800ed
:1019b0000498be000690be00a060900088c6b300e8
:1019c00088cf50000d00320028c6b30088cf5000e9
:1019d00004003a000482fb008002eb006033b80090
:1019e0000800370048c7b30088cf5000030032001a
:1019f0006644440088cf500004003a008002eb00a7
:101a00006033b8000498be000690be0080109000bd
:101a10000138a300140032003002be002003be00d3
:101a2000e00f5200e08f5a00e00f5b00e08f5b0098
:101a30000d00320081c7b300814f51000300320016
:101a400081c5b300814f510007003a00f0009000bb
:101a500004c3b30084f178008100e80082f17800cb
:101a60008100e80071009800f00090008181410041
:101a700063009800824078003e003700a06190002b
:101a8000c4c6b3001181e90084cf510022003200a6
:101a90000a003c006442520084cf5100250032000d
:101aa00004c2e80084cf51001300320068425200a3
:101ab00084cf51001e003a000a00370044c7b3002b
:101ac00084cf51001b0032006642420084cf510097
:101ad000180032006942520084cf510014003a00cd
:101ae0000500370082087800920078004058900086
:101af000804878002c003700820878009200780037
:101b0000600a9000cfa2de00612bb9008498be006d
:101b10008690be002400370082087800920078008a
:101b200060099000cf91de008288be001e00370061
:101b30001181e90082087800920078006008900026
:101b400080087800180037001181e90082087800c9
:101b500012027800cfa2de00612bb9000498be000b
:101b60000690be00f0009000818141006300980063
:101b700081c7b300c70007000b003700f0009000da
:101b800082f1780006003700f0009000818141006a
:101b90000204e00001003a0052c2b300824978001a
:101ba0008100e800710098000000eb004f0478000d
:101bb00000000600889fbe008a9fbe008c9fbe006a
:101bc0008e1f78000006780001047800020078007b
:101bd000830478000881b900020778000200e00061
:101be000420032000800e000410032008205780027
:101bf000c900900069009000808f500004003900f7
:101c0000090078005c0007000000e00029003500b2
:101c100000402000190060000a0032000b0178002b
:101c2000a10020000c007800360007008006780034
:101c30000d00e00006003200610516000a8546002e
:101c4000040037000b0578008006eb000100370028
:101c50000b05780049009000e9009000808050005a
:101c60008a8f500002003100010578008006eb00e9
:101c70000a0178008c0078002c0007008a85550046
:101c8000490090000a004000c00498000d00e000e8
:101c90000400320009007800ce0207000000e000d6
:101ca00004003a000b00e000020032000a06460081
:101cb000cfff3700008020001900600002003200d2
:101cc00009007800c302070000c02000190060006e
:101cd0000200320049009000e00498008b05570094
:101ce000110009008885d800010037000000eb00d2
:101cf0004f0778004f06be004f05be004f04be00e0
:101d00000000060003003700b0cf100005003200cd
:101d10000201e900800178000200e000faff3a00c9
:101d20000000050003007800000006008001780034
:101d300002003700b15978000201e9000200e0001a
:101d4000fcff3a0000000600020037000304e00038
:101d5000060032000001780002007800b0417800ef
:101d600081cf5100f9ff3a00010037000001eb007c
:101d70000200780000000600889fbe008a1f7800dd
:101d800000047800c8009000680190000000eb009b
:101d9000828f50003c003900180078002200290092
:101da00002016000e20f5100070032000120240010
:101db0000000e00001003d0001202000008c7000c8
:101dc0000080eb00300037000200260002006000b7
:101dd000820f500009003a0038009000808f5000b8
:101de00006003900080078007a02070080007800b9
:101df0000080eb000100e00023003a0018057800a5
:101e000000c020000000650018003a00a8049000ff
:101e10006002200008004000808f540013003a0048
:101e20000020200016030700200498000000e000b6
:101e300005003a0029049800490498008904e80044
:101e400039049800080037000a60a0000a0c7800e6
:101e50004004980001202000808040003104980058
:101e6000400c9800500c9800f901070028009000e1
:101e7000500498003800900060049800000026008c
:101e8000180c70000000eb004f0578004f04be00f6
:101e900000000600fc874700889fbe008a9fbe00a6
:101ea0008c9fbe008e1f78000006780080c5b300ae
:101eb00080cf50000a0032007740400080cf5000b1
:101ec0000a0032006940400080cf50000b00320011
:101ed000f093200080bf9f00ae0020000a00370072
:101ee000e292200082bf9f0006003700f39320009b
:101ef00083bf9f008e00200003003700f493200072
:101f000084bf9f000e0120003c02be002c03be00d7
:101f10000605be000404be0040c6b30080cf5000da
:101f2000030032006540400080cf50000b003a00b3
:101f3000e00f5200e08f5a00e00f5b00e08f5b0083
:101f400006003d006000b8006011b80004045000b5
:101f5000858458000605590087855900e80f570009
:101f60000400320040002000f00f570038003a0013
:101f70000100370030002000e00f5400e08f5c00cb
:101f8000e00f5d00e08f5d0004003a00dc08900087
:101f90008d0120000100e000060032008e00e90003
:101fa000888060008fba9700e5c07800f1ef9f004d
:101fb0007d012000800078008100e90005003300e9
:101fc0008b05d1000a85d3008984d3000884d3000f
:101fd000f9ff3700089ebe000a96be0012003700c7
:101fe0008d06e9008e00e900848060000fb997003b
:101ff000e2c1780082fd2f000f01410003f17e0055
:10200000800078008100e900050033008783d1005b
:102010000683d3008582d3000482d300f9ff370002
:10202000049ebe000696be003c02be002c03be000d
:10203000e00f5200e08f5a00e00f5b00e08f5b0082
:102040008b0034000d00e000e5ff3c008800370005
:102050002c60900081c6b300814f50000b0032000d
:1020600006003c000004e00008003200e6c050001a
:10207000814f50004e003a0004003700c1c6b30043
:10208000814f50004a003a00210037000800e0006c
:1020900004003a005c0890008d0120000000e00080
:1020a00006003200110009000e84d8000fb9970015
:1020b000e2c07800f1ef9f007d01200011000900cf
:1020c0000e84d8000a003700110009000e04d80061
:1020d0008d06e9000e81b900020454008fb8970004
:1020e00061417c0081fd2f008f80400082f07e00e6
:1020f000000478000800e000020032000d00e0005b
:10210000f1ff3c00cfc4de00614db900250037006f
:10211000e00f5400e08f5c0004003a005c0890007f
:102120008d0120000000e000070032006171b9005d
:102130000800be00a90207008fb99700e3417800ac
:10214000f3ef9f007d0120006171b9000800be001f
:10215000920207000b0037006171b9000800be0051
:102160007f0207008d06e90000f1b9000204540067
:102170000fba9700e4427c0084fd2f000f0242005a
:1021800005f27e000004be00e00f5000e08f580012
:10219000020032000d00e000efff3c004fcdde00fa
:1021a0008a057800089ebe000a96be0030003700ff
:1021b000e00f5400e08f5c00e00f5d00e08f5d00f9
:1021c00004003a005c0890008d0120000000e0004f
:1021d000090032006172b900612bb9000800be002d
:1021e0000a01be00260307000fba97006442780078
:1021f000f4ef9f007d0120006172b900612bb900ee
:102200000800be000a01be00160307000d003700db
:102210006172b900612bb9000800be000a01be005e
:102220001b0307008d06e90000f2b9000404540006
:102230008fba970065427c0085fd2f008f82420097
:1022400084f27e00009ebe000296be003c04be00ea
:102250002c05be00e00f5400e08f5c00e00f5d0035
:10226000e08f5d00020034000d00e000e8ff3c005c
:10227000e80f570010003a000c1090000038a3003f
:102280000d003200f78f560006003e0085fd2f003e
:102290008f824200e5c07e0000c3b30080cf5000b3
:1022a000050032008d06e90002c3b30081fd2f0056
:1022b0008f80400082f07e0078811600120e980018
:1022c0006c00900083fd2f008f8141008d804100c4
:1022d00096fe07001c089000dc089000810f50005b
:1022e00006003d0000805000000e98000c10900089
:1022f0000040a100001698000f0037000100e00028
:102300000d003d008c109000f4806000f08f5000b4
:1023100009003a007c099000fc0090008100510007
:102320000c09900082805000008050004240a900bb
:1023300001003400000e98004f0778004f06be00e1
:102340004f05be004f04be00cf01b10000000600e3
:102350000400fa00889fbe008a9fbe008c1f780090
:102360000004780001067800f80d900078009000d5
:102370008085550008089000808555001808900059
:102380008085550028089000808555003808900009
:102390008085550048089000808555000002220085
:1023a00090bf9f0000032300a0bf9f000810900073
:1023b0000028a30015003a000b00e00013003400d1
:1023c0000b0578008a047800e20f55000100360002
:1023d00029002000c801900009017800ee80570014
:1023e0005800900003000100500498000000e00035
:1023f0008c0032006808900009004000600c9800d2
:10240000090555004240a900eeff3c00780190000c
:102410000200e0000c003400c80190008c0078003d
:102420005800900003000100500498008080eb00e9
:102430000000e0007c003200e80890007800900086
:1024400000804000600c9800880c90000900e000bb
:102450001100340009057800e28f540001003600b5
:102460002a002000c80190000a017800ec80570083
:102470005800900003000100500498000000e000a4
:1024800068003200680890000a004000600c980064
:102490008a845400edff3700180990000200e00024
:1024a0000c003400c8019000e80090005800900033
:1024b00003000100500498008080eb000000e00061
:1024c00059003200e8089000180890000080400091
:1024d000600c9800a80c90000900e0001100340086
:1024e00009057800e28f5400010036002a00200020
:1024f000c80190000a017800ec8057005800900055
:1025000003000100500498000000e0004500320084
:10251000680890000a004000600c98008a8454000b
:10252000edff3700380990000200e0000e00340093
:10253000e80090001808900080804000c8019000da
:102540005800900003000100500498008080eb00c8
:102550000000e00034003200e808900038089000e5
:1025600000804000600c9800c80c90000900e0005a
:102570001100340009057800e28f54000100360094
:102580002a002000c80190000a017800ec80570062
:102590005800900003000100500498000000e00083
:1025a00020003200680890000a004000600c98008b
:1025b0008a845400edff3700081090008000eb0083
:1025c0000028a300180032000b00e00016003400c1
:1025d0008b04780009057800e28f54000100360072
:1025e0002a002000c80190000a017800ee80570000
:1025f0005800900003000100500498000000e00023
:1026000008003200680890000a004000600c980042
:102610008a8454004240a900eeff3c008000eb0099
:10262000010037008080eb00010078004f06780041
:102630004f05be004f04be000080fa0000000600f7
:102640000108780000000600a03c21009b00370034
:10265000881f7800e89620001804e00003003a0084
:10266000f9ff070020c0b300004c78004f04780049
:1026700000000600889fbe00000478000800780073
:102680005400070080047800000420001800600057
:102690000200320028009000940007000000eb00c8
:1026a00020049800384090000004e0000500350048
:1026b0000000fb00f7f807000000e0000100320016
:1026c0008084eb00181090000000e0000800320049
:1026d000f9f807000000e000010032008084eb0000
:1026e00018109000810007000000eb001014980003
:1026f0000008200018006000150032000001eb0007
:102700006000b800e39120000202d00063027a006a
:10271000880f520005003a00000040008180480008
:10272000008041000008eb00060037006100400017
:10273000e08048000201e800e80f5000e08f5800f8
:10274000f0ff3a0008007800680007000e0037002c
:10275000000c780000c0eb003044980060022000bc
:10276000080040002004980040049800500498009d
:10277000400c980060049800500c98007004980079
:1027800076004400000c9800090078004f04be0059
:1027900000000600881f78000004eb006140b800cc
:1027a000e2ff2f00f3ff2f000f010700c29220006d
:1027b000620078000000e00001003200adff070079
:1027c0000804e800e80f5400f4ff3a004f047800d2
:1027d00000000600889fbe00000478000800e000aa
:1027e0000e003a008004eb008800d000e091200049
:1027f000610078000000e00004003200f5ff0700ef
:102800000000e00001003d008084eb000804e800c7
:10281000e80f5400f4ff3a002500370000002200c2
:10282000180060008004eb0021003200a804900032
:102830000f00370009015100384090000000fb00f4
:1028400089007800c6f807000000e00007003c009f
:10285000280090004004980060049800500c9800f4
:102860001890a0008084eb001100370080844400a1
:1028700048019000828f5400eeff3900280090003c
:10288000400498009800780002c020000281600097
:1028900001003a003800900001e8a3000200320075
:1028a0006004980001003700500c98008004eb0091
:1028b000090078004f04be0000000600010020005f
:1028c0000100e00008003200010080000100e0008b
:1028d000050032008100e900010088008100d0007d
:1028e0000200800000b17800000006000000e00057
:1028f0002f003200c0017800e38f51002c00360019
:102900000308a3002a003a00614b80000100e000a8
:1029100002003200810f50000400310011009800c5
:10292000604b88001600370082007800110190008b
:102930000200e00002003200800f5100faff39006f
:102940001102780084824000850f50001800390081
:10295000808f520003003a00830842000100780093
:10296000070037000200e00003003200830140004e
:10297000830f51000e00390012009800900098005b
:10298000900090000100e0000900320010014000ba
:10299000828f500006003a00a29620000009eb004a
:1029a000100178001108410091009000110098007a
:1029b00000000600889fbe0000047800514b800094
:1029c0000100e00002003200010078000d00370035
:1029d000614b8000c096200004003700910f540026
:1029e000250036000180e800910090000100e00021
:1029f000faff3a0010003700920f54001e00360014
:102a00000280e800100178000200e000faff3a00be
:102a100011017800614b8000c0962000040037004f
:102a2000910f5400140036000180e80091009000de
:102a3000828f5000faff3a00894b8000888f540043
:102a40000100310088047800090078003600070092
:102a50000000e00004003a00888f540005003200b6
:102a60008904d100f5ff3700091878009fff07009f
:102a7000d2ff37000000eb004f04be00000006004c
:102a8000881f7800630440000800a1008000eb006c
:102a9000800f540021003600e30f540001003e0077
:102aa0004800200008007800c2ff07008000eb000b
:102ab0000000e000190032009000780091017800d9
:102ac00064815100880f5100030031001101900012
:102ad00002087800070037000881400002087800eb
:102ae0009101900013019800100178001109140061
:102af00088087800100178000000eb000200e00078
:102b000004003200920190000300e0000100320056
:102b10000280e800504b88008180e80001007800c6
:102b20004f04780000000600800078000000eb00f1
:102b30000100e0000500340001007800e7f707001d
:102b4000e10f400001003a000000eb000000060029
:102b500000c0da000000060000c0da000000060035
:102b6000839f68000100e00002003d00600010004b
:102b7000e08018000300e00002003d006001110049
:102b8000e0811900050007004f00e00002003b0053
:102b900060001000e0801800000006006022b8000d
:102ba000060220000000d0008180d2000482d20002
:102bb0008582d2000000a0000202520083825a00e7
:102bc000030031000202420083824a000000a1009b
:102bd0000603e900f3ff3a0000000600efff0700dc
:102be0000400be0000000600020ab900001bb90084
:102bf0000200b8008100420081004300000006008e
:102c0000889fbe008a9fbe0030044200b0844a0004
:102c100030054b0090854b006000b1000898be0065
:102c20000a90be000440e10005c8e10006d0e100c2
:102c300007d8e10002003100680040001008e800f9
:102c40004f05be004f04be0000000600889fbe0076
:102c50008a9fbe003004be002005be000418540048
:102c600005985c0006185d0007985d0011002000c3
:102c70000440e10005c8e10006d0e10007d8e1000a
:102c8000010039008000eb00108810004f05be00e5
:102c90004f04be00000006001200fa00889fbe002c
:102ca0008a9fbe008c9fbe00e0b79f00f1b79f00d7
:102cb00082bf9f0093bf9f000605be000404be00b4
:102cc0000000eb00d0b79f00c0b79f00b0b79f00d7
:102cd000a0b79f0090b79f000006eb005fb1970080
:102ce000cfb09700820141003fb097000200e000a2
:102cf00004003d00370007007e805700c0ff07003a
:102d000003003700330007007e805700cfff070025
:102d1000dfb697000d00e0000c0035006fb29700a1
:102d2000ffb297000fbb97009fbb970010002000d9
:102d3000010020006011b800000272008182720060
:102d400002037300838373001b0007000c06e80076
:102d500001042000810f5600e0ff3a000d00e00062
:102d600004003d000802be000a03be007e8057003a
:102d7000a3ff07005fa897000000e00005003a00ed
:102d80001fb29700afb297003fb39700cfb3970041
:102d9000090007006fb09700ffb097000fb99700c8
:102da0009fb997004f06be004f05be004f04be00fe
:102db0000080fa0000000600010007000000060085
:102dc000a4b79f00b5b79f00c6b79f00d7b79f00b5
:102dd000000006004f09de0082817100b3b79f003a
:102de0004f01de008180400082807000a1b79f000b
:102df0008fb097004f09de00000040000200700015
:102e000090b79f007fa897004f01de0081804000af
:102e10008280700081b79f000d0007004f3ade00ee
:102e20000000400004007000f0af9f0008000700a1
:102e30000402420085824a0006034b0087834b0050
:102e4000dfff07000802be000a03be000000060004
:102e50002fb29700bfb297004fb39700dfb3970030
:102e600000000600881f780018002000881f7800e6
:102e700089ff07008f87e9004f04780000000600f3
:102e8000801feb0084ff07008f87e9000000060029
:102e9000889fbe008a9fbe00e00f5000e08f580060
:102ea000e00f5900e08f59000c003d006044b8006d
:102eb0006055b8000000540081805c0002015d0094
:102ec00083815d00180020001500070008003d0008
:102ed000180007000004eb00050037000004eb00b9
:102ee0000f00070002003d0012000700180020003c
:102ef000dcff07000800e000060032006022b80096
:102f00006033b8000000520081805a0002015b006b
:102f100083815b004f05be004f04be000000060029
:102f2000e00f5200e08f5a00e00f5b00e08f5b0083
:102f3000000006006044b8006055b8000402540068
:102f400085825c0006035d0087835d00000006004b
:102f5000889fbe008a9fbe008c1f7800e00f500043
:102f6000e08f5800e00f5900e08f59000d003d0040
:102f70006044b8006055b8000000540081805c00d7
:102f800002015d0083815d001c0020000820e1003b
:102f900009a8e1000ab0e1000bb8e1000d003d0016
:102fa000080037000006eb00e00f5200e08f5a00e7
:102fb000e00f5b00e08f5b0006003d006044b8005e
:102fc0006055b8000402540085825c0006035d0071
:102fd00087835d00aaff07000c00e00006003200b6
:102fe0006022b8006033b8000000520081805a00af
:102ff00002015b0083815b004f0678004f05be0035
:083000004f04be0000000600b1
:020000040000fa
:103008004163000074750000616c000020690000d5
:10301800733a000020250000752000006465000058
:103028007369000072650000642000006973000085
:103038003a2000002575000020650000727200002b
:103048006f72000020690000733a0000202500001c
:103058006420000064650000726900007661000069
:10306800746900007665000020690000733a00006a
:1030780020250000642000006f75000074700000b7
:103088007574000020690000733a000020250000d4
:0c309800640d00000a000000f4010000bc
:020000040000fa
:1030a400620800000200000002000000ffff0000b0
:1030b4000008000020000000000000006408000078
:1030c40002000000000000003c08000006000000b0
:1030d40000000000340800000800000000000000a8
:1030e40066080000020000000000000068080000fc
:1030f40002000000000000006a0800000200000056
:10310400000000006c080000020000000000000045
:10311400420800000600000000000000480800000b
:1031240006000000000000006e080000020000001d
:103134000000000070080000020000000000000011
:103144007208000002000000000000007408000083
:1031540002000000000000007608000002000000e9
:1031640000000000780800000200000000000000d9
:103174007a08000002000000000000007c08000043
:1031840002000000000000002008000014000000fd
:10319400000000007e0800000200000002000000a1
:1031a4000100000080080000020000000000000090
:1031b4008208000002000000020000003901000043
:1031c40084080000020000000000000086080000df
:1031d4000200000000000000880800000200000057
:1031e400000000008a080000020000000000000047
:1031f4008c08000002000000000000008e0800009f
:10320400020000000000000090080000020000001e
:10321400000000009208000002000000000000000e
:10322400940800000200000000000000960800005e
:1032340002000000000000004e080000040000002e
:10324400020000009a9919003e0000005208000094
:10325400040000000200000017b75100390000000c
:1032640056080000040000000200000000000000f6
:103274004000000098080000020000000000000068
:103284009a08000002000000000000009c080000f2
:1032940002000000000000009e0800000200000080
:1032a40000000000a0080000020000000000000070
:1032b400a208000002000000000000005a080000fc
:1032c40004000000000000005e080000040000008c
:1032d40000000000a408000002000000000000003c
:1032e400500900001a00000002000000686a6c0027
:1032f400747a4c0000000100000200000400080081
:1033040000100000000020002b2d230030000000de
:10331400a608000088000000020000000100000070
:1033240000cc0800cd08cc0008cc0800cc08cc00a8
:1033340008bc0800000000000000000000000000bd
:103344000000000000000000000000000000000079
:10335400000208000101f40008f50800f408f40074
:1033640008f40800f408e40008000000000000006d
:103374000000000000000000000000000000000049
:103384000000000000000200080202001c091d00e9
:10339400091c09001c091c00091c09000c09000077
:1033a4000000000000000000000000000000000019
:1033b400000000000000000000000000a608ce008d
:1033c40008f60800000000000000000000000000f3
:1033d400000000002e09000022000000020000008e
:1033e4003031320033343500363738003941420049
:1033f4004344450046003000313233003435360052
:1034040037383900616263006465660000000000bb
:103414006e090000020000000000000070090000b6
:103424000200000002000000040000006a0900001d
:103434000400000000000000720900000200000007
:08344400000000000000000080
:020000040000fa
:10344c000000fa00889fbe00000880004400dd00e8
:10345c0040448800404480007044880051448000ff
:10346c006044800010007800008050008044880088
:10347c0081448000f07c2000808f500004003400d8
:10348c008144800020062f0000804000804488008a
:10349c008144800010832f00808f500004003d0079
:1034ac0081448000e0f920000080400080448800c6
:1034bc0081448000704480000088b900800078004e
:1034cc00a044800000804000a0448800814480001b
:1034dc009044800080805000803e20000088b9001d
:1034ec008000780070448000000178001100090011
:1034fc008200d800b044880080448000cf80de0079
:10350c0035f607000002be00704280008142800048
:10351c000001be000400be0087f607000004be00d8
:10352c00a0448000cf80de002bf607000002be0016
:10353c0090428000a14280000001be000400be0049
:10354c007df607000001be000800be00a4f50700d0
:10355c000004be00b0448000cf80de001ef60700e1
:10356c000002be00b0428000c14280000001be00db
:10357c000400be0070f607000001be000800be008b
:10358c0097f50700f3f5070000007800c0448800a9
:10359c008044800090448800c4448000b344800080
:1035ac008244800051448000604480001000780008
:1035bc00841f7800831f7800821f7800811f780099
:1035cc00801f780040802900801f7800b4f7070026
:1035dc00ec875700c04480000c0207004f04be006b
:0835ec000080fa000000060057
:020000040000fa
:1035f4001000fa00204f980061079800624f98006d
:103604001000200030079800ee0090002107980079
:10361400ae489000014f98000000eb00000f7800c6
:103624000000eb00100798001b003700e60047007d
:1036340068004700810178002206200011c0b30011
:1036440082020700090037009e00900080382100a4
:10365400808f500002003a000040eb004500370024
:103664001e0090000000e800100798003e00900043
:10367400e10f5000f4ff32003e009000e20f5000d2
:1036840009003200803821009e007800808f5000ad
:10369400070032001e0fe8003e0090000000e0002a
:1036a400e2ff3a0003003700000000000100370089
:1036b400000000003e009000e20f500027003a0096
:1036c4000000eb00000f78000000eb0010079800ea
:1036d4001b003700660047008001780022062000a6
:1036e400ee4890002e009000710207000900370098
:1036f4009e00900080382100808f500002003a0024
:103704000040eb001b0037001e0090000000e800a2
:10371400100798003e009000e10f5000f4ff3200c3
:103724003e009000e20f50000900320000712200b8
:103734009e007800808f5000070032001e0fe800c2
:103744003e0090000000e000e2ff3a000300370072
:103754000000000001003700000000003e0090005f
:103764000000e00002003a000040eb0001003700d6
:0c37740010c0b3000080fa000000060046
:020000040000fa
:103780000600fa00004f7800110798002207980001
:103790004083200020009000610060000000e000f5
:1037a0002e003a002e009000110020000108780041
:1037b00040832000100078009e00900011009800c7
:1037c00040832000100078001e48780040832000cd
:1037d00010007800ae009000210098004083200087
:1037e00010007800e60040004083200001087800c7
:1037f000408320009000780020842000808f5000bb
:1038000003003a0040832000c183200001087800b3
:1038100040832000a00090000110a100210098002a
:10382000408320009000900040832000100078002a
:10383000808f500004003a0040832000a0009000d8
:103840000100a00021009800304380000000e0004b
:1038500005003a008a20a800030037002e009000df
:103860008000eb00010878000080fa0000000600ec
:020000040000fa
:103870000a00fa0030c0b300004f780041882000f1
:103880009140780040c6b30080cf500004003a0059
:1038900040c0b300004f78008468ef000300370099
:1038a00084c8bf000040e80084e8b7009e4078006c
:1038b0000040eb009d000700104798001e4090005c
:1038c0000004e00003003a002b0207000000eb00b8
:1038d000210037006600470012c0b3008000780066
:1038e00010c0b30043ff0700104798001e4090002f
:1038f0000004e00002003a000000eb001600370070
:103900006e409000614060002047980066004700cc
:1039100022c0b30080007800f0c8b30035ff070074
:10392000104798001e4090000004e00002003a009a
:103930000000eb00080037006e4090000080fb00a4
:10394000c800dd007e4090000080fb000080400049
:10395000200798002e0090000080fa00000006006a
:020000040000fa
:103960000800fa00881f7800100798004147980067
:10397000320798000000eb00000f78001e00900056
:103980000000e0001d0032003e0090000000e0005a
:1039900014003200080037003e0090001e04400072
:1039a0001e0090001e0040001040780076020700c4
:1039b000004c78001e0fe8004e4090000080fb0095
:1039c0009e0f5000f4ff3e001a0037001e009000ca
:1039d0001e004000104078006b0207001e0fe80038
:1039e00001003700000000004e4090000080fb0006
:1039f0009e0f5000f5ff3e000e0037003e00900085
:103a00000000e0000b003200060037003e0090008e
:103a10001e0440000040eb005b020700004c7800f1
:103a20001e0fe8004e4090000080fb009e0f5000eb
:103a3000f6ff3e001e007800004078004f0478003a
:083a40000080fa0000000600fe
:020000040000fa
:103a48000000fa00889fbe00000880008000eb009c
:103a5800e5f40700d27b23006378230037f50700dd
:103a68000002be00f0428000014380000001be0059
:103a78000400be005bf40700f042880001438800a0
:103a880000458000cf80de00d4f407000004be00ab
:103a9800d0428000e142800002fd2000930c240007
:103aa80026f507000002be00f042800001438000b6
:103ab8000001be000400be0020f5070053f5070012
:103ac8000001be000800be001cf507000004be008f
:103ad800f0448000cf80de00c0f407000001be0083
:103ae8000800be003ff407009bf4070000007800c0
:103af80010458800104580000000e00004003d00eb
:103b080011458000e0f92000008040001045880041
:103b1800104580006d0307004f04be000080fa00c6
:043b28000000060093
:020000040000fa
:103b2c000a00fa00004f9800114f98001000200076
:103b3c00200798008e489000614798009e4890009e
:103b4c00714798000000eb00000f78000000eb00bc
:103b5c00100798001d003700e4004700660047007e
:103b6c00810178002206200021c0b3003501070036
:103b7c00090037009e00900080382100808f500093
:103b8c0002003a000040eb001b0037001e009000c2
:103b9c000000e800100798002e009000e10f500084
:103bac00f4ff32002e009000e20f50000b003200a8
:103bbc00803821009e007800808f500002003a006f
:103bcc000040eb000c0037001e0fe8002e009000a8
:103bdc000000e000e0ff3a000100370000000000a8
:103bec002e0090000000e00002003a000040eb00c4
:103bfc000100370010c0b3000080fa00000006007e
:020000040000fa
:103c0c000800fa00000f78001107980022079800ae
:103c1c00330798001e007800d04488001e009000e6
:103c2c00e04488002e019000be019000d242880032
:103c3c00e3428800d1448000e0448000808f500033
:103c4c000d003400d1448000e0448000808050009e
:103c5c002000200080017800110009008300d800aa
:103c6c0000458800d1448000004580000080500051
:103c7c00f044880015003700d1448000e0448000f7
:103c8c00808f50000f003d00e0448000e1f92000df
:103c9c0080805000d04480008080400020002000b4
:103cac0000017800110009008200d800004588004e
:103cbc00d14480000045800000805000f044880012
:103ccc0002003700d0448000f04488000080fa00e5
:043cdc0000000600de
:020000040000fa
:103ce0000000fa007cc8bf008000fb00200020001c
:103cf00000017800110009008200d800004078001f
:103d00000000fb00440007007ec8bf000004e00084
:103d1000040032007cc8bf000040e8007ce8b70027
:103d2000030037007cc8bf000040e9007ce8b70012
:103d3000c18720009140780030c6b30080cf50008a
:103d4000040034007ec8bf000004e000010032001f
:103d50007e68ef00c187200091407800d0c9b30091
:103d600080cf500006003d007ec8bf000004a200c6
:103d70000004e0000200320010c0b3007ee8b7008b
:103d80007ac8bf000040e8007ae8b7000080fa0077
:043d90000000060029
:020000040000fa
:103d94000400fa00100798000040eb00004f780080
:103da4001e009000104078008040780020c0b300ce
:103db4005dff07001e4f40001e0090001040900061
:103dc4008040780040c0b30057ff07000040400027
:103dd4001e4f40001e00900020409000804078005c
:103de400c0c1b30050ff0700210020000100dd0026
:103df4001e4f40001e407800e74f500002003a007a
:103e040010c0b300010037000040eb000080fa004e
:043e140000000600a4
:020000040000fa
:103e18000400fa00100798009e00900031448800c2
:103e28003144800040062000808f5000020034009a
:103e3800400620003044880031448000c0f92f003b
:103e4800808f500002003d00c0f92f0030448800e8
:103e5800304480000000e00002003d00ccc2a80011
:103e680001003700ccc2a90030448000f7010700e8
:103e7800000f78009e0078000000eb002402070085
:083e88000080fa0000000600b2
:020000040000fa
:103e90000400fa00cd82a90000c6b3003a01070071
:103ea0000040eb00380107000040eb00360107003e
:103eb0000040eb0034010700204798000040eb0071
:103ec0003101070030479800cd82a8002e409000b5
:103ed0000080fb00c800dd003e4090000080fb0039
:103ee000008f70001e0078000000e00002003d001e
:103ef000f0f920001e0f40001e0078000080fa003c
:043f000000000600b7
:020000040000fa
:103f04000000fa00c422ef00cc22ef00000c2000d5
:103f1400a0168800f0fb200000168800f06724003b
:103f24004016880070372000801688005620ef0065
:103f34005820ef005a20ef006e20ef007020ef00b1
:103f44007220ef00c622ef00ce22ef00d622ef004f
:103f5400f001200000278800002724001027880093
:103f640070002000202788000080fa00000006006e
:020000040000fa
:103f74000000fa0040832000c18320001100980053
:103f840040832000c1832000010878004083200082
:103f9400a00090000110a0002100980040832000a0
:103fa400a00090000100a10021009800408320009f
:103fb4008040eb00614098001822ef00800220004e
:103fc400901088001622ef0090012000d010880085
:103fd4008a20a9009a20a8000080fa0000000600a8
:020000040000fa
:103fe4000000fa0050002800000a88004221ef0077
:103ff4004421ef0000302000300a88004821ef00ff
:104004004a21ef004c21ef005021ef005221ef0034
:10401400803e2000a00a88005621ef005821ef00be
:10402400401f2000e00a88006021ef006221ef00b9
:10403400000a8000004078006f4060000080fb00b0
:0c404400204388000080fa000000060005
:020000040000fa
:104050000800fa00000f7800214798002207980016
:10406000330798004083200020009000610060002a
:104070000000e0000a003a00ae0190002e419000de
:104080009e00780080842000500007003e019000d0
:104090008184200010c0b300b9fd07000300370081
:1040a0003e0090008000eb00010878000080fa00dc
:0440b0000000060006
:020000040000fa
:1040b4000800fa00000f78002147980022079800b2
:1040c40033079800408320002000900061006000c6
:1040d4000000e0000a003a00ae0190002e4190007a
:1040e4009e007800208420000a0007003e01900012
:1040f4002184200010c0b300a0fd07000300370096
:104104003e0090008000eb00010878000080fa0077
:0441140000000600a1
:020000040000fa
:104118000800fa00000f780011079800424798003d
:10412800330798003e0090000000400080007800af
:104138001e007800010878001e0078001000780042
:10414800800078000100a0001e00780001087800b7
:104158001e007800ce409000214098001e00780094
:104168009e009000210098000080fa0000000600e0
:020000040000fa
:104178000400fa000000eb0025ff0700cca2a9000c
:1041880000502300c100200062000700cca2a80054
:1041980000202100a10720005e00070000c8b3002e
:1041a800004f780080c0b300104798000040eb0033
:1041b800204798000e007800f4fe07000080fa00ff
:0441c80000000600ed
:020000040000fa
:1041cc000800fa00000f7800110798004247980089
:1041dc00330798003e0090000000400080007800fb
:1041ec001e007800010878001e007800ce40900078
:1041fc00214098001e0078009e009000210098003d
:08420c000080fa00000006002a
:020000040000fa
:104214000000fa00c8c2a900d062a900c122a90006
:10422400d042a900d022a900c982a900c8a2a9002d
:10423400cd82a800cca2a800c522a900d462a900fe
:104244004f010700cbff0700b6010700ef0107008d
:084254000080fa0000000600e2
:020000040000fa
:10425c000000fa0050438000660040005043880084
:10426c0068c8bf000040e90068e8b70068c8bf0034
:10427c000004e00003003a004000200030438800b6
:10428c000200370010002000304388000080fa0044
:04429c000000060018
:020000040000fa
:1042a0000000fa00b4000700daff0700d462a8009b
:1042b000c522a800008820008001070040062000d9
:1042c000840107000200200003f02300017d20008c
:1042d00080bb20004dfe070072010700feff370083
:020000040000fa
:1042e0000000fa0000000000101180006100600072
:1042f0000000e000fcff320010118000620060004e
:104300000000e000010032002222a90030118000ec
:0c431000004078000080fa000000060069
:020000040000fa
:10431c00f03fb1000180b10006003500ee0309004a
:10432c0000000000403fb1000180b100fbff3d00e8
:10433c001000b000203fb0000200350000800900e2
:08434c00000000000000060063
:020000040000fa
:104354000000fa000001eb00600420007105200059
:1043640023742000804978008149780082497800cc
:104374004427ef004827ef004e27ef000080fa00a3
:04438400000006002f
:020000040000fa
:104388000200fa00004f78001e80fb000010880031
:104398000000000040108000610060000000e000a4
:1043a800fcff320000108000004078000080fa0016
:0443b80000000600fb
:020000040000fa
:1043bc000200fa00000f78001442a800604380004d
:1043cc00200090000000e0000300320060438000f9
:1043dc00200090001e0878006628ef000080fa008c
:0443ec0000000600c7
:020000040000fa
:1043f0000000fa0040832000200090000000d1005f
:10440000614060000080fb0000f0a7000000ea00af
:104410000000ea004f00de00004078000080fa0053
:044420000000060092
:020000040000fa
:104424000000fa0020048000680060000000e00042
:104434000600320077c8bf000040e80077e8b70004
:1044440010c0b30076e8b7008460a9000080fa00c9
:04445400000006005e
:020000040000fa
:104458000000fa00200480000000d10061406000e4
:104468000080fb0000f0a7000000ea000000ea005e
:104478004f00de00004078000080fa0000000600cf
:020000040000fa
:104488000000fa00600a80004700de00614060001a
:104498000080fb0000f0a7000000ea000000ea002e
:1044a8004f00de00004078000080fa00000006009f
:020000040000fa
:1044b8000000fa00600a80004300de0061406000ee
:1044c8000080fb0000f0a7000000ea000000ea00fe
:1044d8004f00de00004078000080fa00000006006f
:020000040000fa
:1044e8000200fa00004f780000000000111180005f
:1044f80000202000008060000000e000fbff3a0080
:104508001e80fb00201188000080fa0000000600d1
:020000040000fa
:104518000000fa000004200040108800100220006b
:10452800101088000422ef000622ef000c22ef0092
:1045380010002000501088000080fa0000000600db
:020000040000fa
:104548000000fa00408320002000900061406000d5
:104558000080fb0000f0a7000000ea000000ea006d
:104568004f00de00004078000080fa0000000600de
:020000040000fa
:104578000000fa0061fe07002701070073ff07002b
:104588007afe07003c000700e1ff07007200070001
:0c45980092fe07000080fa000000060000
:020000040000fa
:1045a4000000fa0011108000000820000080600064
:1045b40000f0a7000000ea000000e9004f00de0060
:0c45c400004078000080fa0000000600b3
:020000040000fa
:1045d0000000fa001110800000042000008060003c
:1045e00000f0a7000000ea000000e9004f00de0034
:0c45f000004078000080fa000000060087
:020000040000fa
:1045fc000200fa006187200091407800014f78009a
:10460c001e4078000004e000010032007668ef00e4
:0c461c001e4078000080fa00000006003c
:020000040000fa
:104628000000fa000108800010448000808f5000cc
:10463800040039008460a90001fd070081fb070020
:0c4648000021ef000080fa0000000600d6
:020000040000fa
:104654000400fa00100798001e00900000f0a70064
:104664000000ea00000f78001e0078006a00b9001c
:0c467400000078000080fa000000060042
:020000040000fa
:104680000000fa0080002000001188002222ef00c4
:10469000000120004011880021e2a8002342a80068
:0846a0000080fa000000060092
:020000040000fa
:1046a8000000fa00401080006100600000f0a700e0
:1046b8000000ea000000e9004f00de00004078003a
:0846c8000080fa00000006006a
:020000040000fa
:1046d0000000fa0021048000000820000080600033
:1046e0000000e0000100320084e0a9000080fa0030
:0446f00000000600c0
:020000040000fa
:1046f4000400fa00000f7800110798009e0078006b
:10470400c10a88009e009000e10a88000080fa0037
:04471400000006009b
:020000040000fa
:104718000400fa00000f7800110798009e00780046
:10472800c10a88009e009000e10a88000080fa0013
:044738000000060077
:020000040000fa
:10473c000400fa00000f7800110798009e00780022
:10474c00c10a88009e009000e10a88000080fa00ef
:04475c000000060053
:020000040000fa
:104760000000fa000021ef000080eb001008880034
:1047700000032800200888007668ef000080fa0017
:04478000000006002f
:020000040000fa
:104784000000fa00cd82a90080c8b300fdfe070036
:1047940030c2b300fbfe0700cd82a8000080fa00ff
:0447a400000006000b
:020000040000fa
:1047a8000000fa0020048000620060000000e000c1
:1047b800010032008420a9000080fa0000000600f1
:020000040000fa
:1047c8000000fa0020048000680060000000e0009b
:1047d800010032008460a9000080fa000000060091
:020000040000fa
:1047e8000000fa0000802000800778008081200007
:0c47f800000188000080fa0000000600ac
:020000040000fa
:104804000200fa0040832000e0409000014f78004d
:0c4814001e4078000080fa000000060042
:020000040000fa
:104820000200fa00000f78009e007800110888004e
:0c4830007668ef000080fa00000006002f
:020000040000fa
:10483c000200fa00000f78009e0078000108880042
:0c484c007668ef000080fa000000060013
:020000040000fa
:104858000000fa008460a9000021ef009228ef0010
:0c4868009428ef000080fa000000060019
:020000040000fa
:104874000200fa00000f78009e007800c10a880048
:084884000080fa0000000600ac
:020000040000fa
:10488c000200fa00000f78009e007800c10a880030
:08489c000080fa000000060094
:020000040000fa
:1048a4000000fa0079fd0700004488005dff07005e
:0848b4000080fa00000006007c
:020000040000fa
:1048bc000200fa00000f78009e0078006144880026
:0848cc000080fa000000060064
:020000040000fa
:1048d4000200fa00000f78009e007800514488001e
:0848e4000080fa00000006004c
:020000040000fa
:1048ec000000fa007668ef0005e1a8000080fa00ed
:0448fc0000000600b2
:020000040000fa
:104900000000fa0077c8bf000080fb000080fa00ba
:04491000000006009d
:020000040000fa
:104914000200fa00d5fb0700000f78000080fa00bf
:044924000000060089
:020000040000fa
:104928000000fa003044800039fd07000080fa00da
:044938000000060075
:020000040000fa
:10493c000000fa0030448000004078000080fa004b
:04494c000000060061
:020000040000fa
:10495000000f78009e00780011438800ffff3700a9
:020000040000fa
:104960000000fa0041e1a8000080fa000000060003
:020000040000fa
:104970000000fa0041e1a9000080fa0000000600f2
:020000040000fa
:104980000000fa004cc1a8000080fa0000000600f8
:020000040000fa
:104990000000fa004ca1a9000080fa000000060007
:020000040000fa
:1049a0000000fa004c61a9000080fa000000060037
:020000040000fa
:1049b0000000fa00101180000080fa0000000600dc
:020000040000fa
:1049c0000000fa00100880000080fa0000000600d5
:020000040000fa
:1049d0000000fa00000880000080fa0000000600d5
:020000040000fa
:1049e0000000fa0005e1a9000080fa0000000600be
:020000040000fa
:1049f0000000fa007768ef000080fa00000006006f
:020000040000fa
:104a00000000fa009afb07000080fa000000060090
:020000040000fa
:104a10000000fa00b5ff07000080fa000000060061
:020000040000fa
:0c4a20000000fa000080fa000000060010
:020000040000fa
:0200000401f009
:04000000ffff0000fe
:020000040000fa
:0200000401f009
:04000800ffff0000f6
:020000040000fa
:0200000401f009
:04000c00f9ff0000f8
:020000040000fa
:0200000401f009
:040010003bff0000b2
:020000040000fa
:0200000401f009
:040014005fff00008a
:020000040000fa
:0200000401f009
:04001800bfff000026
:020000040000fa
:0200000401f009
:04001c00ffff0000e2
:00000001FF
