:020000040000fa
:080000000002040000000000f2
:020000040000fa
:040008003a050000b5
:020000040000fa
:04000c00c802000026
:020000040000fa
:04001000da02000010
:020000040000fa
:04001400d002000016
:020000040000fa
:04001800e202000000
:020000040000fa
:04001c003a050000a1
:020000040000fa
:040020003a0500009d
:020000040000fa
:040024003a05000099
:020000040000fa
:040028003a05000095
:020000040000fa
:04002c003a05000091
:020000040000fa
:040030003a0500008d
:020000040000fa
:040034003a05000089
:020000040000fa
:040038003a05000085
:020000040000fa
:04003c003a05000081
:020000040000fa
:040040003a0500007d
:020000040000fa
:040044003a05000079
:020000040000fa
:040048003a05000075
:020000040000fa
:04004c003a05000071
:020000040000fa
:040050003a0500006d
:020000040000fa
:040054003a05000069
:020000040000fa
:040058003a05000065
:020000040000fa
:04005c003a05000061
:020000040000fa
:040060003a0500005d
:020000040000fa
:040064003a05000059
:020000040000fa
:040068003a05000055
:020000040000fa
:04006c003a05000051
:020000040000fa
:040070003a0500004d
:020000040000fa
:040074003a05000049
:020000040000fa
:040078003a05000045
:020000040000fa
:04007c003a05000041
:020000040000fa
:040080003a0500003d
:020000040000fa
:040084003a05000039
:020000040000fa
:040088003a05000035
:020000040000fa
:04008c003a05000031
:020000040000fa
:040090003a0500002d
:020000040000fa
:040094003a05000029
:020000040000fa
:040098003a05000025
:020000040000fa
:04009c003a05000021
:020000040000fa
:0400a0003a0500001d
:020000040000fa
:0400a4003a05000019
:020000040000fa
:0400a8003a05000015
:020000040000fa
:0400ac003a05000011
:020000040000fa
:0400b0003a0500000d
:020000040000fa
:0400b4003a05000009
:020000040000fa
:0400b8003a05000005
:020000040000fa
:0400bc003a05000001
:020000040000fa
:0400c0003a050000fd
:020000040000fa
:0400c4003a050000f9
:020000040000fa
:0400c8003a050000f5
:020000040000fa
:0400cc003a050000f1
:020000040000fa
:0400d0003a050000ed
:020000040000fa
:0400d4003a050000e9
:020000040000fa
:0400d8003a050000e5
:020000040000fa
:0400dc003a050000e1
:020000040000fa
:0400e0003a050000dd
:020000040000fa
:0400e4003a050000d9
:020000040000fa
:0400e8003a050000d5
:020000040000fa
:0400ec00ea02000024
:020000040000fa
:0400f0003a050000cd
:020000040000fa
:0400f4003a050000c9
:020000040000fa
:0400f8003a050000c5
:020000040000fa
:0400fc003a050000c1
:020000040000fa
:040100003a050000bc
:020000040000fa
:040104003a050000b8
:020000040000fa
:040108003a050000b4
:020000040000fa
:04010c003a050000b0
:020000040000fa
:040110003a050000ac
:020000040000fa
:040114003a050000a8
:020000040000fa
:040118003a050000a4
:020000040000fa
:04011c003a050000a0
:020000040000fa
:040120003a0500009c
:020000040000fa
:040124003a05000098
:020000040000fa
:040128003a05000094
:020000040000fa
:04012c003a05000090
:020000040000fa
:040130003a0500008c
:020000040000fa
:040134003a05000088
:020000040000fa
:040138003a05000084
:020000040000fa
:04013c003a05000080
:020000040000fa
:040140003a0500007c
:020000040000fa
:040144003a05000078
:020000040000fa
:040148003a05000074
:020000040000fa
:04014c003a05000070
:020000040000fa
:040150003a0500006c
:020000040000fa
:040154003a05000068
:020000040000fa
:040158003a05000064
:020000040000fa
:04015c003a05000060
:020000040000fa
:040160003a0500005c
:020000040000fa
:040164003a05000058
:020000040000fa
:040168003a05000054
:020000040000fa
:04016c003a05000050
:020000040000fa
:040170003a0500004c
:020000040000fa
:040174003a05000048
:020000040000fa
:040178003a05000044
:020000040000fa
:04017c003a05000040
:020000040000fa
:040180003a0500003c
:020000040000fa
:040184003a05000038
:020000040000fa
:040188003a05000034
:020000040000fa
:04018c003a05000030
:020000040000fa
:040190003a0500002c
:020000040000fa
:040194003a05000028
:020000040000fa
:040198003a05000024
:020000040000fa
:04019c003a05000020
:020000040000fa
:0401a0003a0500001c
:020000040000fa
:0401a4003a05000018
:020000040000fa
:0401a8003a05000014
:020000040000fa
:0401ac003a05000010
:020000040000fa
:040208003a050000b3
:020000040000fa
:04020c003a050000af
:020000040000fa
:040210003a050000ab
:020000040000fa
:040214003a050000a7
:020000040000fa
:040218003a050000a3
:020000040000fa
:04021c003a0500009f
:020000040000fa
:040220003a0500009b
:020000040000fa
:040224003a05000097
:020000040000fa
:040228003a05000093
:020000040000fa
:04022c003a0500008f
:020000040000fa
:040230003a0500008b
:020000040000fa
:040234003a05000087
:020000040000fa
:040238003a05000083
:020000040000fa
:04023c003a0500007f
:020000040000fa
:040240003a0500007b
:020000040000fa
:040244003a05000077
:020000040000fa
:040248003a05000073
:020000040000fa
:04024c003a0500006f
:020000040000fa
:040250003a0500006b
:020000040000fa
:040254003a05000067
:020000040000fa
:040258003a05000063
:020000040000fa
:04025c003a0500005f
:020000040000fa
:040260003a0500005b
:020000040000fa
:040264003a05000057
:020000040000fa
:040268003a05000053
:020000040000fa
:04026c003a0500004f
:020000040000fa
:040270003a0500004b
:020000040000fa
:040274003a05000047
:020000040000fa
:040278003a05000043
:020000040000fa
:04027c003a0500003f
:020000040000fa
:040280003a0500003b
:020000040000fa
:040284003a05000037
:020000040000fa
:040288003a05000033
:020000040000fa
:04028c003a0500002f
:020000040000fa
:040290003a0500002b
:020000040000fa
:040294003a05000027
:020000040000fa
:040298003a05000023
:020000040000fa
:04029c003a0500001f
:020000040000fa
:0402a0003a0500001b
:020000040000fa
:0402a4003a05000017
:020000040000fa
:0402a8003a05000013
:020000040000fa
:0402ac003a0500000f
:020000040000fa
:0402b0003a0500000b
:020000040000fa
:0402b4003a05000007
:020000040000fa
:0402b8003a05000003
:020000040000fa
:0402bc003a050000ff
:020000040000fa
:0402c0003a050000fb
:020000040000fa
:0402c4003a050000f7
:020000040000fa
:0402c8003a050000f3
:020000040000fa
:0402cc003a050000ef
:020000040000fa
:0402d0003a050000eb
:020000040000fa
:0402d4003a050000e7
:020000040000fa
:0402d8003a050000e3
:020000040000fa
:0402dc003a050000df
:020000040000fa
:0402e0003a050000db
:020000040000fa
:0402e4003a050000d7
:020000040000fa
:0402e8003a050000d3
:020000040000fa
:0402ec003a050000cf
:020000040000fa
:0402f0003a050000cb
:020000040000fa
:0402f4003a050000c7
:020000040000fa
:0402f8003a050000c3
:020000040000fa
:0402fc003a050000bf
:020000040000fa
:040300003a050000ba
:020000040000fa
:040304003a050000b6
:020000040000fa
:040308003a050000b2
:020000040000fa
:04030c003a050000ae
:020000040000fa
:040310003a050000aa
:020000040000fa
:040314003a050000a6
:020000040000fa
:040318003a050000a2
:020000040000fa
:04031c003a0500009e
:020000040000fa
:040320003a0500009a
:020000040000fa
:040324003a05000096
:020000040000fa
:040328003a05000092
:020000040000fa
:04032c003a0500008e
:020000040000fa
:040330003a0500008a
:020000040000fa
:040334003a05000086
:020000040000fa
:040338003a05000082
:020000040000fa
:04033c003a0500007e
:020000040000fa
:040340003a0500007a
:020000040000fa
:040344003a05000076
:020000040000fa
:040348003a05000072
:020000040000fa
:04034c003a0500006e
:020000040000fa
:040350003a0500006a
:020000040000fa
:040354003a05000066
:020000040000fa
:040358003a05000062
:020000040000fa
:04035c003a0500005e
:020000040000fa
:040360003a0500005a
:020000040000fa
:040364003a05000056
:020000040000fa
:040368003a05000052
:020000040000fa
:04036c003a0500004e
:020000040000fa
:040370003a0500004a
:020000040000fa
:040374003a05000046
:020000040000fa
:040378003a05000042
:020000040000fa
:04037c003a0500003e
:020000040000fa
:040380003a0500003a
:020000040000fa
:040384003a05000036
:020000040000fa
:040388003a05000032
:020000040000fa
:04038c003a0500002e
:020000040000fa
:040390003a0500002a
:020000040000fa
:040394003a05000026
:020000040000fa
:040398003a05000022
:020000040000fa
:04039c003a0500001e
:020000040000fa
:0403a0003a0500001a
:020000040000fa
:0403a4003a05000016
:020000040000fa
:0403a8003a05000012
:020000040000fa
:0403ac003a0500000e
:020000040000fa
:100400008f8a20000eff20000e01880000000000ef
:10041000000020000000e000020032000001200087
:100420002002880014000700b50107000000e0006a
:1004300003003a00a09c20000100200002003700c9
:100440000000200001002000810f70000100320038
:1004500014000700000020000000e000020032004d
:100460000000020000000000f61102000000000081
:100470000040da000000fe004440a90020002000f7
:100480000000e0000300320000002000a00188000e
:100490004440a800000006008a1f78008b1f7800e7
:1004a0000000060091018800800478000000eb0045
:1004b0001a003700e284440032a0b4009905ba0063
:1004c000e284440032a0b4009906ba00e2844400f9
:1004d00032a0b4000006eb00476fde00fd07b2005b
:1004e000636ce10003003a00ebff07000000eb0043
:1004f0000a003700606ce10004003a00005deb0088
:100500008b05e900fdff3e00040037006168e10053
:10051000010032000086eb000b00070019c7ba008b
:100520001905ba000e04e00003003a000a00e000da
:10053000e0ff3a0000000600fe07b2009e018800be
:100540008a047800f5ff3700395dba008b05e900b1
:100550000c003200295dba008b05e900080032006a
:100560000c00e00003003a00e284440032a0b40032
:10057000f5ff370019ddba008b05e900faff3a00f4
:100580008904e800e184440032a0b40000000600c1
:100590003600f8008020a9000000eb0040090700a9
:1005a0003600f800e40807008040a9001000200091
:1005b0003b0907003600f8008060a90020002000f9
:1005c000370907003600f8008080a90030002000bd
:1005d000330907003600f800809fbe00829fbe00ee
:1005e000849fbe00869fbe000000fa008a20a900fa
:1005f0009110800000082000008060000000e000f2
:100600000800320012e2a9006628ef006043800073
:10061000200090008000eb00010878006c28ef00bb
:100620000d013700304380008000eb00b200200055
:1006300003002000820f5000838f5800fc003e0012
:10064000006001000b0037003900370075003700eb
:100650009c003700f3003700c8003700d90037008e
:10066000f0003700db003700f100370034003700be
:10067000500037004083200020009000620060009e
:100680000000e000f3003a004083200010009000da
:1006900060438800408320001000900010407800e4
:1006a00068e8b70040832000100090001000900020
:1006b000504388004083200010009000e600400076
:1006c000408320001100980040832000900090009b
:1006d00020842000808f500003003a0040832000d7
:1006e000c18320001100980040832000a0009000ea
:1006f0000100a1002100980040832000900090009c
:100700004083200010007800808f500004003a00e1
:1007100040832000a00090000110a000210098005c
:100720001402a8002000200030438800ca003700cf
:100730001422a8002000200030438800c6003700a3
:10074000a110800000042000008060000000e00094
:100750000800320040832000604090008040e800a4
:100760004083200061409800400020006707070098
:10077000b9003700704380008000d100f00f2000e6
:10078000008060008010880070438000610060007d
:10079000004078000004e00003003200b0002000b8
:1007a00030438800ac003700300020003043880020
:1007b000a9003700a1108000000420000080600024
:1007c0000000e000080032004083200060409000fc
:1007d0008040e800408320006140980040002000f5
:1007e0004a0707009c0037001422a80070438000cd
:1007f0004800de00e6006000000f200001007000ed
:1008000070438800704380000000a000704388009f
:1008100010c0b30070e8b70020002000304388000b
:100820008d00370070c8bf00e14f50000a00320051
:1008300050438000100078007043880050438000cf
:10084000200090009043880050438000204090009a
:1008500074e8b700010037007068ef007143800052
:10086000f00f2000808f5000090036007043800098
:100870004800de00e6006000000f2000010070006c
:1008800080108800a00020003043880072003700ec
:100890007043800080108800704380006100600019
:1008a000004078000004e000030032005000200007
:1008b0003043880068003700300020003043880053
:1008c00065003700a1108000000420000080600057
:1008d0000000e000090032004083200060409000ea
:1008e0008040e800408320006140980014c2a900c5
:1008f00050002000050707005700370074c8bf00ec
:100900008080fb008100e900cf08de008140780094
:100910000040e90074e8b7000104e0001000320074
:1009200050438000660040005043880068c8bf0004
:100930000040e90068e8b70068c8bf000004e000b4
:1009400003003a0020002000f006070042003700b4
:100950001422a80020002000304388003e00370009
:1009600090438000904078008180fb0081108800d7
:100970000000e8009043880037003700a110800095
:1009800000042000008060000000e0000900320048
:1009900040832000604090008040e80040832000b9
:1009a0006140980040002000d806070014c2a9004a
:1009b000290037001462a80080002000304388001e
:1009c0002500370080002000304388001462a80012
:1009d0002100370090438000811080008140780022
:1009e000014878000000e8009043880074c8bf0008
:1009f0000040e90074e8b70074c8bf000004e000dc
:100a00000400320014a2a9006000200030438800d6
:100a10000200370014a2a800630607001482a80091
:100a20000d00370020002000b80607000a0037003c
:100a300040832000604090008040e8004083200018
:100a40006140980060002000b00607000000000030
:100a500001003700000000000080fa004f03be00d4
:100a60004f02be004f01be004f00be003600f9002d
:100a7000004006000040da000000fe000800fa0016
:100a80001007980021079800320798000000000026
:100a90001111800000102000008060000000e000c4
:100aa000fbff3200be009000010f78000e003700ff
:100ab0000000000011118000001020000080600084
:100ac0000000e000fbff32002e0090001040780094
:100ad0000000fb00201188002e0090000000e800bc
:100ae000200798001e0fe9001e0078000000e000bb
:100af000efff3a003e0090000080fa000000060080
:100b00000000050003f0a200889fbe008a9fbe007f
:100b10008c1f7800ba000700c10033006450e10068
:100b20004f0032006420e1005200320003826c006a
:100b300007003b000905d0000306d000820f5400d7
:100b40000c065d00020039000200320089017800c5
:100b5000030678008582550004003d000003fd0077
:100b60008103fd008502ea008b854200840f72003c
:100b700002003b0060001000e08018006011b80027
:100b80000005eb007a28e1000a0039000600780031
:100b9000c75ddd00f707b200878075002d003700c4
:100ba000828171000a017800610560008180d100b6
:100bb0000080d3008502e900f9ff3b0006044000f5
:100bc0008784480002003b0060041400e0841c009d
:100bd0000988a300070032008a81710082817100b8
:100be000610164008904d1000884d3008b05e8000a
:100bf000170037000978a30013003a000b00e0004b
:100c0000130034008b05e9000804440089844c007b
:100c10000a4474000978a3000d003a000b00e000bc
:100c2000070034008b05e9000804440089844c0067
:100c300001003a000b0020000978a300f7ff320002
:100c40000001eb0002003700828171000a01780088
:100c5000300007000cf0a70001f0a0007900370079
:100c60006420e10002003a00838f6c0079003300b9
:100c70000801be000200be00720037000001be0085
:100c80004a0007000470a70003f0a1006509b10045
:100c9000160032000d0035006828e100060035001e
:100ca000f0ff2f00f1ff27000300e00013003b00de
:100cb000010028000000050000004000818048007d
:100cc0008502e900fcff3a0008003700f88f420077
:100cd00002003c008000eb00000005008100d10014
:100ce0000080d3008502e800fcff3a000300e0002a
:100cf00002003b0060001000e080180000000600c9
:100d00004f89de00820178008b0037006011b80047
:100d10009900370081002000618055000b003d00e4
:100d20000b00200061fe2f000100e1001d003400d7
:100d300082817100610164008904d1000884d300bc
:100d40000000e800faff3a00710020006100640032
:100d500003007000020060000900320061044400da
:100d6000e0844c000988a500050032008b05e800ee
:100d70006808e10002003a008904d1000884d30029
:100d8000f20f20000258e10005003d00c75ddd00c4
:100d9000f907b2008980750008007800000006009d
:100da0000bf827008b00780000000500c70ade0062
:100db000f107b200f50fb20008003200e1cf4200a7
:100dc000020032000170a00024000500810f7000b5
:100dd000010032000408050044000500810f700086
:100de00002003a00140005008502e90000004000fe
:100df00081c04800fcff3b000170a00024000500fa
:100e00000004be00e9ff07000003be000405be00a9
:100e10000200be00e5ff0700844f750000000600d9
:100e20000200be006450e100050036006420e100cd
:100e3000020036000968a30001003a000800be0065
:100e40000160a0004f0678004f05be004f04be00b1
:100e500000000600f0ff2f00f1ff2700f9ff370028
:100e6000889fbe008a9fbe008c1f7800e4ff0700a9
:100e7000ebff330003866c006450e1002400320075
:100e80006420e100270032006150e10022003200be
:100e90006120e100210032008b854200eb07b100a8
:100ea0000134b800003ab8000804420089844a00be
:100eb000013ab8000030b8008880400009014a00bb
:100ec0000400330000004000818048000201490016
:100ed0008b05e900c909dd008301700001003200c3
:100ee00013002000c814de004814dd004709de00ae
:100ef0001200b200c808de000884700085ff0700f9
:100f000001f0a1000cf0a70001f0a000cdff370018
:100f10006120e100cfff32000801be000200be00e8
:100f2000f7ff37006150e100fcff3a00c9ff3700ce
:100f30000001eb003f003700881f780003047800b1
:100f40000300e00007003d0060001000e080180092
:100f500060011900e081190002003b0001f02d0042
:100f6000030037000400070008f0a70001f0a0000c
:100f70004f04780000000600889fbe008a9fbe00d4
:100f800000827000040271000482710026003200a9
:100f90000004be000200be006011b8006b09200012
:100fa000950220000182cf000a0039000541b100fe
:100fb0000082cf00070039000541b1000982cf004f
:100fc000040039000541b1000882cf00010039005a
:100fd0000541b10005425200120032000a003b00f8
:100fe00082817100610164008100d1000080d30022
:100ff0008984d3000884d3008b05e8000442e8000c
:10100000f7ff3a00070037000804440089844c00c9
:1010100000004800818048008b05e9000442e90097
:10102000f9ff3a003bff07004f05be004f04be002a
:1010300000000600889fbe008a9fbe008c9fbe00f5
:10104000820578000004be0058ff07000800be00bb
:101050006420e1000700390002003a00f1ff270098
:10106000f0ff2f000160a00012022000324588002e
:10107000550037006120e10003003a000b00a70093
:1010800001f823005000370001f0a1000200210008
:1010900093642400500007000800be0004003500df
:1010a000b2fd2000930c24004d0007000004be0098
:1010b0000005eb000b00a6004f0dde0001f0a100c3
:1010c0000004be0032982f0023ea230064ff0700cb
:1010d0000001eb0003f023000b00a70003f823003e
:1010e00089fe0700e5fe07000000a7000a00a20035
:1010f00003ff07000b00e0000300320002002000a5
:1011000003f023007ffe070001f0a2000006be00ee
:10111000020020009304240051ff07000801be00d4
:1011200079fe0700809fbe000c00be0022a22a00ac
:10113000d3a723004aff07004f01be0072fe07003d
:101140000004be0001f0a10002002000039823006b
:10115000210007000800be00190035000001be0094
:101160003fff07000006be00b2c52900e36223006e
:101170003bff070022222b00f3942b0062fe0700a6
:101180000c01be0036ff0700e273280083c0230075
:101190005dfe07000c01be0031ff070042aa2a00d5
:1011a000a3e22b0058fe07000c01be002cff070035
:1011b0000801be002aff07000801be0052fe07001a
:1011c0000a00a70001f0a2004f06be004f05be00b6
:1011d0004f04be000000060014002000510037003c
:1011e0000400200000003700889fbe008a9fbe00d8
:1011f0008c1f78004f26dd0001ff070008ff330039
:101200006120e100430032006250e10041003e00f5
:101210003e0039006420e1003c00320005825500a8
:101220000f003b000402e80038003a00800f530032
:10123000818f5b00350034000800be0003f0a10080
:1012400001f0a60003f0a0000cf0a7002efe07009e
:10125000fcfe37000603430087834b000c46460024
:101260000005530081855b00020033000a03be00c5
:101270000c00a0000402e900f6ff3b0085057800a1
:101280000602430087824b0004003a006000b80069
:1012900009f0a70001f0a000eafe370000025200aa
:1012a00081825a000704e000040033000603430073
:1012b00087834b008b05e900faff370009057800aa
:1012c0000604be000203be006011b80091fe0700d4
:1012d000e00f5200e08f5a000700350002003c008a
:1012e0000c08a300040032000601be0003f0a000b9
:1012f0000cf0a70004fe07000a85680001f0a100b9
:101300000af0a70001f0a000cefe37000800be00e2
:10131000ccfe3700100220000cf0a60030458800fb
:10132000ccfe3700889fbe008a9fbe00841f7800d5
:10133000b3fe07004f00780011003300f0ff2f00cc
:10134000838f6c0006003b00040565000a00a700bf
:101350000800370009f0a600100020000800370040
:10136000820f5400838f5c000300390010002000be
:1013700001003e000000200009f0a7000000ea0084
:101380004f05be004f04be000000e0000000060054
:020000040000fa
:04139000f401000064
:020000040000fa
:10139400620800000200000002000000ffff0000dd
:1013a40000080000200000000000000064080000a5
:1013b40002000000000000003c08000006000000dd
:1013c40000000000340800000800000000000000d5
:1013d4006608000002000000000000006808000029
:1013e40002000000000000006a0800000200000083
:1013f400000000006c080000020000000000000073
:101404004208000006000000000000004808000038
:1014140006000000000000006e080000020000004a
:10142400000000007008000002000000000000003e
:1014340072080000020000000000000074080000b0
:101444000200000000000000760800000200000016
:101454000000000078080000020000000000000006
:101464007a08000002000000000000007c08000070
:10147400020000000000000020080000140000002a
:10148400000000007e0800000200000002000000ce
:1014940001000000800800000200000000000000bd
:1014a4008208000002000000020000003901000070
:1014b400840800000200000000000000860800000c
:1014c4000200000000000000880800000200000084
:1014d400000000008a080000020000000000000074
:1014e4008c08000002000000000000008e080000cc
:1014f400020000000000000090080000020000004c
:10150400000000009208000002000000000000003b
:10151400940800000200000000000000960800008b
:1015240002000000000000004e080000040000005b
:10153400020000009a9919003e00000052080000c1
:10154400040000000200000017b751003900000039
:101554005608000004000000000000009808000085
:1015640002000000000000009a08000002000000d1
:10157400000000009c0800000200000000000000c1
:101584009e0800000200000000000000a008000007
:101594000200000000000000a20800000200000099
:1015a40000000000a4080000020000000000000089
:1015b4005a08000004000000000000005e0800005b
:1015c4000400000000000000a60800000200000063
:0815d40000000000000000000f
:020000040000fa
:1015dc001000fa00204f980061079800624f9800a5
:1015ec001000200030079800ee00900021079800b2
:1015fc00ae489000014f98000000eb00000f7800ff
:10160c000000eb00100798001b003700e6004700b5
:10161c0068004700810178002206200011c0b30049
:10162c00dd020700090037009e0090008038210081
:10163c00808f500002003a000040eb00450037005c
:10164c001e0090000000e800100798003e0090007b
:10165c00e10f5000f4ff32003e009000e20f50000a
:10166c0009003200803821009e007800808f5000e5
:10167c00070032001e0fe8003e0090000000e00062
:10168c00e2ff3a00030037000000000001003700c1
:10169c00000000003e009000e20f500027003a00ce
:1016ac000000eb00000f78000000eb001007980022
:1016bc001b003700660047008001780022062000de
:1016cc00ee4890002e009000cc0207000900370075
:1016dc009e00900080382100808f500002003a005c
:1016ec000040eb001b0037001e0090000000e800db
:1016fc00100798003e009000e10f5000f4ff3200fc
:10170c003e009000e20f50000900320000712200f0
:10171c009e007800808f5000070032001e0fe800fa
:10172c003e0090000000e000e2ff3a0003003700aa
:10173c000000000001003700000000003e00900097
:10174c000000e00002003a000040eb00010037000e
:0c175c0010c0b3000080fa00000006007e
:020000040000fa
:101768000000fa00889fbe00000880004400dd00e9
:101778004044880040448000704488005144800000
:101788006044800010007800008050008044880089
:1017980081448000f07c2000808f500004003400d9
:1017a8008144800020062f0000804000804488008b
:1017b8008144800010832f00808f500004003d007a
:1017c80081448000e0f920000080400080448800c7
:1017d80081448000704480000088b900800078004f
:1017e800a044800000804000a0448800814480001c
:1017f8009044800080805000704480000001780090
:10180800110009008200d800b0448800804480009c
:10181800cf80de0038fd07000002be007042800065
:10182800814280000001be000400be008afd07005e
:101838000004be00a0448000cf80de002efd07001b
:101848000002be0090428000a14280000001be005c
:101858000400be0080fd07000001be000800be00b5
:10186800a7fc07000004be00b0448000cf80de0063
:1018780021fd07000002be00b0428000c142800086
:101888000001be000400be0073fd07000001be0099
:101898000800be009afc0700f6fc0700000078006c
:1018a800c04488008044800090448800c044800080
:1018b800ac0107004f04be000080fa0000000600db
:020000040000fa
:1018c8000600fa00004f78001107980022079800d8
:1018d8004083200020009000610060000000e000cc
:1018e8002e003a002e009000110020000108780018
:1018f80040832000100078009e009000110098009e
:1019080040832000100078001e48780040832000a3
:1019180010007800ae00900021009800408320005d
:1019280010007800e600400040832000010878009d
:10193800408320009000780020842000808f500091
:1019480003003a0040832000c1832000010878008a
:1019580040832000a00090000110a1002100980001
:101968004083200090009000408320001000780001
:10197800808f500004003a0040832000a0009000af
:101988000100a00021009800304380000000e00022
:1019980005003a008a20a800030037002e009000b6
:1019a8008000eb00010878000080fa0000000600c3
:020000040000fa
:1019b8000a00fa0030c0b300004f780041882000c8
:1019c8009140780040c6b30080cf500004003a0030
:1019d80040c0b300004f78008468ef000300370070
:1019e80084c8bf000040e80084e8b7009e40780043
:1019f8000040eb009d000700104798001e40900033
:101a08000004e00003003a002e0207000000eb008b
:101a1800210037006600470012c0b300800078003c
:101a280010c0b300ebfe0700104798001e4090005e
:101a38000004e00002003a000000eb001600370046
:101a48006e409000614060002047980066004700a3
:101a580022c0b30080007800f0c8b300ddfe0700a4
:101a6800104798001e4090000004e00002003a0071
:101a78000000eb00080037006e4090000080fb007b
:101a8800c800dd007e4090000080fb000080400020
:101a9800200798002e0090000080fa000000060041
:020000040000fa
:101aa8000800fa00881f780010079800414798003e
:101ab800320798000000eb00000f78001e0090002d
:101ac8000000e0001d0032003e0090000000e00031
:101ad80014003200080037003e0090001e04400049
:101ae8001e0090001e004000104078007802070099
:101af800004c78001e0fe8004e4090000080fb006c
:101b08009e0f5000f4ff3e001a0037001e009000a0
:101b18001e004000104078006d0207001e0fe8000c
:101b280001003700000000004e4090000080fb00dc
:101b38009e0f5000f5ff3e000e0037003e0090005b
:101b48000000e0000b003200060037003e00900065
:101b58001e0440000040eb005d020700004c7800c6
:101b68001e0fe8004e4090000080fb009e0f5000c2
:101b7800f6ff3e001e007800004078004f04780011
:081b88000080fa0000000600d5
:020000040000fa
:101b90000000fa00889fbe00000880008000eb0073
:101ba0005afc0700d27b230063782300acfc0700bb
:101bb0000002be00f0428000014380000001be0030
:101bc0000400be00d0fb0700f042880001438800fb
:101bd00010458000cf80de0049fc07000004be00f5
:101be000d0428000e142800002fd2000930c2400de
:101bf0009bfc07000002be00f04280000143800011
:101c00000001be000400be0095fc0700c8fc0700f0
:101c10000001be000800be0091fc07000004be00e9
:101c200000458000cf80de0035fc07000001be00cb
:101c30000800be00b4fb070010fc0700000078009d
:101c400020458800204580000000e00004003d00a1
:101c500021458000e0f920000080400020458800f8
:101c6000204580006f0307004f04be000080fa008b
:041c7000000006006a
:020000040000fa
:101c74000a00fa00004f9800114f9800100020004d
:101c8400200798008e489000614798009e48900075
:101c9400714798000000eb00000f78000000eb0093
:101ca400100798001d003700e40047006600470055
:101cb400810178002206200021c0b300380107000a
:101cc400090037009e00900080382100808f50006a
:101cd40002003a000040eb001b0037001e00900099
:101ce4000000e800100798002e009000e10f50005b
:101cf400f4ff32002e009000e20f50000b0032007f
:101d0400803821009e007800808f500002003a0045
:101d14000040eb000c0037001e0fe8002e0090007e
:101d24000000e000e0ff3a0001003700000000007e
:101d34002e0090000000e00002003a000040eb009a
:101d44000100370010c0b3000080fa000000060054
:020000040000fa
:101d54000800fa00000f7800110798002207980085
:101d6400330798001e007800e04488001e009000ad
:101d7400f04488002e019000be019000d2428800f9
:101d8400e3428800e1448000f0448000808f5000ea
:101d94000e0034009a68ef00e1448000f0448000b3
:101da400808050002000200080017800110009008c
:101db4008300d8001045880011458000f04480005d
:101dc400008040000045880017003700e14480008f
:101dd400f0448000808f500011003d0010c0b3001b
:101de4009ae8b700f0448000e1f9200080805000b8
:101df400e044800080804000200020000001780042
:101e0400110009008200d80010458800e1448000d8
:101e14001045800000805000004588000200370013
:101e2400e0448000004588000080fa0000000600bd
:020000040000fa
:101e34000000fa007cc8bf008000fb0020002000e6
:101e440000017800110009008200d80000407800e9
:101e54000000fb00440007007ec8bf000004e0004f
:101e6400040032007cc8bf000040e8007ce8b700f2
:101e7400030037007cc8bf000040e9007ce8b700dd
:101e8400c18720009140780030c6b30080cf500055
:101e9400040034007ec8bf000004e00001003200ea
:101ea4007e68ef00c187200091407800d0c9b3005c
:101eb40080cf500006003d007ec8bf000004a20091
:101ec4000004e0000200320010c0b3007ee8b70056
:101ed4007ac8bf000040e8007ae8b7000080fa0042
:041ee40000000600f4
:020000040000fa
:101ee8000400fa00100798000040eb00004f78004b
:101ef8001e009000104078008040780020c0b30099
:101f08005aff07001e4f40001e009000104090002e
:101f18008040780040c0b30054ff070000404000f4
:101f28001e4f40001e009000204090008040780026
:101f3800c0c1b3004dff0700210020000100dd00f3
:101f48001e4f40001e407800e74f500002003a0044
:101f580010c0b300010037000040eb000080fa0019
:041f6800000006006f
:020000040000fa
:101f6c000400fa00100798009e009000314488008d
:101f7c003144800040062000808f50000200340065
:101f8c00400620003044880031448000c0f92f0006
:101f9c00808f500002003d00c0f92f0030448800b3
:101fac00304480000000e00002003d00ccc2a800dc
:101fbc0001003700ccc2a90030448000f6010700b4
:101fcc00000f78009e0078000000eb002302070051
:081fdc000080fa00000006007d
:020000040000fa
:101fe4000400fa00cd82a90000c6b300390107003d
:101ff4000040eb00370107000040eb00350107000b
:102004000040eb0033010700204798000040eb003c
:102014003001070030479800cd82a8002e40900080
:102024000080fb00c800dd003e4090000080fb0003
:10203400008f70001e0078000000e00002003d00e8
:10204400f0f920001e0f40001e0078000080fa0006
:042054000000060082
:020000040000fa
:102058000000fa00c422ef00cc22ef00000c2000a0
:10206800a0168800f0fb200000168800f067240006
:102078004016880070372000801688005620ef0030
:102088005820ef005a20ef006e20ef007020ef007c
:102098007220ef00c622ef00ce22ef00d622ef001a
:1020a800f00120000027880000272400102788005e
:1020b80070002000202788000080fa000000060039
:020000040000fa
:1020c8000000fa0040832000c1832000110098001e
:1020d80040832000c183200001087800408320004d
:1020e800a00090000110a00021009800408320006b
:1020f800a00090000100a10021009800408320006a
:102108008040eb00614098001822ef008002200018
:10211800901088001622ef0090012000d01088004f
:102128008a20a9009a20a8000080fa000000060072
:020000040000fa
:102138000000fa0050002800000a88004221ef0041
:102148004421ef0000302000300a88004821ef00c9
:102158004a21ef004c21ef005021ef005221ef00ff
:10216800803e2000a00a88005621ef005821ef0089
:10217800401f2000e00a88006021ef006221ef0084
:10218800000a8000004078006f4060000080fb007b
:0c219800204388000080fa0000000600d0
:020000040000fa
:1021a4000800fa00000f78002147980022079800e1
:1021b40033079800408320002000900061006000f5
:1021c4000000e0000a003a00ae0190002e419000a9
:1021d4009e007800808420004e0007003e0190009d
:1021e4008184200010c0b300b6fd0700030037004f
:1021f4003e0090008000eb00010878000080fa00a7
:0422040000000600d0
:020000040000fa
:102208000800fa00000f780021479800220798007c
:102218003307980040832000200090006100600090
:102228000000e0000a003a00ae0190002e41900044
:102238009e007800208420000a0007003e019000dc
:102248002184200010c0b3009dfd07000300370063
:102258003e0090008000eb00010878000080fa0042
:04226800000006006c
:020000040000fa
:10226c000800fa00000f7800110798004247980008
:10227c00330798003e00900000004000800078007a
:10228c001e007800010878001e007800100078000d
:10229c00800078000100a0001e0078000108780082
:1022ac001e007800ce409000214098001e0078005f
:1022bc009e009000210098000080fa0000000600ab
:020000040000fa
:1022cc000400fa00cca2a90000502300c100200099
:1022dc0063000700cca2a80000202100a107200069
:1022ec005f00070000c8b300004f780080c0b30047
:1022fc00104798000040eb00204798000e00780033
:0c230c00f6fe07000080fa00000006004a
:020000040000fa
:102318000800fa00000f780011079800424798005b
:10232800330798003e0090000000400080007800cd
:102338001e007800010878001e007800ce4090004a
:10234800214098001e0078009e009000210098000f
:082358000080fa0000000600fd
:020000040000fa
:102360000000fa00c8c2a900d062a900c122a900d9
:10237000d042a900d022a900c982a900c8a2a90000
:10238000cd82a800cca2a800c522a900d462a900d1
:1023900050010700cdff0700b7010700f00107005b
:0823a0000080fa0000000600b5
:020000040000fa
:1023a8000000fa0050438000660040005043880057
:1023b80068c8bf000040e90068e8b70068c8bf0007
:1023c8000004e00003003a00400020003043880089
:1023d8000200370010002000304388000080fa0017
:0423e80000000600eb
:020000040000fa
:1023ec000000fa00b5000700daff0700d462a8006d
:1023fc00c522a800008820008101070040062000ab
:10240c00850107000200200003042400c15d2000a8
:10241c00007d20004cfe07008f01070072010700b1
:04242c00fdff370079
:020000040000fa
:102430000000fa0000000000101180006100600040
:102440000000e000fcff320010118000620060001c
:102450000000e000010032002222a90030118000bb
:0c246000004078000080fa000000060038
:020000040000fa
:10246c00f03fb1000180b10006003500ee03090019
:10247c0000000000403fb1000180b100fbff3d00b7
:10248c001000b000203fb0000200350000800900b1
:08249c00000000000000060032
:020000040000fa
:1024a4000000fa000001eb00600420007105200028
:1024b400237420008049780081497800824978009b
:1024c4004427ef004827ef004e27ef000080fa0072
:0424d40000000600fe
:020000040000fa
:1024d8000200fa00004f78001e80fb000010880000
:1024e8000000000040108000610060000000e00073
:1024f800fcff320000108000004078000080fa00e5
:0425080000000600c9
:020000040000fa
:10250c000200fa00000f78001442a800604380001b
:10251c00200090000000e0000300320060438000c7
:10252c00200090001e0878006628ef000080fa005a
:04253c000000060095
:020000040000fa
:102540000000fa0040832000200090000000d1002d
:10255000614060000080fb0000f0a7000000ea007e
:102560000000ea004f00de00004078000080fa0022
:042570000000060061
:020000040000fa
:102574000000fa0020048000680060000000e00011
:102584000600320077c8bf000040e80077e8b700d3
:1025940010c0b30076e8b7008460a9000080fa0098
:0425a400000006002d
:020000040000fa
:1025a8000000fa00200480000000d10061406000b3
:1025b8000080fb0000f0a7000000ea000000ea002d
:1025c8004f00de00004078000080fa00000006009e
:020000040000fa
:1025d8000000fa00600a80004700de0061406000e9
:1025e8000080fb0000f0a7000000ea000000ea00fd
:1025f8004f00de00004078000080fa00000006006e
:020000040000fa
:102608000000fa00600a80004300de0061406000bc
:102618000080fb0000f0a7000000ea000000ea00cc
:102628004f00de00004078000080fa00000006003d
:020000040000fa
:102638000200fa00004f780000000000111180002d
:1026480000202000008060000000e000fbff3a004e
:102658001e80fb00201188000080fa0000000600a0
:020000040000fa
:102668000000fa000004200040108800100220003a
:10267800101088000422ef000622ef000c22ef0061
:1026880010002000501088000080fa0000000600aa
:020000040000fa
:102698000000fa00408320002000900061406000a4
:1026a8000080fb0000f0a7000000ea000000ea003c
:1026b8004f00de00004078000080fa0000000600ad
:020000040000fa
:1026c8000000fa0062fe07002701070073ff0700f9
:1026d8007bfe07003c000700e1ff070072000700cf
:0c26e80093fe07000080fa0000000600ce
:020000040000fa
:1026f4000000fa0011108000000820000080600033
:1027040000f0a7000000ea000000e9004f00de002e
:0c271400004078000080fa000000060081
:020000040000fa
:102720000000fa001110800000042000008060000a
:1027300000f0a7000000ea000000e9004f00de0002
:0c274000004078000080fa000000060055
:020000040000fa
:10274c000200fa006187200091407800014f780068
:10275c001e4078000004e000010032007668ef00b3
:0c276c001e4078000080fa00000006000b
:020000040000fa
:102778000000fa000108800010448000808f50009b
:10278800040039008460a900fffc0700f4fb07007f
:0c2798000021ef000080fa0000000600a5
:020000040000fa
:1027a4000400fa00100798001e00900000f0a70033
:1027b4000000ea00000f78001e0078006a00b900eb
:0c27c400000078000080fa000000060011
:020000040000fa
:1027d0000000fa0080002000001188002222ef0093
:1027e000000120004011880021e2a8002342a80037
:0827f0000080fa000000060061
:020000040000fa
:1027f8000000fa00401080006100600000f0a700af
:102808000000ea000000e9004f00de000040780008
:082818000080fa000000060038
:020000040000fa
:102820000000fa0021048000000820000080600001
:102830000000e0000100320084e0a9000080fa00fe
:04284000000006008e
:020000040000fa
:102844000400fa00000f7800110798009e00780039
:10285400c10a88009e009000e10a88000080fa0006
:04286400000006006a
:020000040000fa
:102868000400fa00000f7800110798009e00780015
:10287800c10a88009e009000e10a88000080fa00e2
:042888000000060046
:020000040000fa
:10288c000400fa00000f7800110798009e007800f1
:10289c00c10a88009e009000e10a88000080fa00be
:0428ac000000060022
:020000040000fa
:1028b0000000fa000021ef000080eb001008880003
:1028c00000032800200888007668ef000080fa00e6
:0428d00000000600fe
:020000040000fa
:1028d4000000fa00cd82a90080c8b300fdfe070005
:1028e40030c2b300fbfe0700cd82a8000080fa00ce
:0428f40000000600da
:020000040000fa
:1028f8000000fa0020048000620060000000e00090
:10290800010032008420a9000080fa0000000600bf
:020000040000fa
:102918000000fa0020048000680060000000e00069
:10292800010032008460a9000080fa00000006005f
:020000040000fa
:102938000000fa00008020008007780080812000d5
:0c294800000188000080fa00000006007a
:020000040000fa
:102954000200fa0040832000e0409000014f78001c
:0c2964001e4078000080fa000000060011
:020000040000fa
:102970000200fa00000f78009e007800110888001d
:0c2980007668ef000080fa0000000600fe
:020000040000fa
:10298c000200fa00000f78009e0078000108880011
:0c299c007668ef000080fa0000000600e2
:020000040000fa
:1029a8000000fa008460a9000021ef009228ef00df
:0c29b8009428ef000080fa0000000600e8
:020000040000fa
:1029c4000200fa00000f78009e007800c10a880017
:0829d4000080fa00000006007b
:020000040000fa
:1029dc000200fa00000f78009e007800c10a8800ff
:0829ec000080fa000000060063
:020000040000fa
:1029f4000000fa007afd0700004488005dff07002c
:082a04000080fa00000006004a
:020000040000fa
:102a0c000200fa00000f78009e00780061448800f4
:082a1c000080fa000000060032
:020000040000fa
:102a24000200fa00000f78009e00780051448800ec
:082a34000080fa00000006001a
:020000040000fa
:102a3c000000fa007668ef0005e1a8000080fa00bb
:042a4c000000060080
:020000040000fa
:102a50000000fa0077c8bf000080fb000080fa0089
:042a6000000006006c
:020000040000fa
:102a64000200fa00d3fb0700000f78000080fa0090
:042a74000000060058
:020000040000fa
:102a78000000fa00304480003afd07000080fa00a8
:042a88000000060044
:020000040000fa
:102a8c000000fa0030448000004078000080fa001a
:042a9c000000060030
:020000040000fa
:102aa000000f78009e00780011438800ffff370078
:020000040000fa
:102ab0000000fa0041e1a8000080fa0000000600d2
:020000040000fa
:102ac0000000fa0041e1a9000080fa0000000600c1
:020000040000fa
:102ad0000000fa004cc1a8000080fa0000000600c7
:020000040000fa
:102ae0000000fa004ca1a9000080fa0000000600d6
:020000040000fa
:102af0000000fa004c61a9000080fa000000060006
:020000040000fa
:102b00000000fa00101180000080fa0000000600aa
:020000040000fa
:102b10000000fa00100880000080fa0000000600a3
:020000040000fa
:102b20000000fa00000880000080fa0000000600a3
:020000040000fa
:102b30000000fa0005e1a9000080fa00000006008c
:020000040000fa
:102b40000000fa007768ef000080fa00000006003d
:020000040000fa
:102b50000000fa0098fb07000080fa000000060061
:020000040000fa
:102b60000000fa00b5ff07000080fa000000060030
:020000040000fa
:0c2b70000000fa000080fa0000000600df
:020000040000fa
:0200000401f009
:04000000ffff0000fe
:020000040000fa
:0200000401f009
:04000800ffff0000f6
:020000040000fa
:0200000401f009
:04000c00f9ff0000f8
:020000040000fa
:0200000401f009
:040010003bff0000b2
:020000040000fa
:0200000401f009
:040014005fff00008a
:020000040000fa
:0200000401f009
:04001800bfff000026
:020000040000fa
:0200000401f009
:04001c00ffff0000e2
:00000001FF
